:0400000081EF00F09C
:10000800CD0CCD0CCD0CCD0C4000CD0C4000CD0C52
:10001800930CCD0CCD0CCD0CCD0CCD0CCD0CCD0C4A
:10002800CD0C400040004000CD0CCD0CCD0CCD0CCB
:10003800CD0CCD0CCD0CCD0CCD0CCD0CCD0CEB0BD3
:10004800CD0CCD0CCD0CCD0C40004000CD0CCD0C12
:10005800CD0CCD0CCD0C4000CD0CCD0CCD0CCD0C69
:10006800990CCD0CCD0CCD0CCD0CCD0CCD0CCD0CF4
:10007800CD0CCD0CCD0CCD0C4000CD0CCD0CCD0C49
:10008800CD0CCD0CCD0CCD0CCD0CCD0CCD0CCD0CA0
:10009800CD0CCD0CCD0CCD0C4000CD0C400040005B
:1000A8009F0CCD0CCD0CCD0CCD0CCD0CCD0CCD0CAE
:1000B800CD0CCD0CCD0CCD0CCD0CCD0CCD0CCD0C70
:1000C800CD0CCD0CCD0CCD0CCD0CCD0CCD0CCD0C60
:1000D800CD0CCD0CCD0CCD0CCD0CCD0CCD0CCD0C50
:1000E8004000CD0CCD0CCD0C40004000400040003D
:0E00F800CD0CCD0CCD0CCD0CFF00AFEF17F0F2
:1026000000323200000000EE2B000000000000004D
:102610000000000000005E31000000009432000065
:10262000000030310000000000000002C000FF0088
:1026300002C000FF0000FCEC18F08DEC19F090ECEB
:1026400019F019EC19F0000EF7EC15F0C792BF82E3
:10265000C794BF94CB90C380CB96CB94C780040122
:10266000098125EC17F02A0E156E050E166E7A0EEE
:10267000176EFCEC17F0D9EC18F01E0EC5EC18F034
:102680000AC582F50BC583F51D0EC5EC18F00AC509
:1026900084F50BC585F52F0EC5EC18F00AC586F537
:1026A0000BC587F52E0EC5EC18F00AC588F50BC5CD
:1026B00089F5010E0501936FF40E926F050E956F6B
:1026C000DC0E946F070E976FD00E966FC3961E0E9A
:1026D000C5EC18F00AC58AF50BC58BF5020E1A6E0B
:1026E000A00E196E920EE82EFED7192EFCD71A2EC8
:1026F000FAD700D01D0EC5EC18F00AC58CF50BC535
:102700008DF5020E1A6EA00E196E920EE82EFED7EF
:10271000192EFCD71A2EFAD700D02F0EC5EC18F0C0
:102720000AC58EF50BC58FF5020E1A6EA00E196E36
:10273000920EE82EFED7192EFCD71A2EFAD700D00B
:102740002E0EC5EC18F00AC590F50BC591F5020EDA
:102750001A6EA00E196E920EE82EFED7192EFCD717
:102760001A2EFAD700D02D0EC5EC18F00AC580F548
:102770000BC581F5020E1A6EA00E196E920EE82E90
:10278000FED7192EFCD71A2EFAD700D0050180519A
:102790008111D8B4CEEF13F0D0EF13F0D3EF13F0D4
:1027A0006469D4EF13F0646B96518425196E9751C8
:1027B00085211A6E8C51195C8D511A58D8B0E3EFEF
:1027C00013F0E5EF13F0E8EF13F0616952EF14F046
:1027D00094518425196E955185211A6E8C51195C7E
:1027E0008D511A58D8B0F7EF13F0F9EF13F0FDEF51
:1027F00013F0E00E616F52EF14F092518425196EC0
:10280000935185211A6E8C51195C8D511A58D8B08C
:102810000CEF14F00EEF14F012EF14F0C00E616F15
:1028200052EF14F09651845D196E975185591A6EC6
:1028300019508C5D1A508D59D8B021EF14F023EF48
:1028400014F026EF14F0616B52EF14F09451845D94
:10285000196E955185591A6E19508C5D1A508D5903
:10286000D8B035EF14F037EF14F03BEF14F0200E32
:10287000616F52EF14F09251845D196E9351855936
:102880001A6E19508C5D1A508D59D8B04AEF14F059
:102890004CEF14F050EF14F0400E616F52EF14F053
:1028A000800E616F96518225196E975183211A6EA1
:1028B0008A51195C8B511A58D8B061EF14F063EF4C
:1028C00014F066EF14F06069D0EF14F09451822593
:1028D000196E955183211A6E8A51195C8B511A58C1
:1028E000D8B075EF14F077EF14F07BEF14F0E00E32
:1028F000606FD0EF14F092518225196E93518321AD
:102900001A6E8A51195C8B511A58D8B08AEF14F09C
:102910008CEF14F090EF14F0C00E606FD0EF14F055
:102920009651825D196E975183591A6E19508A5DBE
:102930001A508B59D8B09FEF14F0A1EF14F0A4EF08
:1029400014F0606BD0EF14F09451825D196E9551C4
:1029500083591A6E19508A5D1A508B59D8B0B3EF4B
:1029600014F0B5EF14F0B9EF14F0200E606FD0EF53
:1029700014F09251825D196E935183591A6E195059
:102980008A5D1A508B59D8B0C8EF14F0CAEF14F012
:10299000CEEF14F0400E606FD0EF14F0800E606F39
:1029A00096518825196E975189211A6E9051195C9C
:1029B00091511A58D8B0DFEF14F0E1EF14F0E4EFC2
:1029C00014F063694EEF15F094518825196E9551F6
:1029D00089211A6E9051195C91511A58D8B0F3EFB1
:1029E00014F0F5EF14F0F9EF14F0E00E636F4EEF12
:1029F00015F092518825196E935189211A6E9051C4
:102A0000195C91511A58D8B008EF15F00AEF15F07B
:102A10000EEF15F0C00E636F4EEF15F09651885D06
:102A2000196E975189591A6E1950905D1A50915923
:102A3000D8B01DEF15F01FEF15F022EF15F0636B06
:102A40004EEF15F09451885D196E955189591A6EA3
:102A50001950905D1A509159D8B031EF15F033EFFD
:102A600015F037EF15F0200E636F4EEF15F0925111
:102A7000885D196E935189591A6E1950905D1A50DC
:102A80009159D8B046EF15F048EF15F04CEF15F01E
:102A9000400E636F4EEF15F0800E636F96518625E2
:102AA000196E975187211A6E8E51195C8F511A58E1
:102AB000D8B05DEF15F05FEF15F062EF15F06269C9
:102AC000CCEF15F094518625196E955187211A6E19
:102AD0008E51195C8F511A58D8B071EF15F073EF01
:102AE00015F077EF15F0E00E626FCCEF15F0925114
:102AF0008625196E935187211A6E8E51195C8F515C
:102B00001A58D8B086EF15F088EF15F08CEF15F055
:102B1000C00E626FCCEF15F09651865D196E97511D
:102B200087591A6E19508E5D1A508F59D8B09BEF85
:102B300015F09DEF15F0A0EF15F0626BCCEF15F0DE
:102B40009451865D196E955187591A6E19508E5D94
:102B50001A508F59D8B0AFEF15F0B1EF15F0B5EFAF
:102B600015F0200E626FCCEF15F09251865D196E54
:102B7000935187591A6E19508E5D1A508F59D8B0DB
:102B8000C4EF15F0C6EF15F0CAEF15F0400E626FF6
:102B9000CCEF15F0800E626F050E1A6E0F0E196ED7
:102BA000F10EE82EFED7192EFCD71A2EFAD7000008
:102BB000600E0E6E050E0F6EACEC16F0E806D8A493
:102BC000E4EF15F0E6EF15F066EF13F0C386520E52
:102BD0001A6E2B0E196E000EE82EFED7192EFCD79A
:102BE0001A2EFAD700D066EF13F081EF00F00C6ECA
:102BF000000184BFFEEF15F000EF16F05BEF16F05A
:102C00000C50050DF3502B0F0A6E0AC5F6F4260E74
:102C1000F76E000EF86E0800F5C484F00C50050D38
:102C2000F3C40AF5010E0A260A502B0F0B6E0BC5D2
:102C3000F6F4260EF76E000EF86E0800F5C485F067
:102C40000C50050DF3C40AF5020E0A260A502B0F8C
:102C50000B6E0BC5F6F4260EF76E000EF86E08002C
:102C6000F550FC0B866F0C50050DF3C40AF5030EEE
:102C70000A260A502B0F0B6E0BC5F6F4260EF76EC4
:102C8000000EF86E0800F5C489F00C50050DF3C471
:102C90000AF5040E0A260A502B0F0B6E0BC5F6F42C
:102CA000260EF76E000EF86E0800F5C48CF0C8967C
:102CB000848F5BEF16F01200BE6ABF6AC06AC16AF9
:102CC000C26AC36A0401026B0A6B126B1A6B226B35
:102CD0002A6BC668C768DF0EC86EF00EC96E0F0E8D
:102CE000CA6EF20ECB6E00690869C70E106FE00E57
:102CF000186F070E206FF20E286F016B096B116BB6
:102D0000196B216B296B03690B6913691B69070E2A
:102D1000236F2B6904690C6914691C690F0E246FF9
:102D20002C690201896B886B876B866B140E6B6F45
:102D3000320E166F130E6A6F310E146F0401056B9D
:102D4000066B076B0D6B0E6B0F6B156B166B176BB2
:102D5000256B266B276B120094EC19F0A00EAFECDC
:102D600018F0000E126E000E116E11500E24D96E66
:102D700012500F20DA6EDF50AFEC18F0114A122A11
:102D800012BECCEF16F0125009E1200E115CD8A053
:102D9000CCEF16F0CEEF16F0B5EF16F092EC19F07E
:102DA000170E0BEC19F0106E10A8D9EF16F0DBEF30
:102DB00016F0E8EF16F010B6E0EF16F0E2EF16F0BE
:102DC000E8EF16F0E10E69EC19F0010EE9EF16F0EC
:102DD000000E1200D68A000ED6BE010E0D6ED69ED3
:102DE000550E0401596FAA0E596F59915F6B5E6BB6
:102DF000080E5D6F550E596FAA0E596F59810DB0AF
:102E000002D0D69E01D0D68E0301658FAF90D680BA
:102E1000360E0A6E330E0B6E000E0C6E80EC19F03F
:102E2000B490D682380E0A6E330E0B6E000E0C6E06
:102E300079EC19F0B890D6843A0E0A6E330E0B6E08
:102E4000000E0C6E72EC19F0120098EC19F0000EE6
:102E50000C6E000EEBEC18F0050E0BEC19F0106E7A
:102E60001028106E000E0C6E010EEBEC18F0000E28
:102E70000BEC19F0106E000E0C6E020EEBEC18F05D
:102E8000030E0C6E030EEBEC18F0000E0C6E040E2D
:102E9000EBEC18F0000E0C6E050EEBEC18F00E0EBD
:102EA0000C6E060EEBEC18F096EC19F01200030114
:102EB000F39FD96BDA6BDB6BDC6BDF6BE06BE56B85
:102EC000E76B1D0EEC6FEE6BEF6BD86BF06BF16B7D
:102ED000F26BF46B180EF56F100EF66FF76BF86B64
:102EE0001F0EFA6FF96B000E3E6E000E3F6E000E65
:102EF000406E000E3B6E000E3C6E000E3D6E466A4C
:102F0000AF949F94B090A090840EF36F1200126E55
:102F100012502009106E94EC19F01050AFEC18F01C
:102F2000000E146E000E136EA1EF17F013500C2458
:102F3000D96E14500D20DA6EDF50AFEC18F0134A42
:102F4000142A0E50135C0F501458D8A0AAEF17F093
:102F5000ACEF17F096EF17F092EC19F01200AA0EF2
:102F6000F66E320EF76E000EF86E01EE1BF110EEEB
:102F700014F00900F5C4EEF4E550E150FAE101EE79
:102F800060F1200EEE6AE806FDE101EE3BF10C0E69
:102F9000EE6AE806FDE10401080E5D6F000E5E6F4B
:0A2FA000000E5F6F00011BEF13F03D
:102FAC00FAC408F5FBC409F544500301196F43C575
:102FBC0018F32F5030103110D8B4E7EF17F0E9EFB9
:102FCC0017F0F6EF17F002D8F6EF17F00500FA6ECF
:102FDC002F50FD6E3050FE6E3150FF6EFA501200C5
:102FEC00B19E09C5FBF408C5FAF4110098EC19F070
:102FFC0017C50CF5050EEBEC18F015C50CF516C540
:10300C000DF5000E0F6E050E0E6E100E87EC17F000
:10301C00000E0BEC19F0186E18500209186E18C53A
:10302C000CF5000EEBEC18F0050E0BEC19F096EC11
:10303C0019F012000B0E0301196FDC0E186F790ECC
:10304C001B6F19510A6E1851436E0AC544F5000ED8
:10305C002F6E310E306E000E316EB19EA18E900E21
:10306C001A6F1200385039103A10D8B440EF18F0DB
:10307C0042EF18F04FEF18F002D84FEF18F00500A0
:10308C00FA6E3850FD6E3950FE6E3A50FF6EFA50A3
:10309C0012001200355036103710D8B458EF18F013
:1030AC005AEF18F067EF18F002D867EF18F0050028
:1030BC00FA6E3550FD6E3650FE6E3750FF6EFA507C
:1030CC0012001200325033103410D8B470EF18F0D4
:1030DC0072EF18F07FEF18F002D87FEF18F00500B0
:1030EC00FA6E3250FD6E3350FE6E3450FF6EFA5055
:1030FC00120012004528D8A486EF18F088EF18F0BB
:10310C0089EF18F0456A452A98EC18F00009D8B4F4
:10311C0092EF18F094EF18F097EF18F045504AEC36
:10312C0019F01200000184AF9EEF18F0A0EF18F018
:10313C00ACEF18F0B1B2A5EF18F0A8EF18F0010E33
:10314C00A9EF18F0000E076EADEF18F0076A0750E4
:10315C0012000A6E0001878586510309866F836B06
:10316C00010E826F0AC581F0B1A0BFEF18F0C1EF5C
:10317C0018F0BAEF18F080C00BF50B5012000E6E61
:10318C000EC5ECF30301F39DF381F3B1D0EF18F00E
:10319C00D2EF18F0CBEF18F0EB510C6EEA510A6E2F
:1031AC000CC50BF512000301F36BF86B3F0EFA6FB5
:1031BC00F351F30B0409F36FF38F1E0EC5EC18F0EB
:1031CC000AC541F50BC542F512000D6E0D502009D4
:1031DC000E6E0CC50FF594EC19F00E50AFEC18F008
:1031EC000F50AFEC18F092EC19F012005FEC19F0E4
:1031FC005CEC16F057EC17F020EC18F087EC19F09B
:10320C0019EC19F0EAEC16F012000C6E94EC19F0B3
:10321C000C50AFEC18F0FF0EAFEC18F00D6E92ECFA
:10322C0019F00D501200A194A192A1900001846B91
:0E323C00040E856F866B896B8C6B8785120084
:10324C00FAC401F5FBC402F5AF9038EC18F002C5D6
:10325C00FBF401C5FAF41100FAC403F5FBC404F540
:10326C00B49050EC18F004C5FBF403C5FAF411004B
:10327C00FAC405F5FBC406F5B89068EC18F006C561
:10328C00FBF405C5FAF41100076E00018651030921
:10329C00866F836B010E826F07C581F01200E7E722
:1032AC00E7E7E7C2C2C2C2C2E7E7E7E7E7E7E7E75B
:1032BC00E7E7600E0001AD6FAF6BB36B080EB16F3B
:1032CC00B06BAC6B12000C6E94EC19F00C50AFECB4
:1032DC0018F092EC19F012000AC532F50BC533F553
:1032EC000CC534F512000AC535F50BC536F50CC501
:1032FC0037F512000AC538F50BC539F50CC53AF58A
:10330C001200010E00013A6F900E396F120003018A
:10331C001A8F1200A18E1200BF821200BF921200EF
:10332C00BF841200BF941200110012001200120090
:020000040030CA
:080000008FFFFFFF9FFFFFFFD0
:01000900FFF7
:00000001FF
