:0400000081EF00F09C
:10000800FD0AFD0AFD0AFD0A4000FD0A4000FD0A3E
:10001800C80AFD0AFD0AFD0AFD0AFD0AFD0AFD0AD5
:10002800FD0A400040004000FD0AFD0AFD0AFD0AE5
:10003800070A210AFC0AFD0AFD0AFD0AFD0A390A17
:10004800FD0AFD0AFD0AFD0A40004000FD0AFD0AFE
:10005800FD0AFD0AFD0A4000FD0AFD0AFD0AFD0A27
:10006800CE0AFD0AFD0AFD0AFD0AFD0AFD0AFD0A7F
:10007800FD0AFD0AFD0AFD0A4000FD0AFD0AFD0A07
:10008800FD0AFD0AFD0AFD0AFD0AFD0AFD0AFD0A30
:10009800FD0AFD0AFD0AFD0A4000FD0A4000400075
:1000A800D40AFD0AFD0AFD0AFD0AFD0AFD0AFD0A39
:1000B800FD0AFD0AFD0AFD0AFD0AFD0AFD0AFD0A00
:1000C800FD0AFD0AFD0AFD0AFD0AFD0AFD0AFD0AF0
:1000D800FD0AFD0AFD0AFD0AFD0AFD0AFD0AFD0AE0
:1000E8004000FD0AFD0AFD0A4000400040004000B3
:0E00F800FD0AFD0AFD0AFD0AFF006FEF15F07C
:102600000030290000000036260000000000000015
:102610000000000000000000008E2A00B62A000022
:102620000000FE2A00A02B00922B00020000FF00F9
:10263000024000000000216E000184BF22EF13F071
:1026400024EF13F082EF13F0810E2B6E2150050D55
:10265000F3502B0F1F6E1FC5F6F4260EF76E000EFB
:10266000F86E0800F5C484F02150050DF3C41FF581
:10267000010E1F261F502B0F206E20C5F6F4260ECC
:10268000F76E000EF86E0800F5C485F02150050DB8
:10269000F3C41FF5020E1F261F502B0F206E20C5FE
:1026A000F6F4260EF76E000EF86E0800F550FC0BDF
:1026B000866F2150050DF3C41FF5030E1F261F5012
:1026C0002B0F206E20C5F6F4260EF76E000EF86E66
:1026D0000800F5C489F02150050DF3C41FF5040E60
:1026E0001F261F502B0F206E20C5F6F4260EF76E06
:1026F000000EF86E0800F5C48CF0C896A184848F93
:1027000082EF13F01200BE6ABF6AC06AC16AC26A71
:10271000C36A0401026B0A6B126B1A6B226B2A6B81
:10272000C668C76A1F0EC86EC9680F0ECA6ECB682E
:102730000069086B070E106F1869070E206F286973
:10274000016B096B116B196B216B296B03690B69A9
:1027500013691B69070E236F2B6904690C691469DF
:102760001C690F0E246F2C690201896B886B876BC3
:10277000866B140E6B6F320E166F130E6A6F310E6E
:10278000146F0401056B066B076B0D6B0E6B0F6B03
:10279000156B166B176B256B266B276B1200D68A91
:1027A000000ED6BE010E226ED69E550E0401596F44
:1027B000AA0E596F59915F6B5E6B080E5D6F550ED7
:1027C000596FAA0E596F598122B002D0D69E01D0FE
:1027D000D68E0301658165836585658FAF90D68050
:1027E000F60E1F6E2B0E206E000E216EE5EC15F01E
:1027F000B490D682F80E1F6E2B0E206E000E216E46
:10280000DEEC15F0B890D684FA0E1F6E2B0E206EFB
:0A281000000E216ED7EC15F0120047
:10281C00FAC414F5FBC415F529502A10D8A419EFE5
:10282C0014F01BEF14F03DEF14F027502810D8A42F
:10283C0022EF14F024EF14F026EF14F0810E2B6E1F
:10284C00105011101210D8B42EEF14F030EF14F009
:10285C003DEF14F002D83DEF14F00500FA6E105065
:10286C00FD6E1150FE6E1250FF6EFA50120015C51F
:10287C00FBF414C5FAF4110027502810D8B449EF12
:10288C0014F04BEF14F05AEF14F023C5D9F424C50F
:10289C00DAF4DF500001816F234A242AFF0E27242B
:1028AC00276EFF0E2820286E27502810D8A461EF21
:1028BC0014F063EF14F070EF14F029502A10D8A420
:1028CC006AEF14F06CEF14F070EF14F0810E2B6EB5
:0628DC0070EF14F0110082
:1028E400FAC41DF5FBC41EF52D500301196F2CC548
:1028F40018F3015002100310D8B483EF14F085EFDD
:1029040014F092EF14F002D892EF14F00500FA6E6E
:102914000150FD6E0250FE6E0350FF6EFA5012001D
:10292400B19E1EC5FBF41DC5FAF41100A184A19249
:10293400A1800001846B040E856F866B896B8C6BA0
:102944008785000E1F6E000E206E000E216ED0ECE7
:1029540015F0000E1F6E000E206E000E216EC9ECE5
:1029640015F02B6A1200B4EC15F0D68EF2EC15F0CB
:10297400F5EC15F098EC14F0000E1BEC13F0C96A9A
:10298400D16AD80E1F6E2B0E206E000E216ED0EC75
:1029940015F0CBEF14F081EF00F00B0E0301196F6B
:1029A400DC0E186F790E1B6F19511F6E18512C6EA7
:1029B4001FC52DF55E0E016E2A0E026E000E036E0B
:1029C400B19EA18E900E1A6F12000A500B100C10BB
:1029D400D8B4EFEF14F0F1EF14F0FEEF14F002D8D6
:1029E400FEEF14F00500FA6E0A50FD6E0B50FE6EF9
:1029F4000C50FF6EFA501200120007500810091014
:102A0400D8B407EF15F009EF15F016EF15F002D85A
:102A140016EF15F00500FA6E0750FD6E0850FE6EB5
:102A24000950FF6EFA5012001200045005100610EF
:102A3400D8B41FEF15F021EF15F02EEF15F002D8E2
:102A44002EEF15F00500FA6E0450FD6E0550FE6E73
:102A54000650FF6EFA50120012002F28D8A435EF4A
:102A640015F037EF15F038EF15F02F6A2F2A7FECA9
:102A740015F00009D8B441EF15F043EF15F046EF17
:102A840015F02F505BEC15F01200810E2B18D8A412
:102A94004EEF15F050EF15F058EF15F00001865188
:102AA4000309866F80C013F559EF15F0136A1350AC
:102AB40012001C6E810E2B18D8A463EF15F065EF7D
:102AC40015F06EEF15F0000186510309866F836BD4
:102AD400010E826F1CC581F0120001EE23F10D0E70
:102AE400EE6AE806FDE10401080E5D6F000E5E6FFC
:102AF400000E5F6F0001B5EF14F0810E2B18D8A4FF
:102B040086EF15F088EF15F08CEF15F0010E1C6EB2
:0A2B14008DEF15F01C6A1C50120032
:102B2000FAC416F5FBC417F5AF90E7EC14F017C51F
:102B3000FBF416C5FAF41100FAC418F5FBC419F534
:102B4000B490FFEC14F019C5FBF418C5FAF41100A9
:102B5000FAC41AF5FBC41BF5B89017EC15F01BC5A9
:102B6000FBF41AC5FAF41100BFEC15F083EC13F076
:102B7000CFEC14F098EC14F0CFEC13F01200600ED0
:102B80000001AD6FAF6BB36B080EB16FB06BAC6B88
:102B900012001FC50DF520C50EF521C50FF5120059
:102BA0001FC510F520C511F521C512F512001FC56E
:102BB00004F520C505F521C506F512001FC507F56A
:102BC00020C508F521C509F512001FC50AF520C565
:102BD0000BF521C50CF5120047EC15F02E6E2EC535
:0E2BE000D1F4120003011A8F1200A18E120010
:022BF0001100D2
:082BF400110012001200120092
:020000040030CA
:080000008FFFFFFF9FFFFFFFD0
:01000900FFF7
:00000001FF
