:0400000081EF00F09C
:100008004D0D4D0D4D0D4D0D40004D0D40004D0D4C
:10001800040D4D0D960C4D0D4D0D4D0D4D0D4D0D09
:100028004C0D4000400040004D0D4D0D4D0D4D0D47
:100038004D0D4D0D4D0D4D0D4D0D4D0D4D0D6F0CC7
:100048004D0D4D0D4D0D4D0D400040004D0D4D0D0C
:100058004D0D4D0D4D0D40004D0D4D0D4D0D4D0DE2
:100068000A0D4D0D4D0D4D0D4D0D4D0D4D0D4D0DFB
:100078004D0D4D0D4D0D4D0D40004D0D4D0D4D0DC2
:100088004D0D4D0D4D0D4D0D4D0D4D0D4D0D4D0D98
:100098004D0D4D0D4D0D4D0D40004D0D40004000D6
:1000A800100D4D0D4D0D4D0D4D0D4D0D4D0D4D0DB5
:1000B8004D0D4D0D4D0D4D0D4D0D4D0D4D0D4D0D68
:1000C8004D0D4D0D4D0D4D0D4D0D4D0D4D0D4D0D58
:1000D8004D0D4D0D4D0D4D0D4D0D4D0D4D0D4D0D48
:1000E80040004D0D4D0D4D0D4000400040004000BA
:0E00F8004D0D4D0D4D0D4D0DFF0016EF18F086
:1026000000F83300000000A02C00000000000000D3
:102610000000000000006033000000000000000027
:10262000000000000000000000000002C000FF00E9
:1026300002C000FF00000501656B0B500C10D8B400
:1026400024EF13F026EF13F029EF13F064692AEF5B
:1026500013F0646B1950115C236E1A501258246EDB
:1026600024BE3CEF13F0D10E235C070E2458D8A0F3
:102670003CEF13F03EEF13F041EF13F061699CEF74
:1026800013F024BE4DEF13F0DD0E235C050E24582D
:10269000D8A04DEF13F04FEF13F053EF13F0E00E0F
:1026A000616F9CEF13F024BE5FEF13F0F50E235C17
:1026B000010E2458D8A05FEF13F061EF13F065EF1F
:1026C00013F0C00E616F9CEF13F024AE71EF13F0A6
:1026D000300E235CF80E2458D8B071EF13F073EF6E
:1026E00013F076EF13F0616B9CEF13F024AE82EFE2
:1026F00013F0240E235CFA0E2458D8B082EF13F0A6
:1027000084EF13F088EF13F0200E616F9CEF13F04D
:1027100024AE94EF13F00C0E235CFE0E2458D8B0B8
:1027200094EF13F096EF13F09AEF13F0400E616FF1
:102730009CEF13F0800E616F1B50135C216E1C50D8
:102740001458226E22BEAEEF13F0E90E215C030E88
:102750002258D8A0AEEF13F0B0EF13F0B3EF13F0A0
:1027600060690EEF14F022BEBFEF13F0BD0E215CC6
:10277000020E2258D8A0BFEF13F0C1EF13F0C5EF3F
:1027800013F0E00E606F0EEF14F022BED1EF13F0E5
:102790002D0E215C010E2258D8A0D1EF13F0D3EFFB
:1027A00013F0D7EF13F0C00E606F0EEF14F022AEEF
:1027B000E3EF13F0180E215CFC0E2258D8B0E3EFC3
:1027C00013F0E5EF13F0E8EF13F0606B0EEF14F089
:1027D00022AEF4EF13F0440E215CFD0E2258D8B067
:1027E000F4EF13F0F6EF13F0FAEF13F0200E606F32
:1027F0000EEF14F022AE06EF14F0D40E215CFE0EA4
:102800002258D8B006EF14F008EF14F00CEF14F0D3
:10281000400E606F0EEF14F0800E606F15500D5C6F
:102820001D6E16500E581E6E1EBE20EF14F0D10EF7
:102830001D5C070E1E58D8A020EF14F022EF14F0F4
:1028400025EF14F0636980EF14F01EBE31EF14F031
:10285000DD0E1D5C050E1E58D8A031EF14F033EFCD
:1028600014F037EF14F0E00E636F80EF14F01EBE2B
:1028700043EF14F0F50E1D5C010E1E58D8A043EF77
:1028800014F045EF14F049EF14F0C00E636F80EFC1
:1028900014F01EAE55EF14F0300E1D5CF80E1E58ED
:1028A000D8B055EF14F057EF14F05AEF14F0636BF3
:1028B00080EF14F01EAE66EF14F0240E1D5CFA0ECD
:1028C0001E58D8B066EF14F068EF14F06CEF14F0F7
:1028D000200E636F80EF14F01EAE78EF14F00C0E34
:1028E0001D5CFE0E1E58D8B078EF14F07AEF14F08D
:1028F0007EEF14F0400E636F80EF14F0800E636F74
:1029000017500F5C1F6E18501058206E20BE92EFAB
:1029100014F0E90E1F5C030E2058D8A092EF14F0BB
:1029200094EF14F097EF14F06269F2EF14F020BE08
:10293000A3EF14F0BD0E1F5C020E2058D8A0A3EF29
:1029400014F0A5EF14F0A9EF14F0E00E626FF2EFAF
:1029500014F020BEB5EF14F02D0E1F5C010E2058B0
:10296000D8A0B5EF14F0B7EF14F0BBEF14F0C00E21
:10297000626FF2EF14F020AEC7EF14F0180E1F5C78
:10298000FC0E2058D8B0C7EF14F0C9EF14F0CCEF0C
:1029900014F0626BF2EF14F020AED8EF14F0440E96
:1029A0001F5CFD0E2058D8B0D8EF14F0DAEF14F009
:1029B000DEEF14F0200E626FF2EF14F020AEEAEFBB
:1029C00014F0D40E1F5CFE0E2058D8B0EAEF14F0BD
:1029D000ECEF14F0F0EF14F0400E626FF2EF14F031
:1029E000800E626F1200EDEC19F0C890C080FCEC14
:1029F00019F0000E50EC16F0C792BF82C794BF9436
:102A0000CB90C380CB96CB94C78004010981CB883F
:102A100029994CEC18F08F0E05019D6F050E9E6FE5
:102A20007A0E9F6F05EC19F02CEC1AF0960E3F6EA3
:102A3000340E406E000E416E7AEC1AF02D50D8A480
:102A400024EF15F026EF15F036EF15F02E50D8A430
:102A50002CEF15F02EEF15F036EF15F025C540F5EB
:102A600026C541F5DBEC17F0010E2D6E2E50D8B4C3
:102A70003CEF15F03EEF15F056EF15F02C50D8A4B2
:102A800044EF15F046EF15F056EF15F02B50D8A493
:102A90004CEF15F04EEF15F056EF15F025C540F54B
:102AA00026C541F5B5EC16F0010E2B6E3250D8B4A8
:102AB0005CEF15F05EEF15F032EF16F02D50D8B444
:102AC00064EF15F066EF15F0B6EF15F025502610FF
:102AD000D8A46DEF15F06FEF15F079EF15F0254ADA
:102AE000262A27C51BF528C51CF52D6A326AB6EFC4
:102AF00015F025042610D8A480EF15F082EF15F00C
:102B00008AEF15F0254A262A27C519F528C51AF592
:102B100075EF15F0020E25182610D8A492EF15F0C7
:102B200094EF15F09CEF15F0254A262A27C517F5D6
:102B300028C518F575EF15F0030E25182610D8A432
:102B4000A4EF15F0A6EF15F0B6EF15F0254A262AEA
:102B500027C515F528C516F52D6A010E2E6E326AA9
:102B6000000E266E000E256EB6EF15F02B50D8B471
:102B7000BCEF15F0BEEF15F032EF16F02550261021
:102B8000D8A4C5EF15F0C7EF15F0D1EF15F0254A21
:102B9000262A27C513F528C514F52B6A326A32EFA9
:102BA00016F025042610D8A4D8EF15F0DAEF15F0AA
:102BB000E2EF15F0254A262A27C511F528C512F59A
:102BC000CDEF15F0020E25182610D8A4EAEF15F067
:102BD000ECEF15F0F4EF15F0254A262A27C50FF57E
:102BE00028C510F5CDEF15F0030E25182610D8A432
:102BF000FCEF15F0FEEF15F006EF16F0254A262A39
:102C000027C50DF528C50EF5CDEF15F0040E2518D6
:102C10002610D8A40EEF16F010EF16F018EF16F0ED
:102C2000254A262A27C50BF528C50CF5CDEF15F04A
:102C3000050E25182610D8A420EF16F022EF16F066
:102C400032EF16F0254A262A27C50BF528C50CF5C4
:102C50002B6A010E2C6E326A000E266E000E256E57
:102C600032EF16F02C50D8B438EF16F03AEF16F0D9
:102C70001EEF15F01BEC13F0600E0501966F050EAC
:102C8000976F5AEC17F0E806D8A449EF16F04BEF0F
:102C900016F01EEF15F02C6A1EEF15F081EF00F014
:102CA000416E000184BF57EF16F059EF16F0B4EFF4
:102CB00016F04150050DF3502B0F3F6E3FC5F6F453
:102CC000260EF76E000EF86E0800F5C484F0415031
:102CD000050DF3C43FF5010E3F263F502B0F406E0C
:102CE00040C5F6F4260EF76E000EF86E0800F5C427
:102CF00085F04150050DF3C43FF5020E3F263F50CD
:102D00002B0F406E40C5F6F4260EF76E000EF86EDF
:102D10000800F550FC0B866F4150050DF3C43FF5DC
:102D2000030E3F263F502B0F406E40C5F6F4260E93
:102D3000F76E000EF86E0800F5C489F04150050DDD
:102D4000F3C43FF5040E3F263F502B0F406E40C5A5
:102D5000F6F4260EF76E000EF86E0800F5C48CF03F
:102D6000C896848FB4EF16F0120040504110D8A4DA
:102D7000BCEF16F0BEEF16F0C3EF16F01F0E5EECC0
:102D80001AF00DEF17F040044110D8A4CAEF16F066
:102D9000CCEF16F0D1EF16F01A0E5EEC1AF00DEF34
:102DA00017F0020E40184110D8A4D9EF16F0DBEF4F
:102DB00016F0E0EF16F01E0E5EEC1AF00DEF17F0B5
:102DC000030E40184110D8A4E8EF16F0EAEF16F011
:102DD000EFEF16F01D0E5EEC1AF00DEF17F0040E7B
:102DE00040184110D8A4F7EF16F0F9EF16F0FEEFF7
:102DF00016F01C0E5EEC1AF00DEF17F0050E4018E1
:102E00004110D8A406EF17F008EF17F00DEF17F0F8
:102E1000190E5EEC1AF00DEF17F01200BE6ABF6AD1
:102E2000C06AC16AC26AC36A0401026B0A6B126B90
:102E30001A6B226B2A6BC668C768DF0EC86EC9683A
:102E40000F0ECA6ECB6800690869C70E106F18694B
:102E5000070E206F2869016B096B116B196B216BD1
:102E6000296B03690B6913691B69070E236F2B69B3
:102E700004690C6914691C690F0E246F2C69020126
:102E8000896B886B876B866B140E6B6F320E166FB7
:102E9000130E6A6F310E146F0401056B066B076B1E
:102EA0000D6B0E6B0F6B156B166B176B256B266B13
:102EB000276B120092EC1AF0A00EB0EC19F0000E85
:102EC00005019A6F000E996F99519625D96E9A5106
:102ED0009721DA6EDF50B0EC19F00501994B9A2B6F
:102EE0009ABF7CEF17F09A5109E1200E995DD8A0A6
:102EF0007CEF17F07EEF17F064EF17F090EC1AF00C
:102F0000170EDBEC19F00501986F98A98AEF17F0FE
:102F10008CEF17F099EF17F098B791EF17F093EF48
:102F200017F099EF17F0E10E55EC1AF0010E9AEF39
:102F300017F0000E1200D68A000ED6BE010E050153
:102F4000946FD69E550E0401596FAA0E596F599170
:102F50005F6B5E6B080E5D6F550E596FAA0E596F51
:102F60005981050194B102D0D69E01D0D68E0301BD
:102F7000658165836585658FAF90D680360E3F6E1F
:102F8000350E406E000E416E73EC1AF0B490D6828E
:102F9000380E3F6E350E406E000E416E6CEC1AF02E
:102FA000B890D6843A0E3F6E350E406E000E416EDC
:102FB00065EC1AF0120040504110D8A4E2EF17F06F
:102FC000E4EF17F0E9EF17F01F0E5EEC1AF015EFC3
:102FD00018F040044110D8A4F0EF17F0F2EF17F00A
:102FE000F7EF17F01A0E5EEC1AF015EF18F0020E5C
:102FF00040184110D8A4FFEF17F001EF18F006EFCA
:1030000018F01E0E5EEC1AF015EF18F0030E4018C3
:103010004110D8A40EEF18F010EF18F015EF18F0CB
:103020001D0E5EEC1AF015EF18F012006E0EF66E23
:10303000340EF76E000EF86E01EE80F110EE14F013
:103040000900F5C4EEF4E550E150FAE1020EF66E27
:10305000350EF76E000EF86E01EE42F110EE0CF038
:103060000900F5C4EEF4E550E150FAE101EE60F13B
:10307000200EEE6AE806FDE101EE01F1320EEE6A85
:10308000E806FDE10401080E5D6F000E5E6F000EA4
:103090005F6F0001F3EF14F096EC1AF0000E416E32
:1030A000000EC6EC19F0050EDBEC19F00501976F68
:1030B0009729976F000E416E010EC6EC19F0000EB5
:1030C000DBEC19F00501976F000E416E020EC6ECA5
:1030D00019F0030E416E030EC6EC19F0000E416E9E
:1030E000040EC6EC19F0000E416E050EC6EC19F088
:1030F0000E0E416E060EC6EC19F094EC1AF012009A
:103100000301F39FD96BDA6BDB6BDC6BDF6BE06B7E
:10311000E56BE76B1D0EEC6FEE6BEF6BD86BF06B36
:10312000F16BF26BF46B180EF56F100EF66FF76B18
:10313000F86B1F0EFA6FF96B000E046E000E056E31
:10314000000E066E000E016E000E026E000E036E83
:10315000316AAF949F84B090A090840EF36F1200F8
:1031600005019A6F05019A512009986F92EC1AF0A7
:1031700005019851B0EC19F0000E05019C6F000E8E
:103180009B6FCFEF18F09B519425D96E9C519521E0
:10319000DA6EDF50B0EC19F005019B4B9C2B965179
:1031A0009B5D97519C59D8A0D8EF18F0DAEF18F032
:0A31B000C3EF18F090EC1AF01200C3
:1031BC00FAC43DF5FBC43EF52A500301196F29C52D
:1031CC0018F30501A151A211A311D8B4F0EF18F016
:1031DC00F2EF18F0FFEF18F002D8FFEF18F005002F
:1031EC00FA6EA151FD6EA251FE6EA351FF6EFA5004
:1031FC001200B19E3EC5FBF43DC5FAF4110096ECED
:10320C001AF09FC541F5050EC6EC19F09DC594F555
:10321C009EC595F5000E0501976F050E966F100E65
:10322C00B0EC18F0000EDBEC19F00501A06FA0510A
:10323C000209A06FA0C541F5000EC6EC19F0050EF1
:0A324C00DBEC19F094EC1AF012000C
:10325800FAC435F5FBC436F5AF94045005100610D2
:10326800D8B439EF19F03BEF19F048EF19F002D84C
:1032780048EF19F00500FA6E0450FD6E0550FE6E19
:103288000650FF6EFA50120036C5FBF435C5FAF445
:1032980011000B0E0301196FDC0E186F790E1B6FEE
:1032A80019513F6E1851296E3FC52AF51A0E0501AE
:1032B800A16F350EA26F000EA36FB19EA18E900E66
:1032C80003011A6F12000501A451A511A611D8B463
:1032D80070EF19F072EF19F07FEF19F002D87FEF55
:1032E80019F00500FA6EA451FD6EA551FE6EA651A7
:1032F800FF6EFA5012001200515052105310D8B4F9
:1033080088EF19F08AEF19F097EF19F002D897EFC4
:1033180019F00500FA6E5150FD6E5250FE6E535072
:10332800FF6EFA50120012004E504F105010D8B4D1
:10333800A0EF19F0A2EF19F0AFEF19F002D8AFEF34
:1033480019F00500FA6E4E50FD6E4F50FE6E50504B
:10335800FF6EFA50120012003F6E000187858651F9
:103368000309866F836B010E826F3FC581F0B1A0A0
:10337800C0EF19F0C2EF19F0BBEF19F080C040F5AB
:10338800405012000501946F050194512009956F72
:1033980041C596F592EC1AF005019551B0EC19F07B
:1033A80005019651B0EC19F090EC1AF012000501E5
:1033B800946F92EC1AF005019451B0EC19F0FF0EDD
:1033C800B0EC19F00501956F90EC1AF005019551D4
:1033D800120041EC1AF00EEC17F080EC18F04DECEE
:1033E80019F087EC1AF0FCEC19F09BEC17F01200BE
:1033F800A194A192A1900001846B040E856F866B45
:10340800896B8C6B87851200FAC437F5FBC438F5D5
:10341800AF9080EC19F038C5FBF437C5FAF4110009
:10342800FAC439F5FBC43AF5B49098EC19F03AC5EA
:10343800FBF439C5FAF41100FAC43BF5FBC43CF5BA
:10344800B89067EC19F03CC5FBF43BC5FAF41100E1
:103458000301F36BF86B3F0EFA6FF351F30B04099A
:10346800F36FF38F1200E7E7E7E7E7C2C2C2C2C211
:10347800E7E7E7E7E7E7E7E7E7E7600E0001AD6FB3
:10348800AF6BB36B080EB16FB06BAC6B120003017E
:10349800EB51336EEA51276E33C528F5010E326EB3
:1034A8001200416E92EC1AF04150B0EC19F090EC19
:1034B8001AF012003F6E3FC5ECF30301F39DF38150
:1034C80012003FC5A4F540C5A5F541C5A6F51200F3
:1034D8003FC54EF540C54FF541C550F512003FC5F3
:1034E80051F540C552F541C553F512003FC504F5E5
:1034F80040C505F541C506F51200E803BC022C01DC
:10350800D007DC05F401010E00013A6F900E396F07
:103518001200010E306E1200BF841200BF94120018
:10352800BF821200BF921200B09011001100120069
:04353800120012006B
:020000040030CA
:080000008FFFFFFF9FFFFFFFD0
:01000900FFF7
:00000001FF
