:0400000081EF00F09C
:10000800540B540B540B540B4000540B4000540B2E
:100018001C0B540B540B540B540B540B540B540B18
:10002800540B400040004000540B540B540B540B2D
:10003800540B540B540B540B540B540B540B730AA2
:10004800540B540B540B540B40004000540B540BEE
:10005800540B540B540B4000540B540B540B540BBF
:10006800220B540B540B540B540B540B540B540BC2
:10007800540B540B540B540B4000540B540B540B9F
:10008800540B540B540B540B540B540B540B540B70
:10009800540B540B540B540B4000540B40004000BD
:1000A800280B540B540B540B540B540B540B540B7C
:1000B800540B540B540B540B540B540B540B540B40
:1000C800540B540B540B540B540B540B540B540B30
:1000D800540B540B540B540B540B540B540B540B20
:1000E8004000540B540B540B4000400040004000AB
:0E00F800540B540B540B540BFF0030EF15F05B
:1026000000562C00000000362600000000000000EC
:10261000000000000000EC2B00000000CE2C0000A9
:102620000000BE2B0000000000000002C000FF0000
:1026300002C000FF0000406E000184BF22EF13F0D3
:1026400024EF13F07FEF13F04050050DF3502B0FE4
:102650003E6E3EC5F6F4260EF76E000EF86E0800CC
:10266000F5C484F04050050DF3C43EF5010E3E263E
:102670003E502B0F3F6E3FC5F6F4260EF76E000E50
:10268000F86E0800F5C485F04050050DF3C43EF522
:10269000020E3E263E502B0F3F6E3FC5F6F4260E2F
:1026A000F76E000EF86E0800F550FC0B866F405078
:1026B000050DF3C43EF5030E3E263E502B0F3F6E34
:1026C0003FC5F6F4260EF76E000EF86E0800F5C44E
:1026D00089F04050050DF3C43EF5040E3E263E50F1
:1026E0002B0F3F6E3FC5F6F4260EF76E000EF86E08
:1026F0000800F5C48CF0C896848F7FEF13F01200A9
:10270000BE6ABF6AC06AC16AC26AC36A0401026B58
:102710000A6B126B1A6B226B2A6BC668C76ADF0ED4
:10272000C86EF30EC96E0F0ECA6EF20ECB6E006944
:10273000086BC70E106FF30E186F070E206FF20EA6
:10274000286F016B096B116B196B216B296B036986
:102750000B6913691B69070E236F2B6904690C69E8
:1027600014691C690F0E246F2C690201896B886B38
:10277000876B866B140E6B6F320E166F130E6A6FBB
:10278000310E146F0401056B066B076B0D6B0E6B3E
:102790000F6B156B166B176B256B266B276B120077
:1027A0005CEC16F09AEC16F09DEC16F02BEC16F0A3
:1027B000000E1BEC13F0C996C186C994C194CB904E
:1027C000C380CB96CB9487EC14F0300E446E050E8C
:1027D000456E7A0E466E0CEC15F0C396100E426EE6
:1027E000050E436E0EEC14F0E806D8A4FAEF13F0D1
:1027F000FCEF13F0EDEF13F0C386520E0501666F88
:102800002B0E656F000EE82EFED7652FFCD7662FC6
:10281000FAD70000EDEF13F081EF00F0A1EC16F015
:10282000A00EF6EC15F0000E466E000E456E4550FB
:102830004224D96E46504320DA6EDF50F6EC15F094
:10284000454A462A46BE2EEF14F0465009E1200EB6
:10285000455CD8A02EEF14F030EF14F017EF14F011
:102860009FEC16F0170E1DEC16F0446E44A83BEFDB
:1028700014F03DEF14F04AEF14F044B642EF14F0B8
:1028800044EF14F04AEF14F0E10E7CEC16F0010E68
:102890004BEF14F0000E1200D68A000ED6BE010EC9
:1028A000416ED69E550E0401596FAA0E596F59916B
:1028B0005F6B5E6B080E5D6F550E596FAA0E596FF8
:1028C000598141B002D0D69E01D0D68E0301658FCA
:1028D000AF90D680520E3E6E2D0E3F6E000E406EB3
:1028E00093EC16F0B490D682540E3E6E2D0E3F6ED1
:1028F000000E406E8CEC16F0B890D684560E3E6EEC
:102900002D0E3F6E000E406E85EC16F01200A5EC09
:1029100016F0000E406E000E0CEC16F0050E1DECCD
:1029200016F0446E4428446E000E406E010E0CEC0E
:1029300016F0000E1DEC16F0446E000E406E020EF6
:102940000CEC16F0030E406E030E0CEC16F0000EAD
:10295000406E040E0CEC16F0000E406E050E0CECF2
:1029600016F00E0E406E060E0CEC16F0A3EC16F0F0
:1029700012000501626F050162512009606FA1EC30
:1029800016F005016051F6EC15F0000E0501646FBC
:10299000000E636FD8EF14F063514024D96E645178
:1029A0004120DA6EDF50F6EC15F00501634B642B25
:1029B0004250635D43506459D8A0E1EF14F0E3EF57
:1029C00014F0CCEF14F09FEC16F01200FAC43CF5B2
:1029D000FBC43DF555500301196F54C518F3485019
:1029E00049104A10D8B4F7EF14F0F9EF14F006EFDD
:1029F00015F002D806EF15F00500FA6E4850FD6E8E
:102A00004950FE6E4A50FF6EFA501200B19E3DC50D
:102A1000FBF43CC5FAF41100A5EC16F046C540F5F0
:102A2000050E0CEC16F044C540F545C541F5000E09
:102A3000436E050E426E100EB9EC14F0000E1DEC44
:102A400016F0476E47500209476E47C540F5000E25
:102A50000CEC16F0050E1DEC16F0A3EC16F01200AF
:102A60009A0EF66E2A0EF76E000EF86E01EE01F168
:102A700010EE34F00900F5C4EEF4E550E150FAE14F
:102A8000566A556A546A0401080E5D6F000E5E6F47
:102A9000000E5F6F0001D0EF13F0E7E7E7E7E7C252
:102AA000C2C2C2C2E7E7E7E7E748656C6C6F206522
:102AB00073702066726F6D207069630A00000000F9
:102AC000000000000000000000E7E7E7E7E70B0E6A
:102AD0000301196FDC0E186F790E1B6F19513E6ED2
:102AE0001851546E3EC555F58E0E486E2B0E496E2C
:102AF000000E4A6EB19EA18E900E1A6F12005150B8
:102B000052105310D8B487EF15F089EF15F096EFF7
:102B100015F002D896EF15F00500FA6E5150FD6ED3
:102B20005250FE6E5350FF6EFA50120012004E507B
:102B30004F105010D8B49FEF15F0A1EF15F0AEEF85
:102B400015F002D8AEEF15F00500FA6E4E50FD6E8E
:102B50004F50FE6E5050FF6EFA50120012004B5054
:102B60004C104D10D8B4B7EF15F0B9EF15F0C6EF13
:102B700015F002D8C6EF15F00500FA6E4B50FD6E49
:102B80004C50FE6E4D50FF6EFA5012001200562847
:102B9000D8A4CDEF15F0CFEF15F0D0EF15F0566AB1
:102BA000562ADFEC15F00009D8B4D9EF15F0DBEFA9
:102BB00015F0DEEF15F0565067EC16F0120000012C
:102BC00084AFE5EF15F0E7EF15F0F3EF15F0B1B2D4
:102BD000ECEF15F0EFEF15F0010EF0EF15F0000E31
:102BE0003B6EF4EF15F03B6A3B5012003E6E000165
:102BF000878586510309866F836B010E826F3EC500
:102C000081F0B1A006EF16F008EF16F001EF16F014
:102C100080C03FF53F501200416E41502009426E86
:102C200040C543F5A1EC16F04250F6EC15F04350C8
:102C3000F6EC15F09FEC16F01200406EA1EC16F0C9
:102C40004050F6EC15F0FF0EF6EC15F0416E9FECDF
:102C500016F041501200A194A192A1900001846B42
:0E2C6000040E856F866B896B8C6B8785120066
:102C7000FAC435F5FBC436F5AF907FEC15F036C5D8
:102C8000FBF435C5FAF41100FAC437F5FBC438F586
:102C9000B49097EC15F038C5FBF437C5FAF4110081
:102CA000FAC439F5FBC43AF5B890AFEC15F03AC563
:102CB000FBF439C5FAF4110072EC16F080EC13F055
:102CC00067EC15F02BEC16F04CEC14F012003B6E98
:102CD000000186510309866F836B010E826F3BC52D
:102CE00081F01200600E0001AD6FAF6BB36B080E88
:102CF000B16FB06BAC6B1200406EA1EC16F040509F
:102D0000F6EC15F09FEC16F012003EC54BF53FC5F2
:102D10004CF540C54DF512003EC54EF53FC54FF58B
:102D200040C550F512003EC551F53FC552F540C5AE
:102D300053F5120003011A8F1200A18E1200C184F4
:0E2D40001200C1941200C1861200C19612004A
:082D5000110012001200120034
:020000040030CA
:080000008FFFFFFF9FFFFFFFD0
:01000900FFF7
:00000001FF
