:0400000081EF00F09C
:10000800330C330C330C330C4000330C4000330CEE
:10001800F90B330C330C330C330C330C330C330C1B
:10002800330C400040004000330C330C330C330CCD
:10003800330C330C330C330C330C330C330C510BA3
:10004800330C330C330C330C40004000330C330CAE
:10005800330C330C330C4000330C330C330C330C9F
:10006800FF0B330C330C330C330C330C330C330CC5
:10007800330C330C330C330C4000330C330C330C7F
:10008800330C330C330C330C330C330C330C330C70
:10009800330C330C330C330C4000330C400040005D
:1000A800050C330C330C330C330C330C330C330C7E
:1000B800330C330C330C330C330C330C330C330C40
:1000C800330C330C330C330C330C330C330C330C30
:1000D800330C330C330C330C330C330C330C330C20
:1000E8004000330C330C330C40004000400040000B
:0E00F800330C330C330C330CFF007CEF16F08E
:1026000000CA2F0000000088290000000000000020
:10261000000000000000F62E000000002C3000003A
:102620000000C82E0000000000000002C000FF00F3
:1026300002C000FF0000C8EC17F059EC18F05CEC89
:1026400018F0E5EC17F0000EC4EC14F0C792BF824E
:10265000C794BF94CB90C380CB96CB94C780040122
:102660000981F2EC15F0380E156E050E166E7A0E15
:10267000176EC8EC16F0A5EC17F01E0E91EC17F0D3
:102680000AC521F50BC522F5020E1A6EA00E196EB1
:10269000920EE82EFED7192EFCD71A2EFAD700D0AC
:1026A0001D0E91EC17F00AC523F50BC524F5020E9B
:1026B0001A6EA00E196E920EE82EFED7192EFCD7B8
:1026C0001A2EFAD700D0010E1C6EF40E1B6E050EEA
:1026D0001E6EDC0E1D6E070E206ED00E1F6EC39692
:1026E0001E0E91EC17F00AC525F50BC526F5020E56
:1026F0001A6EA00E196E920EE82EFED7192EFCD778
:102700001A2EFAD700D01D0E91EC17F00AC527F546
:102710000BC528F5020E1A6EA00E196E920EE82E49
:10272000FED7192EFCD71A2EFAD700D01F5021241D
:10273000196E205022201A6E2750195C28501A5802
:10274000D8B0A5EF13F0A7EF13F0ABEF13F005012E
:1027500061691BEF14F01D502124196E1E502220B8
:102760001A6E2750195C28501A58D8B0BAEF13F0D7
:10277000BCEF13F0C1EF13F0E00E0501616F1BEF2A
:1027800014F01B502124196E1C5022201A6E275061
:10279000195C28501A58D8B0D0EF13F0D2EF13F0CC
:1027A000D7EF13F0C00E0501616F1BEF14F01F503F
:1027B000215C196E205022581A6E1950275C1A504D
:1027C0002858D8B0E6EF13F0E8EF13F0ECEF13F071
:1027D0000501616B1BEF14F01D50215C196E1E503A
:1027E00022581A6E1950275C1A502858D8B0FBEF9F
:1027F00013F0FDEF13F002EF14F0200E0501616FEE
:102800001BEF14F01B50215C196E1C5022581A6EDD
:102810001950275C1A502858D8B011EF14F013EF54
:1028200014F018EF14F0400E0501616F1BEF14F067
:10283000800E0501616F1F502324196E2050242043
:102840001A6E2550195C26501A58D8B02AEF14F089
:102850002CEF14F02FEF14F0606999EF14F01D5075
:102860002324196E1E5024201A6E2550195C265000
:102870001A58D8B03EEF14F040EF14F044EF14F0C3
:10288000E00E606F99EF14F01B502324196E1C505A
:1028900024201A6E2550195C26501A58D8B053EFD0
:1028A00014F055EF14F059EF14F0C00E606F99EF6B
:1028B00014F01F50235C196E205024581A6E1950C2
:1028C000255C1A502658D8B068EF14F06AEF14F05F
:1028D0006DEF14F0606B99EF14F01D50235C196ECE
:1028E0001E5024581A6E1950255C1A502658D8B01C
:1028F0007CEF14F07EEF14F082EF14F0200E606F86
:1029000099EF14F01B50235C196E1C5024581A6E5A
:102910001950255C1A502658D8B091EF14F093EF57
:1029200014F097EF14F0400E606F99EF14F0800EE2
:10293000606F050E1A6E0F0E196EF10EE82EFED79F
:10294000192EFCD71A2EFAD70000600E0E6E050E57
:102950000F6E79EC15F0E806D8A4B1EF14F0B3EFE0
:1029600014F06FEF13F0C386520E1A6E2B0E196E11
:10297000000EE82EFED7192EFCD71A2EFAD700D05B
:102980006FEF13F081EF00F00C6E000184BFCBEF0E
:1029900014F0CDEF14F028EF15F00C50050DF350A6
:1029A0002B0F0A6E0AC5F6F4260EF76E000EF86EAF
:1029B0000800F5C484F00C50050DF3C40AF5010EAF
:1029C0000A260A502B0F0B6E0BC5F6F4260EF76E77
:1029D000000EF86E0800F5C485F00C50050DF3C428
:1029E0000AF5020E0A260A502B0F0B6E0BC5F6F4E1
:1029F000260EF76E000EF86E0800F550FC0B866F81
:102A00000C50050DF3C40AF5030E0A260A502B0FCD
:102A10000B6E0BC5F6F4260EF76E000EF86E08006E
:102A2000F5C489F00C50050DF3C40AF5040E0A260E
:102A30000A502B0F0B6E0BC5F6F4260EF76E000E28
:102A4000F86E0800F5C48CF0C896848F28EF15F056
:102A50001200BE6ABF6AC06AC16AC26AC36A040160
:102A6000026B0A6B126B1A6B226B2A6BC668C76803
:102A7000DF0EC86EF00EC96E0F0ECA6EF20ECB6E70
:102A800000690869C70E106FE00E186F070E206FFF
:102A9000F20E286F016B096B116B196B216B296B9F
:102AA00003690B6913691B69070E236F2B6904699E
:102AB0000C6914691C690F0E246F2C690201896B63
:102AC000886B876B866B140E6B6F320E166F130E4E
:102AD0006A6F310E146F0401056B066B076B0D6B8B
:102AE0000E6B0F6B156B166B176B256B266B276BBD
:102AF000120060EC18F0A00E7BEC17F0000E126EC6
:102B0000000E116E11500E24D96E12500F20DA6E85
:102B1000DF507BEC17F0114A122A12BE99EF15F024
:102B2000125009E1200E115CD8A099EF15F09BEF2F
:102B300015F082EF15F05EEC18F0170ED7EC17F0D9
:102B4000106E10A8A6EF15F0A8EF15F0B5EF15F070
:102B500010B6ADEF15F0AFEF15F0B5EF15F0E10ED3
:102B600035EC18F0010EB6EF15F0000E1200D68A03
:102B7000000ED6BE010E0D6ED69E550E0401596F85
:102B8000AA0E596F59915F6B5E6B080E5D6F550E03
:102B9000596FAA0E596F59810DB002D0D69E01D03F
:102BA000D68E0301658FAF90D680CE0E0A6E300EA2
:102BB0000B6E000E0C6E4CEC18F0B490D682D00E5A
:102BC0000A6E300E0B6E000E0C6E45EC18F0B890CD
:102BD000D684D20E0A6E300E0B6E000E0C6E3EECDA
:102BE00018F0120064EC18F0000E0C6E000EB7EC3A
:102BF00017F0050ED7EC17F0106E1028106E000EAF
:102C00000C6E010EB7EC17F0000ED7EC17F0106E3B
:102C1000000E0C6E020EB7EC17F0030E0C6E030ED6
:102C2000B7EC17F0000E0C6E040EB7EC17F0000EA8
:102C30000C6E050EB7EC17F00E0E0C6E060EB7EC10
:102C400017F062EC18F012000301F39FD96BDA6BF6
:102C5000DB6BDC6BDF6BE06BE56BE76B1D0EEC6F2A
:102C6000EE6BEF6BD86BF06BF16BF26BF46B180ED5
:102C7000F56F100EF66FF76BF86B1F0EFA6FF96BAE
:102C8000000E4C6E000E4D6E000E4E6E000E496E24
:102C9000000E4A6E000E4B6E546AAF949F94B09033
:102CA000A090840EF36F1200126E12502009106E65
:102CB00060EC18F010507BEC17F0000E146E000E54
:102CC000136E6EEF16F013500C24D96E14500D20B5
:102CD000DA6EDF507BEC17F0134A142A0E50135CA7
:102CE0000F501458D8A077EF16F079EF16F063EF75
:102CF00016F05EEC18F01200420EF66E300EF76E13
:102D0000000EF86E01EE29F110EE14F00900F5C482
:102D1000EEF4E550E150FAE101EE60F1200EEE6ACA
:102D2000E806FDE101EE49F10C0EEE6AE806FDE170
:102D30000401080E5D6F000E5E6F000E5F6F0001F4
:102D40001BEF13F0FAC408F5FBC409F55250030158
:102D5000196F51C518F33D503E103F10D8B4B3EF72
:102D600016F0B5EF16F0C2EF16F002D8C2EF16F06B
:102D70000500FA6E3D50FD6E3E50FE6E3F50FF6EF8
:102D8000FA501200B19E09C5FBF408C5FAF411000F
:102D900064EC18F017C50CF5050EB7EC17F015C567
:102DA0000CF516C50DF5000E0F6E050E0E6E100E0D
:102DB00054EC16F0000ED7EC17F0186E18500209FC
:102DC000186E18C50CF5000EB7EC17F0050ED7EC11
:102DD00017F062EC18F012000B0E0301196FDC0EF5
:102DE000186F790E1B6F19510A6E1851516E0AC572
:102DF00052F5980E3D6E2E0E3E6E000E3F6EB19E49
:102E0000A18E900E1A6F1200465047104810D8B489
:102E10000CEF17F00EEF17F01BEF17F002D81BEFB7
:102E200017F00500FA6E4650FD6E4750FE6E485092
:102E3000FF6EFA5012001200435044104510D8B4EF
:102E400024EF17F026EF17F033EF17F002D833EF27
:102E500017F00500FA6E4350FD6E4450FE6E45506B
:102E6000FF6EFA5012001200405041104210D8B4C8
:102E70003CEF17F03EEF17F04BEF17F002D84BEF97
:102E800017F00500FA6E4050FD6E4150FE6E425044
:102E9000FF6EFA50120012005328D8A452EF17F018
:102EA00054EF17F055EF17F0536A532A64EC17F0FC
:102EB0000009D8B45EEF17F060EF17F063EF17F07A
:102EC000535016EC18F01200000184AF6AEF17F0AF
:102ED0006CEF17F078EF17F0B1B271EF17F074EFF5
:102EE00017F0010E75EF17F0000E076E79EF17F06F
:102EF000076A075012000A6E000187858651030990
:102F0000866F836B010E826F0AC581F0B1A08BEFD3
:102F100017F08DEF17F086EF17F080C00BF50B5010
:102F200012000E6E0EC5ECF30301F39DF381F3B1B5
:102F30009CEF17F09EEF17F097EF17F0EB510C6E28
:102F4000EA510A6E0CC50BF512000301F36BF86B26
:102F50003F0EFA6FF351F30B0409F36FF38F1E0E5C
:102F600091EC17F00AC54FF50BC550F512000D6E28
:102F70000D5020090E6E0CC50FF560EC18F00E50C8
:102F80007BEC17F00F507BEC17F05EEC18F01200A2
:102F90002BEC18F029EC15F024EC16F0ECEC16F004
:102FA00053EC18F0E5EC17F0B7EC15F012000C6ECE
:102FB00060EC18F00C507BEC17F0FF0E7BEC17F078
:102FC0000D6E5EEC18F00D501200A194A192A1902C
:102FD0000001846B040E856F866B896B8C6B878513
:022FE0001200DD
:102FE400FAC401F5FBC402F5AF9004EC17F002C576
:102FF400FBF401C5FAF41100FAC403F5FBC404F5AB
:10300400B4901CEC17F004C5FBF403C5FAF41100EA
:10301400FAC405F5FBC406F5B89034EC17F006C500
:10302400FBF405C5FAF41100076E0001865103098B
:10303400866F836B010E826F07C581F01200E7E78C
:10304400E7E7E7C2C2C2C2C2E7E7E7E7E7E7E7E7C5
:10305400E7E7600E0001AD6FAF6BB36B080EB16FA5
:10306400B06BAC6B12000C6E60EC18F00C507BEC87
:1030740017F05EEC18F012000AC540F50BC541F5D7
:103084000CC542F512000AC543F50BC544F50CC541
:1030940045F512000AC546F50BC547F50CC548F5BC
:1030A4001200010E00013A6F900E396F12000301F5
:1030B4001A8F1200A18E1200BF821200BF9212005A
:1030C400BF841200BF9412001100120012001200FB
:020000040030CA
:080000008FFFFFFF9FFFFFFFD0
:01000900FFF7
:00000001FF
