:0400000081EF00F09C
:10000800E60CE60CE60CE60C4000E60C4000E60CBC
:10001800AB0CE60CE60CE60CE60CE60CE60CE60C83
:10002800E60C400040004000E60CE60CE60CE60C4E
:10003800E60CE60CE60CE60CE60CE60CE60C030C0B
:10004800E60CE60CE60CE60C40004000E60CE60C7C
:10005800E60CE60CE60C4000E60CE60CE60CE60CBA
:10006800B10CE60CE60CE60CE60CE60CE60CE60C2D
:10007800E60CE60CE60CE60C4000E60CE60CE60C9A
:10008800E60CE60CE60CE60CE60CE60CE60CE60CD8
:10009800E60CE60CE60CE60C4000E60C40004000DE
:1000A800B70CE60CE60CE60CE60CE60CE60CE60CE7
:1000B800E60CE60CE60CE60CE60CE60CE60CE60CA8
:1000C800E60CE60CE60CE60CE60CE60CE60CE60C98
:1000D800E60CE60CE60CE60CE60CE60CE60CE60C88
:1000E8004000E60CE60CE60C4000400040004000F2
:0E00F800E60CE60CE60CE60CFF0045EF17F0F8
:1026000000923200000000362C00000000000000A4
:10261000000000000000BE3100000000F4320000A5
:10262000000090310000000000000002C000FF0028
:1026300002C000FF00002CEC19F0C890C080BBEC79
:1026400019F0C1EC19F049EC19F0000E1BEC16F072
:10265000C792BF82C794BF94CB90C380CB96CB94D4
:10266000C78004010981CB8829997BEC17F0250EDE
:10267000156E050E166E7A0E176E2CEC18F009EC1E
:1026800019F01B0EF5EC18F00AC584F50BC585F59D
:102690001A0EF5EC18F00AC586F50BC587F51E0E67
:1026A000F5EC18F00AC588F50BC589F51D0EF5EC9B
:1026B00018F00AC58AF50BC58BF5010E0501956F5B
:1026C000F40E946F050E976FDC0E966F070E996FE0
:1026D000D00E986FC3961B0EF5EC18F00AC58CF55A
:1026E0000BC58DF5020E1A6EA00E196E920EE82E15
:1026F000FED7192EFCD71A2EFAD700D01A0EF5ECF9
:1027000018F00AC58EF50BC58FF5020E1A6EA00ED5
:10271000196E920EE82EFED7192EFCD71A2EFAD774
:1027200000D01E0EF5EC18F00AC590F50BC591F51A
:10273000020E1A6EA00E196E920EE82EFED7192EFA
:10274000FCD71A2EFAD700D01D0EF5EC18F00AC5EA
:1027500092F50BC593F5020E1A6EA00E196E920E2D
:10276000E82EFED7192EFCD71A2EFAD700D01C0E51
:10277000F5EC18F00AC580F50BC581F5020E1A6E4E
:10278000A00E196E920EE82EFED7192EFCD71A2E27
:10279000FAD700D0190EF5EC18F00AC582F50BC572
:1027A00083F5020E1A6EA00E196E920EE82EFED759
:1027B000192EFCD71A2EFAD700D0050182518311A9
:1027C000D8B4E5EF13F0E7EF13F0EAEF13F0656923
:1027D000EBEF13F0656B80518111D8B4F2EF13F079
:1027E000F4EF13F0F7EF13F06469F8EF13F0646B94
:1027F00098518625196E995187211A6E8E51195C50
:102800008F511A58D8B007EF14F009EF14F00CEFFD
:1028100014F0616976EF14F096518625196E975180
:1028200087211A6E8E51195C8F511A58D8B01BEF40
:1028300014F01DEF14F021EF14F0E00E616F76EF4D
:1028400014F094518625196E955187211A6E8E5178
:10285000195C8F511A58D8B030EF14F032EF14F0E1
:1028600036EF14F0C00E616F76EF14F09851865D6C
:10287000196E995187591A6E19508E5D1A508F59D9
:10288000D8B045EF14F047EF14F04AEF14F0616B45
:1028900076EF14F09651865D196E975187591A6E2E
:1028A00019508E5D1A508F59D8B059EF14F05BEF64
:1028B00014F05FEF14F0200E616F76EF14F0945176
:1028C000865D196E955187591A6E19508E5D1A5092
:1028D0008F59D8B06EEF14F070EF14F074EF14F05D
:1028E000400E616F76EF14F0800E616F9851842571
:1028F000196E995185211A6E8C51195C8D511A5897
:10290000D8B085EF14F087EF14F08AEF14F0606907
:10291000F4EF14F096518425196E975185211A6EA3
:102920008C51195C8D511A58D8B099EF14F09BEF67
:1029300014F09FEF14F0E00E606FF4EF14F0945178
:102940008425196E955185211A6E8C51195C8D5113
:102950001A58D8B0AEEF14F0B0EF14F0B4EF14F092
:10296000C00E606FF4EF14F09851845D196E9951A8
:1029700085591A6E19508C5D1A508D59D8B0C3EF15
:1029800014F0C5EF14F0C8EF14F0606BF4EF14F01E
:102990009651845D196E975185591A6E19508C5D48
:1029A0001A508D59D8B0D7EF14F0D9EF14F0DDEFED
:1029B00014F0200E606FF4EF14F09451845D196EE2
:1029C000955185591A6E19508C5D1A508D59D8B091
:1029D000ECEF14F0EEEF14F0F2EF14F0400E606F35
:1029E000F4EF14F0800E606F98518A25196E99519A
:1029F0008B211A6E9251195C93511A58D8B003EF7B
:102A000015F005EF15F008EF15F0636972EF15F09A
:102A100096518A25196E97518B211A6E9251195C25
:102A200093511A58D8B017EF15F019EF15F01DEFA4
:102A300015F0E00E636F72EF15F094518A25196E50
:102A400095518B211A6E9251195C93511A58D8B036
:102A50002CEF15F02EEF15F032EF15F0C00E636F6E
:102A600072EF15F098518A5D196E99518B591A6E53
:102A70001950925D1A509359D8B041EF15F043EFB9
:102A800015F046EF15F0636B72EF15F096518A5D05
:102A9000196E97518B591A6E1950925D1A509359AD
:102AA000D8B055EF15F057EF15F05BEF15F0200E8D
:102AB000636F72EF15F094518A5D196E95518B59C1
:102AC0001A6E1950925D1A509359D8B06AEF15F0EA
:102AD0006CEF15F070EF15F0400E636F72EF15F0AC
:102AE000800E636F98518825196E995189211A6E4D
:102AF0009051195C91511A58D8B081EF15F083EFBD
:102B000015F086EF15F06269F0EF15F09651882503
:102B1000196E975189211A6E9051195C91511A586A
:102B2000D8B095EF15F097EF15F09BEF15F0E00E8C
:102B3000626FF0EF15F094518825196E9551892137
:102B40001A6E9051195C91511A58D8B0AAEF15F02D
:102B5000ACEF15F0B0EF15F0C00E626FF0EF15F0AE
:102B60009851885D196E995189591A6E1950905D66
:102B70001A509159D8B0BFEF15F0C1EF15F0C4EF5E
:102B800015F0626BF0EF15F09651885D196E975154
:102B900089591A6E1950905D1A509159D8B0D3EFD7
:102BA00015F0D5EF15F0D9EF15F0200E626FF0EFAC
:102BB00015F09451885D196E955189591A6E195006
:102BC000905D1A509159D8B0E8EF15F0EAEF15F082
:102BD000EEEF15F0400E626FF0EF15F0800E626FB1
:102BE000050E1A6E0F0E196EF10EE82EFED7192E75
:102BF000FCD71A2EFAD70000600E0E6E050E0F6E6F
:102C0000CCEC16F0E806D8A408EF16F00AEF16F0A0
:102C10006AEF13F0C386520E1A6E2B0E196E000E59
:102C2000E82EFED7192EFCD71A2EFAD700D06AEF5D
:102C300013F081EF00F00C6E000184BF22EF16F05C
:102C400024EF16F07FEF16F00C50050DF3502B0F0C
:102C50000A6E0AC5F6F4260EF76E000EF86E08002E
:102C6000F5C484F00C50050DF3C40AF5010E0A26D4
:102C70000A502B0F0B6E0BC5F6F4260EF76E000EE6
:102C8000F86E0800F5C485F00C50050DF3C40AF584
:102C9000020E0A260A502B0F0B6E0BC5F6F4260EF9
:102CA000F76E000EF86E0800F550FC0B866F0C50A6
:102CB000050DF3C40AF5030E0A260A502B0F0B6EFE
:102CC0000BC5F6F4260EF76E000EF86E0800F5C47C
:102CD00089F00C50050DF3C40AF5040E0A260A50BB
:102CE0002B0F0B6E0BC5F6F4260EF76E000EF86E6A
:102CF0000800F5C48CF0C896848F7FEF16F01200A0
:102D0000BE6ABF6AC06AC16AC26AC36A0401026B52
:102D10000A6B126B1A6B226B2A6BC668C768DF0ED0
:102D2000C86EC9680F0ECA6ECB6800690869C70E05
:102D3000106F1869070E206F2869016B096B116B02
:102D4000196B216B296B03690B6913691B69070EEA
:102D5000236F2B6904690C6914691C690F0E246FB9
:102D60002C690201896B886B876B866B140E6B6F05
:102D7000320E166F130E6A6F310E146F0401056B5D
:102D8000066B076B0D6B0E6B0F6B156B166B176B72
:102D9000256B266B276B1200C5EC19F0A00EDFEC3B
:102DA00018F0000E126E000E116E11500E24D96E26
:102DB00012500F20DA6EDF50DFEC18F0114A122AA1
:102DC00012BEECEF16F0125009E1200E115CD8A0F3
:102DD000ECEF16F0EEEF16F0D5EF16F0C3EC19F0AD
:102DE000170E3BEC19F0106E10A8F9EF16F0FBEF80
:102DF00016F008EF17F010B600EF17F002EF17F01B
:102E000008EF17F0E10E8FEC19F0010E09EF17F043
:102E1000000E1200D68A000ED6BE010E0D6ED69E92
:102E2000550E0401596FAA0E596F59915F6B5E6B75
:102E3000080E5D6F550E596FAA0E596F59810DB06E
:102E400002D0D69E01D0D68E0301658FAF90D6807A
:102E50009A0E0A6E330E0B6E000E0C6EAEEC19F06D
:102E6000B490D6829C0E0A6E330E0B6E000E0C6E62
:102E7000A7EC19F0B890D6849E0E0A6E330E0B6E36
:102E8000000E0C6EA0EC19F012007C0EF66E330EE4
:102E9000F76E000EF86E01EE9AF110EE05F00900E3
:102EA000F5C4EEF4E550E150FAE1300EF66E330E63
:102EB000F76E000EF86E01EE1BF110EE0FF0090038
:102EC000F5C4EEF4E550E150FAE101EE60F1200EB8
:102ED000EE6AE806FDE101EE36F10C0EEE6AE80658
:102EE000FDE10401080E5D6F000E5E6F000E5F6F66
:102EF00000011BEF13F0C9EC19F0000E0C6E000E70
:102F00001BEC19F0050E3BEC19F0106E1028106E3A
:102F1000000E0C6E010E1BEC19F0000E3BEC19F0CC
:102F2000106E000E0C6E020E1BEC19F0030E0C6EF0
:102F3000030E1BEC19F0000E0C6E040E1BEC19F0C6
:102F4000000E0C6E050E1BEC19F00E0E0C6E060E2C
:102F50001BEC19F0C7EC19F012000301F39FD96BB9
:102F6000DA6BDB6BDC6BDF6BE06BE56BE76B1D0E2D
:102F7000EC6FEE6BEF6BD86BF06BF16BF26BF46B8D
:102F8000180EF56F100EF66FF76BF86B1F0EFA6FD9
:102F9000F96B000E396E000E3A6E000E3B6E000E9D
:102FA000366E000E376E000E386E416AAF949F94F5
:102FB000B090A090840EF36F1200126E1250200990
:102FC000106EC5EC19F01050DFEC18F0000E146E06
:102FD000000E136EF7EF17F013500C24D96E145037
:102FE0000D20DA6EDF50DFEC18F0134A142A0E5071
:102FF000135C0F501458D8A000EF18F002EF18F02F
:0A300000ECEF17F0C3EC19F012001A
:10300C00FAC408F5FBC409F53F500301196F3EC51E
:10301C0018F32A502B102C10D8B417EF18F019EF06
:10302C0018F026EF18F002D826EF18F00500FA6E0B
:10303C002A50FD6E2B50FE6E2C50FF6EFA50120073
:10304C00B19E09C5FBF408C5FAF41100C9EC19F0DE
:10305C0017C50CF5050E1BEC19F015C50CF516C5AE
:10306C000DF5000E0F6E050E0E6E100EDDEC17F04A
:10307C00000E3BEC19F0186E18500209186E18C5AA
:10308C000CF5000E1BEC19F0050E3BEC19F0C7EC1F
:10309C0019F012000B0E0301196FDC0E186F790E6C
:1030AC001B6F19510A6E18513E6E0AC53FF5600E22
:1030BC002A6E310E2B6E000E2C6EB19EA18E900ED0
:1030CC001A6F1200335034103510D8B470EF18F05A
:1030DC0072EF18F07FEF18F002D87FEF18F00500B0
:1030EC00FA6E3350FD6E3450FE6E3550FF6EFA5052
:1030FC0012001200305031103210D8B488EF18F092
:10310C008AEF18F097EF18F002D897EF18F0050037
:10311C00FA6E3050FD6E3150FE6E3250FF6EFA502A
:10312C00120012002D502E102F10D8B4A0EF18F052
:10313C00A2EF18F0AFEF18F002D8AFEF18F00500BF
:10314C00FA6E2D50FD6E2E50FE6E2F50FF6EFA5003
:10315C00120012004028D8A4B6EF18F0B8EF18F0FF
:10316C00B9EF18F0406A402AC8EC18F00009D8B43E
:10317C00C2EF18F0C4EF18F0C7EF18F040507AEC1B
:10318C0019F01200000184AFCEEF18F0D0EF18F058
:10319C00DCEF18F0B1B2D5EF18F0D8EF18F0010E43
:1031AC00D9EF18F0000E076EDDEF18F0076A075024
:1031BC0012000A6E0001878586510309866F836BA6
:1031CC00010E826F0AC581F0B1A0EFEF18F0F1EF9C
:1031DC0018F0EAEF18F080C00BF50B5012000E6ED1
:1031EC000EC5ECF30301F39DF381F3B100EF19F07D
:1031FC0002EF19F0FBEF18F0EB510C6EEA510A6E6E
:10320C000CC50BF512000301F36BF86B3F0EFA6F54
:10321C00F351F30B0409F36FF38F1E0EF5EC18F05A
:10322C000AC53CF50BC53DF512000D6E0D5020097D
:10323C000E6E0CC50FF5C5EC19F00E50DFEC18F046
:10324C000F50DFEC18F0C3EC19F0120085EC19F0FC
:10325C0080EC16F0ADEC17F050EC18F0B5EC19F062
:10326C0049EC19F00AEC17F012000C6EC5EC19F0D1
:10327C000C50DFEC18F0FF0EDFEC18F00D6EC3EC09
:10328C0019F00D501200A194A192A1900001846B31
:0E329C00040E856F866B896B8C6B8785120024
:1032AC00FAC401F5FBC402F5AF9068EC18F002C546
:1032BC00FBF401C5FAF41100FAC403F5FBC404F5E0
:1032CC00B49080EC18F004C5FBF403C5FAF41100BB
:1032DC00FAC405F5FBC406F5B89098EC18F006C5D1
:1032EC00FBF405C5FAF41100076E000186510309C1
:1032FC00866F836B010E826F07C581F01200600E22
:10330C000001AD6FAF6BB36B080EB16FB06BAC6BF4
:10331C0012000C6EC5EC19F00C50DFEC18F0C3EC7D
:10332C0019F01200C2C2C2C2C2E7E7E7E7E7E7E75B
:03333C00E7E7E7D9
:103340000AC52DF50BC52EF50CC52FF512000AC5C3
:1033500030F50BC531F50CC532F512000AC533F551
:103360000BC534F50CC535F51200010E00013A6F9E
:10337000900E396F120003011A8F1200E7E7E7E79A
:01338000E765
:10338200A18E1200BF841200BF941200BF821200ED
:04339200BF921200D4
:083398001100120012001200E6
:020000040030CA
:080000008FFFFFFF9FFFFFFFD0
:01000900FFF7
:00000001FF
