:0400000081EF00F09C
:10000800460D460D460D460D4000460D4000460D76
:10001800FD0C460D8F0C460D460D460D460D460D42
:10002800450D400040004000460D460D460D460D6A
:10003800460D460D460D460D460D460D460D680CFF
:10004800460D460D460D460D40004000460D460D36
:10005800460D460D460D4000460D460D460D460D13
:10006800030D460D460D460D460D460D460D460D33
:10007800460D460D460D460D4000460D460D460DF3
:10008800460D460D460D460D460D460D460D460DD0
:10009800460D460D460D460D4000460D40004000F9
:1000A800090D460D460D460D460D460D460D460DED
:1000B800460D460D460D460D460D460D460D460DA0
:1000C800460D460D460D460D460D460D460D460D90
:1000D800460D460D460D460D460D460D460D460D80
:1000E8004000460D460D460D4000400040004000CF
:0E00F800460D460D460D460DFF0008EF18F0B0
:1026000000DC3300000000922C00000000000000FD
:102610000000000000004433000000000000000043
:10262000000000000000000000000002C000FF00E9
:1026300002C000FF00000501656B0B500C10D8B400
:1026400024EF13F026EF13F029EF13F064692AEF5B
:1026500013F0646B1950115C236E1A501258246EDB
:1026600024BE3CEF13F0D10E235C070E2458D8A0F3
:102670003CEF13F03EEF13F041EF13F061699CEF74
:1026800013F024BE4DEF13F0DD0E235C050E24582D
:10269000D8A04DEF13F04FEF13F053EF13F0E00E0F
:1026A000616F9CEF13F024BE5FEF13F0F50E235C17
:1026B000010E2458D8A05FEF13F061EF13F065EF1F
:1026C00013F0C00E616F9CEF13F024AE71EF13F0A6
:1026D000300E235CF80E2458D8B071EF13F073EF6E
:1026E00013F076EF13F0616B9CEF13F024AE82EFE2
:1026F00013F0240E235CFA0E2458D8B082EF13F0A6
:1027000084EF13F088EF13F0200E616F9CEF13F04D
:1027100024AE94EF13F00C0E235CFE0E2458D8B0B8
:1027200094EF13F096EF13F09AEF13F0400E616FF1
:102730009CEF13F0800E616F1B50135C216E1C50D8
:102740001458226E22BEAEEF13F0E90E215C030E88
:102750002258D8A0AEEF13F0B0EF13F0B3EF13F0A0
:1027600060690EEF14F022BEBFEF13F0BD0E215CC6
:10277000020E2258D8A0BFEF13F0C1EF13F0C5EF3F
:1027800013F0E00E606F0EEF14F022BED1EF13F0E5
:102790002D0E215C010E2258D8A0D1EF13F0D3EFFB
:1027A00013F0D7EF13F0C00E606F0EEF14F022AEEF
:1027B000E3EF13F0180E215CFC0E2258D8B0E3EFC3
:1027C00013F0E5EF13F0E8EF13F0606B0EEF14F089
:1027D00022AEF4EF13F0440E215CFD0E2258D8B067
:1027E000F4EF13F0F6EF13F0FAEF13F0200E606F32
:1027F0000EEF14F022AE06EF14F0D40E215CFE0EA4
:102800002258D8B006EF14F008EF14F00CEF14F0D3
:10281000400E606F0EEF14F0800E606F15500D5C6F
:102820001D6E16500E581E6E1EBE20EF14F0D10EF7
:102830001D5C070E1E58D8A020EF14F022EF14F0F4
:1028400025EF14F0636980EF14F01EBE31EF14F031
:10285000DD0E1D5C050E1E58D8A031EF14F033EFCD
:1028600014F037EF14F0E00E636F80EF14F01EBE2B
:1028700043EF14F0F50E1D5C010E1E58D8A043EF77
:1028800014F045EF14F049EF14F0C00E636F80EFC1
:1028900014F01EAE55EF14F0300E1D5CF80E1E58ED
:1028A000D8B055EF14F057EF14F05AEF14F0636BF3
:1028B00080EF14F01EAE66EF14F0240E1D5CFA0ECD
:1028C0001E58D8B066EF14F068EF14F06CEF14F0F7
:1028D000200E636F80EF14F01EAE78EF14F00C0E34
:1028E0001D5CFE0E1E58D8B078EF14F07AEF14F08D
:1028F0007EEF14F0400E636F80EF14F0800E636F74
:1029000017500F5C1F6E18501058206E20BE92EFAB
:1029100014F0E90E1F5C030E2058D8A092EF14F0BB
:1029200094EF14F097EF14F06269F2EF14F020BE08
:10293000A3EF14F0BD0E1F5C020E2058D8A0A3EF29
:1029400014F0A5EF14F0A9EF14F0E00E626FF2EFAF
:1029500014F020BEB5EF14F02D0E1F5C010E2058B0
:10296000D8A0B5EF14F0B7EF14F0BBEF14F0C00E21
:10297000626FF2EF14F020AEC7EF14F0180E1F5C78
:10298000FC0E2058D8B0C7EF14F0C9EF14F0CCEF0C
:1029900014F0626BF2EF14F020AED8EF14F0440E96
:1029A0001F5CFD0E2058D8B0D8EF14F0DAEF14F009
:1029B000DEEF14F0200E626FF2EF14F020AEEAEFBB
:1029C00014F0D40E1F5CFE0E2058D8B0EAEF14F0BD
:1029D000ECEF14F0F0EF14F0400E626FF2EF14F031
:1029E000800E626F1200DFEC19F0D68EC890C080A6
:1029F000EEEC19F0000E49EC16F0C792BF82C794B6
:102A0000BF94CB90C380CB96CB94C780040109813F
:102A1000CB8829993EEC18F08F0E05019D6F050EAD
:102A20009E6F7A0E9F6FF7EC18F01EEC1AF07A0E7C
:102A30003F6E340E406E000E416E6CEC1AF02D505D
:102A4000D8A425EF15F027EF15F037EF15F02E502D
:102A5000D8A42DEF15F02FEF15F037EF15F025C5A1
:102A600040F526C541F5CDEC17F0010E2D6E2E5028
:102A7000D8B43DEF15F03FEF15F057EF15F02C509F
:102A8000D8A445EF15F047EF15F057EF15F02B5090
:102A9000D8A44DEF15F04FEF15F057EF15F025C501
:102AA00040F526C541F5AEEC16F0010E2B6E325006
:102AB000D8B45DEF15F05FEF15F033EF16F02D5041
:102AC000D8B465EF15F067EF15F0B7EF15F02550A6
:102AD0002610D8A46EEF15F070EF15F07AEF15F010
:102AE000254A262A27C51BF528C51CF52D6A326AFA
:102AF000B7EF15F025042610D8A481EF15F083EF69
:102B000015F08BEF15F0254A262A27C519F528C59B
:102B10001AF576EF15F0020E25182610D8A493EFBB
:102B200015F095EF15F09DEF15F0254A262A27C5DB
:102B300017F528C518F576EF15F0030E25182610A1
:102B4000D8A4A5EF15F0A7EF15F0B7EF15F0254ABB
:102B5000262A27C515F528C516F52D6A010E2E6EF5
:102B6000326A000E266E000E256EB7EF15F02B5060
:102B7000D8B4BDEF15F0BFEF15F033EF16F02550C8
:102B80002610D8A4C6EF15F0C8EF15F0D2EF15F057
:102B9000254A262A27C513F528C514F52B6A326A5B
:102BA00033EF16F025042610D8A4D9EF15F0DBEF8B
:102BB00015F0E3EF15F0254A262A27C511F528C59B
:102BC00012F5CEEF15F0020E25182610D8A4EBEF63
:102BD00015F0EDEF15F0F5EF15F0254A262A27C57B
:102BE0000FF528C510F5CEEF15F0030E25182610A9
:102BF000D8A4FDEF15F0FFEF15F007EF16F0254A0A
:102C0000262A27C50DF528C50EF5CEEF15F0040EC2
:102C100025182610D8A40FEF16F011EF16F019EFB3
:102C200016F0254A262A27C50BF528C50CF5CEEF48
:102C300015F0050E25182610D8A421EF16F023EF65
:102C400016F033EF16F0254A262A27C50BF528C5BE
:102C50000CF52B6A010E2C6E326A000E266E000EE9
:102C6000256E33EF16F02C50D8B439EF16F03BEF49
:102C700016F01FEF15F01BEC13F02C6A600E050127
:102C8000966F050E976F53EC17F01FEF15F081EF5D
:102C900000F0416E000184BF50EF16F052EF16F0C5
:102CA000ADEF16F04150050DF3502B0F3F6E3FC5B1
:102CB000F6F4260EF76E000EF86E0800F5C484F0E8
:102CC0004150050DF3C43FF5010E3F263F502B0F39
:102CD000406E40C5F6F4260EF76E000EF86E080042
:102CE000F5C485F04150050DF3C43FF5020E3F26B3
:102CF0003F502B0F406E40C5F6F4260EF76E000EC7
:102D0000F86E0800F550FC0B866F4150050DF3C4BA
:102D10003FF5030E3F263F502B0F406E40C5F6F4A3
:102D2000260EF76E000EF86E0800F5C489F04150CB
:102D3000050DF3C43FF5040E3F263F502B0F406EA8
:102D400040C5F6F4260EF76E000EF86E0800F5C4C6
:102D50008CF0C896848FADEF16F0120040504110F1
:102D6000D8A4B5EF16F0B7EF16F0BCEF16F01B0EB7
:102D700050EC1AF006EF17F040044110D8A4C3EF4E
:102D800016F0C5EF16F0CAEF16F01A0E50EC1AF056
:102D900006EF17F0020E40184110D8A4D2EF16F03B
:102DA000D4EF16F0D9EF16F01E0E50EC1AF006EF25
:102DB00017F0030E40184110D8A4E1EF16F0E3EF2E
:102DC00016F0E8EF16F01D0E50EC1AF006EF17F0B3
:102DD000040E40184110D8A4F0EF16F0F2EF16F0F0
:102DE000F7EF16F01C0E50EC1AF006EF17F0050E78
:102DF00040184110D8A4FFEF16F001EF17F006EFCE
:102E000017F0190E50EC1AF006EF17F01200BE6A18
:102E1000BF6AC06AC16AC26AC36A0401026B0A6BF4
:102E2000126B1A6B226B2A6BC668C768DF0EC86EFE
:102E3000C9680F0ECA6ECB6800690869C70E106FAB
:102E40001869070E206F2869016B096B116B196BEC
:102E5000216B296B03690B6913691B69070E236FCB
:102E60002B6904690C6914691C690F0E246F2C69A5
:102E70000201896B886B876B866B140E6B6F320E49
:102E8000166F130E6A6F310E146F0401056B066B1B
:102E9000076B0D6B0E6B0F6B156B166B176B256B42
:102EA000266B276B120084EC1AF0A00EA2EC19F02E
:102EB000000E05019A6F000E996F99519625D96EF3
:102EC0009A519721DA6EDF50A2EC19F00501994B67
:102ED0009A2B9ABF75EF17F09A5109E1200E995D70
:102EE000D8A075EF17F077EF17F05DEF17F082ECD1
:102EF0001AF0170ECDEC19F00501986F98A983EF21
:102F000017F085EF17F08FEF17F098B78AEF17F0EB
:102F10008CEF17F08FEF17F0E10E47EC1AF012006C
:102F2000D68A000ED6BE010E0501946FD69E550EB0
:102F30000401596FAA0E596F59915F6B5E6B080EB1
:102F40005D6F550E596FAA0E596F5981050194B1E5
:102F500002D0D69E01D0D68E0301658FAF90D68069
:102F60001A0E3F6E350E406E000E416E65EC1AF083
:102F7000B490D6821C0E3F6E350E406E000E416E30
:102F80005EEC1AF0B890D6841E0E3F6E350E406E81
:102F9000000E416E57EC1AF0120040504110D8A4B8
:102FA000D4EF17F0D6EF17F0DBEF17F01F0E50EC51
:102FB0001AF007EF18F040044110D8A4E2EF17F020
:102FC000E4EF17F0E9EF17F01A0E50EC1AF007EFE4
:102FD00018F0020E40184110D8A4F1EF17F0F3EFEB
:102FE00017F0F8EF17F01E0E50EC1AF007EF18F07C
:102FF000030E40184110D8A400EF18F002EF18F0AB
:1030000007EF18F01D0E50EC1AF007EF18F0120041
:10301000520EF66E340EF76E000EF86E01EE80F171
:1030200010EE14F00900F5C4EEF4E550E150FAE1B9
:10303000E60EF66E340EF76E000EF86E01EE42F1FB
:1030400010EE0CF00900F5C4EEF4E550E150FAE1A1
:1030500001EE60F1200EEE6AE806FDE101EE01F1FD
:10306000320EEE6AE806FDE10401080E5D6F000E07
:103070005E6F000E5F6F0001F3EF14F088EC1AF042
:10308000000E416E000EB8EC19F0050ECDEC19F0F3
:103090000501976F9729976F000E416E010EB8ECEE
:1030A00019F0000ECDEC19F00501976F000E416E7E
:1030B000020EB8EC19F0030E416E030EB8EC19F0D5
:1030C000000E416E040EB8EC19F0000E416E050EB4
:1030D000B8EC19F00E0E416E060EB8EC19F086EC45
:1030E0001AF012000301F39FD96BDA6BDB6BDC6B18
:1030F000DF6BE06BE56BE76B1D0EEC6FEE6BEF6B60
:10310000D86BF06BF16BF26BF46B180EF56F100E61
:10311000F66FF76BF86B1F0EFA6FF96B000E046E0B
:10312000000E056E000E066E000E016E000E026EA1
:10313000000E036E316AAF949F84B090A090840E0D
:10314000F36F120005019A6F05019A512009986FDB
:1031500084EC1AF005019851A2EC19F0000E05015B
:103160009C6F000E9B6FC1EF18F09B519425D96E98
:103170009C519521DA6EDF50A2EC19F005019B4BB2
:103180009C2B96519B5D97519C59D8A0CAEF18F083
:0E319000CCEF18F0B5EF18F082EC1AF0120038
:1031A000FAC43DF5FBC43EF52A500301196F29C549
:1031B00018F30501A151A211A311D8B4E2EF18F040
:1031C000E4EF18F0F1EF18F002D8F1EF18F0050075
:1031D000FA6EA151FD6EA251FE6EA351FF6EFA5020
:1031E0001200B19E3EC5FBF43DC5FAF4110088EC17
:1031F0001AF09FC541F5050EB8EC19F09DC594F580
:103200009EC595F5000E0501976F050E966F100E81
:10321000A2EC18F0000ECDEC19F00501A06FA05142
:103220000209A06FA0C541F5000EB8EC19F0050E1B
:0A323000CDEC19F086EC1AF0120044
:10323C00FAC435F5FBC436F5AF94045005100610EE
:10324C00D8B42BEF19F02DEF19F03AEF19F002D892
:10325C003AEF19F00500FA6E0450FD6E0550FE6E43
:10326C000650FF6EFA50120036C5FBF435C5FAF461
:10327C0011000B0E0301196FDC0E186F790E1B6F0A
:10328C0019513F6E1851296E3FC52AF5FE0E0501E6
:10329C00A16F340EA26F000EA36FB19EA18E900E83
:1032AC0003011A6F12000501A451A511A611D8B47F
:1032BC0062EF19F064EF19F071EF19F002D871EFA9
:1032CC0019F00500FA6EA451FD6EA551FE6EA651C3
:1032DC00FF6EFA5012001200515052105310D8B415
:1032EC007AEF19F07CEF19F089EF19F002D889EF19
:1032FC0019F00500FA6E5150FD6E5250FE6E53508F
:10330C00FF6EFA50120012004E504F105010D8B4ED
:10331C0092EF19F094EF19F0A1EF19F002D8A1EF88
:10332C0019F00500FA6E4E50FD6E4F50FE6E505067
:10333C00FF6EFA50120012003F6E00018785865115
:10334C000309866F836B010E826F3FC581F0B1A0BC
:10335C00B2EF19F0B4EF19F0ADEF19F080C040F5F1
:10336C00405012000501946F050194512009956F8E
:10337C0041C596F584EC1AF005019551A2EC19F0B3
:10338C0005019651A2EC19F082EC1AF0120005011D
:10339C00946F84EC1AF005019451A2EC19F0FF0E15
:1033AC00A2EC19F00501956F82EC1AF0050195510C
:1033BC00120033EC1AF007EC17F072EC18F03FEC3B
:1033CC0019F079EC1AF0EEEC19F090EC17F0120001
:1033DC00A194A192A1900001846B040E856F866B61
:1033EC00896B8C6B87851200FAC437F5FBC438F5F2
:1033FC00AF9072EC19F038C5FBF437C5FAF4110034
:10340C00FAC439F5FBC43AF5B4908AEC19F03AC514
:10341C00FBF439C5FAF41100FAC43BF5FBC43CF5D6
:10342C00B89059EC19F03CC5FBF43BC5FAF411000B
:10343C000301F36BF86B3F0EFA6FF351F30B0409B6
:10344C00F36FF38F1200E7E7E7E7E7C2C2C2C2C22D
:10345C00E7E7E7E7E7E7E7E7E7E7600E0001AD6FCF
:10346C00AF6BB36B080EB16FB06BAC6B120003019A
:10347C00EB51336EEA51276E33C528F5010E326ECF
:10348C001200416E84EC1AF04150A2EC19F082EC5F
:10349C001AF012003F6E3FC5ECF30301F39DF3816C
:1034AC0012003FC5A4F540C5A5F541C5A6F512000F
:1034BC003FC54EF540C54FF541C550F512003FC50F
:1034CC0051F540C552F541C553F512003FC504F501
:1034DC0040C505F541C506F51200E803BC022C01F8
:1034EC00D007DC05F401010E00013A6F900E396F24
:1034FC001200010E306E1200BF841200BF94120035
:10350C00BF821200BF921200B09011001100120085
:04351C001200120087
:020000040030CA
:080000008FFFFFFF9FFFFFFFD0
:01000900FFF7
:00000001FF
