:0400000081EF00F09C
:10000800300A300A300A300A4000300A4000300A0C
:10001800180A300A300A300A300A300A300A300A20
:10002800300A400040004000300A300A300A300AE6
:10003800300A300A300A300A300A300A300A300AE8
:10004800300A300A300A300A40004000300A300ACC
:10005800300A300A300A4000300A300A300A300AC2
:100068001E0A300A300A300A300A300A300A300ACA
:10007800300A300A300A300A4000300A300A300AA2
:10008800300A300A300A300A300A300A300A300A98
:10009800300A300A300A300A4000300A4000400076
:1000A800240A300A300A300A300A300A300A300A84
:1000B800300A300A300A300A300A300A300A300A68
:1000C800300A300A300A300A300A300A300A300A58
:1000D800300A300A300A300A300A300A300A300A48
:1000E8004000300A300A300A40004000400040001A
:0E00F800300A300A300A300AFF001FEF14F001
:102600000000C990C992C994C996C190C192C19461
:10261000C19654EC14F01E0E0BEC14F007C50EF529
:1026200008C50FF5020E0D6EA00E0C6E920EE82E70
:10263000FED70C2EFCD70D2EFAD700D01D0E0BECBA
:1026400014F007C510F508C511F5020E0D6EA00EA9
:102650000C6E920EE82EFED70C2EFCD70D2EFAD75C
:1026600000D0010E176EF40E166E1E0E0BEC14F059
:1026700007C512F508C513F5020E0D6EA00E0C6EFF
:10268000920EE82EFED70C2EFCD70D2EFAD700D0D6
:102690001D0E0BEC14F007C514F508C515F5020E58
:1026A0000D6EA00E0C6E920EE82EFED70C2EFCD7EF
:1026B0000D2EFAD700D016500E240C6E17500F2096
:1026C0000D6E14500C5C15500D58D8B06AEF13F015
:1026D0006CEF13F070EF13F0C186C19487EF13F025
:1026E00016500E5C0C6E17500F580D6E0C50145C8B
:1026F0000D501558D8B07FEF13F081EF13F085EF30
:1027000013F0C196C18487EF13F0C196C19416509F
:1027100010240C6E175011200D6E12500C5C1350CB
:102720000D58D8B096EF13F098EF13F09CEF13F01C
:10273000C182C190B3EF13F01650105C0C6E1750AD
:1027400011580D6E0C50125C0D501358D8B0ABEFF1
:1027500013F0ADEF13F0B1EF13F0C192C180B3EFFE
:1027600013F0C192C190050E0D6E0F0E0C6EF10E9E
:10277000E82EFED70C2EFCD70D2EFAD7000035EF31
:1027800013F081EF00F01E501F102010D8B4CBEFD3
:1027900013F0CDEF13F0DAEF13F002D8DAEF13F005
:1027A0000500FA6E1E50FD6E1F50FE6E2050FF6E2B
:1027B000FA50120012001B501C101D10D8B4E3EF89
:1027C00013F0E5EF13F0F2EF13F002D8F2EF13F08D
:1027D0000500FA6E1B50FD6E1C50FE6E1D50FF6E04
:1027E000FA5012001200185019101A10D8B4FBEF4A
:1027F00013F0FDEF13F00AEF14F002D80AEF14F013
:102800000500FA6E1850FD6E1950FE6E1A50FF6EDC
:10281000FA50120012000B6E0BC5ECF30301F39D8E
:10282000F381F3B116EF14F018EF14F011EF14F078
:10283000EB51096EEA51076E09C508F5120001EE69
:1028400018F1100EEE6AE806FDE10401080E5D6F56
:0E285000000E5E6F000E5F6F000101EF13F0CF
:10286000FAC401F5FBC402F5AF90C3EC13F002C546
:10287000FBF401C5FAF41100FAC403F5FBC404F536
:10288000B490DBEC13F004C5FBF403C5FAF41100BB
:10289000FAC405F5FBC406F5B890F3EC13F006C5D1
:1028A000FBF405C5FAF411000301F36BF86B3F0E5E
:0E28B000FA6FF351F30B0409F36FF38F12006C
:0828C0001100120012001200C9
:020000040030CA
:030000008CFF3F33
:010004009F5C
:00000001FF
