:0400000081EF00F09C
:10000800870C870C870C870C4000870C4000870CF6
:100018004E0C870C870C870C870C870C870C870C79
:10002800870C400040004000870C870C870C870C29
:10003800870C870C870C870C870C870C870CBD0BEB
:10004800870C870C870C870C40004000870C870CB6
:10005800870C870C870C4000870C870C870C870C53
:10006800540C870C870C870C870C870C870C870C23
:10007800870C870C870C870C4000870C870C870C33
:10008800870C870C870C870C870C870C870C870CD0
:10009800870C870C870C870C4000870C40004000B9
:1000A8005A0C870C870C870C870C870C870C870CDD
:1000B800870C870C870C870C870C870C870C870CA0
:1000C800870C870C870C870C870C870C870C870C90
:1000D800870C870C870C870C870C870C870C870C80
:1000E8004000870C870C870C40004000400040000F
:0E00F800870C870C870C870CFF00B5EF16F005
:10260000001E3100000000722A00000000000000DF
:102610000000000000004A30000000000000000040
:10262000000000000000000000000002C000FF00E9
:1026300002C000FF00001B0E3BEC18F043C513F571
:1026400044C514F51A0E3BEC18F043C511F544C50A
:1026500012F51E0E3BEC18F043C50FF544C510F5FE
:102660001D0E3BEC18F043C50DF544C50EF51C0ED0
:102670003BEC18F043C50BF544C50CF5190E3BECCB
:1026800018F043C509F544C50AF509500A10D8B435
:102690004CEF13F04EEF13F052EF13F005016569A4
:1026A00054EF13F00501656B0B500C10D8B45BEFC1
:1026B00013F05DEF13F060EF13F0646961EF13F056
:1026C000646B1950115C236E1A501258246E24BE8C
:1026D00073EF13F0D10E235C070E2458D8A073EFCC
:1026E00013F075EF13F078EF13F06169D3EF13F087
:1026F00024BE84EF13F0DD0E235C050E2458D8A011
:1027000084EF13F086EF13F08AEF13F0E00E616FA1
:10271000D3EF13F024BE96EF13F0F50E235C010EF9
:102720002458D8A096EF13F098EF13F09CEF13F015
:10273000C00E616FD3EF13F024AEA8EF13F0300E8C
:10274000235CF80E2458D8B0A8EF13F0AAEF13F0CA
:10275000ADEF13F0616BD3EF13F024AEB9EF13F0CC
:10276000240E235CFA0E2458D8B0B9EF13F0BBEF57
:1027700013F0BFEF13F0200E616FD3EF13F024AE10
:10278000CBEF13F00C0E235CFE0E2458D8B0CBEF29
:1027900013F0CDEF13F0D1EF13F0400E616FD3EFD4
:1027A00013F0800E616F1B50135C216E1C50145887
:1027B000226E22BEE5EF13F0E90E215C030E2258D3
:1027C000D8A0E5EF13F0E7EF13F0EAEF13F060693C
:1027D00045EF14F022BEF6EF13F0BD0E215C020EA1
:1027E0002258D8A0F6EF13F0F8EF13F0FCEF13F037
:1027F000E00E606F45EF14F022BE08EF14F02D0ECE
:10280000215C010E2258D8A008EF14F00AEF14F052
:102810000EEF14F0C00E606F45EF14F022AE1AEF09
:1028200014F0180E215CFC0E2258D8B01AEF14F0E8
:102830001CEF14F01FEF14F0606B45EF14F022AEA4
:102840002BEF14F0440E215CFD0E2258D8B02BEF74
:1028500014F02DEF14F031EF14F0200E606F45EFFF
:1028600014F022AE3DEF14F0D40E215CFE0E22587F
:10287000D8B03DEF14F03FEF14F043EF14F0400EEA
:10288000606F45EF14F0800E606F15500D5C1D6E8B
:1028900016500E581E6E1EBE57EF14F0D10E1D5C62
:1028A000070E1E58D8A057EF14F059EF14F05CEF44
:1028B00014F06369B7EF14F01EBE68EF14F0DD0E7C
:1028C0001D5C050E1E58D8A068EF14F06AEF14F0D6
:1028D0006EEF14F0E00E636FB7EF14F01EBE7AEFE8
:1028E00014F0F50E1D5C010E1E58D8A07AEF14F0FE
:1028F0007CEF14F080EF14F0C00E636FB7EF14F0AC
:102900001EAE8CEF14F0300E1D5CF80E1E58D8B0C1
:102910008CEF14F08EEF14F091EF14F0636BB7EFBF
:1029200014F01EAE9DEF14F0240E1D5CFA0E1E581E
:10293000D8B09DEF14F09FEF14F0A3EF14F0200E29
:10294000636FB7EF14F01EAEAFEF14F00C0E1D5C0A
:10295000FE0E1E58D8B0AFEF14F0B1EF14F0B5EF83
:1029600014F0400E636FB7EF14F0800E636F1750D2
:102970000F5C1F6E18501058206E20BEC9EF14F067
:10298000E90E1F5C030E2058D8A0C9EF14F0CBEF5E
:1029900014F0CEEF14F0626929EF15F020BEDAEFE3
:1029A00014F0BD0E1F5C020E2058D8A0DAEF14F010
:1029B000DCEF14F0E0EF14F0E00E626F29EF15F099
:1029C00020BEECEF14F02D0E1F5C010E2058D8A095
:1029D000ECEF14F0EEEF14F0F2EF14F0C00E626FB3
:1029E00029EF15F020AEFEEF14F0180E1F5CFC0E60
:1029F0002058D8B0FEEF14F000EF15F003EF15F0FB
:102A0000626B29EF15F020AE0FEF15F0440E1F5C3E
:102A1000FD0E2058D8B00FEF15F011EF15F015EF9F
:102A200015F0200E626F29EF15F020AE21EF15F0A2
:102A3000D40E1F5CFE0E2058D8B021EF15F023EF06
:102A400015F027EF15F0400E626F29EF15F0800E9C
:102A5000626F600E476E050E486E3CEC16F0E8069D
:102A6000D8A435EF15F037EF15F038EF15F0C38621
:102A70001200456E000184BF40EF15F042EF15F0E3
:102A80009DEF15F04550050DF3502B0F436E43C5D8
:102A9000F6F4260EF76E000EF86E0800F5C484F00A
:102AA0004550050DF3C443F5010E432643502B0F4B
:102AB000446E44C5F6F4260EF76E000EF86E08005C
:102AC000F5C485F04550050DF3C443F5020E4326C9
:102AD00043502B0F446E44C5F6F4260EF76E000EDD
:102AE000F86E0800F550FC0B866F4550050DF3C4D9
:102AF00043F5030E432643502B0F446E44C5F6F4B2
:102B0000260EF76E000EF86E0800F5C489F04550E9
:102B1000050DF3C443F5040E432643502B0F446EBA
:102B200044C5F6F4260EF76E000EF86E0800F5C4E4
:102B30008CF0C896848F9DEF15F0120072EC18F09F
:102B4000C890C0808FEC18F0000E39EC15F0C792D9
:102B5000BF82C794BF94CB90C380CB96CB94C780E1
:102B600004010981CB882999EBEC16F0360E496EE9
:102B7000050E4A6E7A0E4B6EA0EC17F04FEC18F073
:102B80001B0E3BEC18F043C51BF544C51CF51A0E93
:102B90003BEC18F043C519F544C51AF51E0E3BEC85
:102BA00018F043C517F544C518F51D0E3BEC18F099
:102BB00043C515F544C516F5D68EFEEC18F004ECA9
:102BC00019F02850D8B4E7EF15F0E9EF15F0E1EF70
:102BD00015F01BEC13F0286AE1EF15F081EF00F01F
:102BE000BE6ABF6AC06AC16AC26AC36A0401026B74
:102BF0000A6B126B1A6B226B2A6BC668C768DF0EF2
:102C0000C86EC9680F0ECA6ECB6800690869C70E26
:102C1000106F1869070E206F2869016B096B116B23
:102C2000196B216B296B03690B6913691B69070E0B
:102C3000236F2B6904690C6914691C690F0E246FDA
:102C40002C690201896B886B876B866B140E6B6F26
:102C5000320E166F130E6A6F310E146F0401056B7E
:102C6000066B076B0D6B0E6B0F6B156B166B176B93
:102C7000256B266B276B120008EC19F0A00E25ECD3
:102C800018F0000E4B6E000E4A6E4A504724D96E63
:102C90004B504820DA6EDF5025EC18F04A4A4B2A98
:102CA0004BBE5CEF16F04B5009E1200E4A5CD8A0F9
:102CB0005CEF16F05EEF16F045EF16F006EC19F03B
:102CC000170E81EC18F0496E49A869EF16F06BEF0A
:102CD00016F078EF16F049B670EF16F072EF16F0B6
:102CE00078EF16F0E10ECAEC18F0010E79EF16F04D
:102CF000000E1200D68A000ED6BE010E466ED69E7B
:102D0000550E0401596FAA0E596F59915F6B5E6B96
:102D1000080E5D6F550E596FAA0E596F598146B056
:102D200002D0D69E01D0D68E0301658FAF90D6809B
:102D30001E0E436E320E446E000E456EF1EC18F01E
:102D4000B490D682200E436E320E446E000E456E55
:102D5000EAEC18F0B890D684220E436E320E446E20
:102D6000000E456EE3EC18F01200B70EF66E310E51
:102D7000F76E000EF86E01EE80F110EE0FF0090014
:102D8000F5C4EEF4E550E150FAE1A60EF66E310E10
:102D9000F76E000EF86E01EE2AF110EE11F0090048
:102DA000F5C4EEF4E550E150FAE101EE60F1200ED9
:102DB000EE6AE806FDE101EE01F1290EEE6AE80691
:102DC000FDE10401080E5D6F000E5E6F000E5F6F87
:102DD00000019EEF15F00CEC19F0000E456E000E90
:102DE00061EC18F0050E81EC18F0496E4928496E27
:102DF000000E456E010E61EC18F0000E81EC18F02B
:102E0000496E000E456E020E61EC18F0030E456E21
:102E1000030E61EC18F0000E456E040E61EC18F024
:102E2000000E456E050E61EC18F00E0E456E060E96
:102E300061EC18F00AEC19F012000301F39FD96B52
:102E4000DA6BDB6BDC6BDF6BE06BE56BE76B1D0E4E
:102E5000EC6FEE6BEF6BD86BF06BF16BF26BF46BAE
:102E6000180EF56F100EF66FF76BF86B1F0EFA6FFA
:102E7000F96B000E046E000E056E000E066E000E5D
:102E8000016E000E026E000E036E296AAF949F94CD
:102E9000B090A090840EF36F12000501916F0501B0
:102EA000915120098F6F08EC19F005018F5125EC25
:102EB00018F0000E0501936F000E926F6CEF17F083
:102EC00092514524D96E93514620DA6EDF5025EC9D
:102ED00018F00501924B932B4750925D485093593F
:102EE000D8A075EF17F077EF17F060EF17F006EC4A
:102EF00019F01200FAC441F5FBC442F52650030153
:102F0000196F25C518F34C504D104E10D8B48BEFE7
:102F100017F08DEF17F09AEF17F002D89AEF17F02D
:102F20000500FA6E4C50FD6E4D50FE6E4E50FF6E19
:102F3000FA501200B19E42C5FBF441C5FAF41100EB
:102F40000CEC19F04BC545F5050E61EC18F049C5C0
:102F500045F54AC546F5000E486E050E476E100E43
:102F60004DEC17F0000E81EC18F00501946F9451B0
:102F70000209946F94C545F5000E61EC18F0050E3A
:102F800081EC18F00AEC19F012000B0E0301196F16
:102F9000DC0E186F790E1B6F1951436E1851256E98
:102FA00043C526F5020E4C6E320E4D6E000E4E6E6F
:102FB000B19EA18E900E1A6F1200555056105710E8
:102FC000D8B4E5EF17F0E7EF17F0F4EF17F002D8F9
:102FD000F4EF17F00500FA6E5550FD6E5650FE6E78
:102FE0005750FF6EFA5012001200525053105410F6
:102FF000D8B4FDEF17F0FFEF17F00CEF18F002D880
:103000000CEF18F00500FA6E5250FD6E5350FE6E34
:103010005450FF6EFA50120012004F5050105110D1
:10302000D8B415EF18F017EF18F024EF18F002D805
:1030300024EF18F00500FA6E4F50FD6E5050FE6EF2
:103040005150FF6EFA5012001200436E0001878546
:1030500086510309866F836B010E826F43C581F031
:10306000B1A035EF18F037EF18F030EF18F080C04E
:1030700044F544501200476E47C5ECF30301F39D3D
:10308000F381F3B146EF18F048EF18F041EF18F074
:10309000EB51456EEA51436E45C544F512000301FC
:1030A000F36BF86B3F0EFA6FF351F30B0409F36FF8
:1030B000F38F1E0E3BEC18F043C507F544C508F529
:1030C0001200466E46502009476E45C548F508EC8B
:1030D00019F0475025EC18F0485025EC18F006EC94
:1030E00019F01200C0EC18F0F0EC15F01DEC17F020
:1030F000C5EC17F0F8EC18F08FEC18F07AEC16F03D
:103100001200456E08EC19F0455025EC18F0FF0E42
:1031100025EC18F0466E06EC19F046501200A1940A
:10312000A192A1900001846B040E856F866B896B60
:063130008C6B8785120084
:10313800FAC43BF5FBC43CF5AF90DDEC17F03CC599
:10314800FBF43BC5FAF41100FAC43DF5FBC43EF5A7
:10315800B490F5EC17F03EC5FBF43DC5FAF4110048
:10316800FAC43FF5FBC440F5B8900DEC18F040C523
:10317800FBF43FC5FAF41100600E0001AD6FAF6BB0
:10318800B36B080EB16FB06BAC6B1200456E08ECF8
:1031980019F0455025EC18F006EC19F01200E80378
:1031A800BC022C01D007DC05F401E7E7E7E7E7E715
:1031B800E7E7E7E7C2C2C2C2C2E7E7E7E7E743C516
:1031C8004FF544C550F545C551F5120043C552F5B4
:1031D80044C553F545C554F5120043C555F544C5D6
:1031E80056F545C557F51200010E00013A6F900ECD
:1031F800396F120003011A8F1200010E286E120097
:10320800A18E1200BF841200BF941200BF82120068
:0C321800BF921200110012001200120000
:020000040030CA
:080000008FFFFFFF9FFFFFFFD0
:01000900FFF7
:00000001FF
