:0400000081EF00F09C
:100008004C0D4C0D4C0D4C0D40004C0D40004C0D52
:10001800030D4C0D950C4C0D4C0D4C0D4C0D4C0D11
:100028004B0D4000400040004C0D4C0D4C0D4C0D4C
:100038004C0D4C0D4C0D4C0D4C0D4C0D4C0D6E0CCF
:100048004C0D4C0D4C0D4C0D400040004C0D4C0D12
:100058004C0D4C0D4C0D40004C0D4C0D4C0D4C0DE9
:10006800090D4C0D4C0D4C0D4C0D4C0D4C0D4C0D03
:100078004C0D4C0D4C0D4C0D40004C0D4C0D4C0DC9
:100088004C0D4C0D4C0D4C0D4C0D4C0D4C0D4C0DA0
:100098004C0D4C0D4C0D4C0D40004C0D40004000DB
:1000A8000F0D4C0D4C0D4C0D4C0D4C0D4C0D4C0DBD
:1000B8004C0D4C0D4C0D4C0D4C0D4C0D4C0D4C0D70
:1000C8004C0D4C0D4C0D4C0D4C0D4C0D4C0D4C0D60
:1000D8004C0D4C0D4C0D4C0D4C0D4C0D4C0D4C0D50
:1000E80040004C0D4C0D4C0D4000400040004000BD
:0E00F8004C0D4C0D4C0D4C0DFF0015EF18F08B
:1026000000F43300000000AC2C00000000000000CB
:102610000000000000005C3300000000000000002B
:10262000000000000000000000000002C000FF00E9
:1026300002C000FF000009500A10D8B422EF13F0C6
:1026400024EF13F028EF13F0050165692AEF13F06A
:102650000501656B0B500C10D8B431EF13F033EF5C
:1026600013F036EF13F0646937EF13F0646B195011
:10267000115C236E1A501258246E24BE49EF13F0D9
:10268000D10E235C070E2458D8A049EF13F04BEF6E
:1026900013F04EEF13F06169A9EF13F024BE5AEF67
:1026A00013F0DD0E235C050E2458D8A05AEF13F06A
:1026B0005CEF13F060EF13F0E00E616FA9EF13F021
:1026C00024BE6CEF13F0F50E235C010E2458D8A045
:1026D0006CEF13F06EEF13F072EF13F0C00E616F3A
:1026E000A9EF13F024AE7EEF13F0300E235CF80E4A
:1026F0002458D8B07EEF13F080EF13F083EF13F07F
:10270000616BA9EF13F024AE8FEF13F0240E235C5E
:10271000FA0E2458D8B08FEF13F091EF13F095EF25
:1027200013F0200E616FA9EF13F024AEA1EF13F0A8
:102730000C0E235CFE0E2458D8B0A1EF13F0A3EFCB
:1027400013F0A7EF13F0400E616FA9EF13F0800EA6
:10275000616F1B50135C216E1C501458226E22BEF8
:10276000BBEF13F0E90E215C030E2258D8A0BBEF9B
:1027700013F0BDEF13F0C0EF13F060691BEF14F01E
:1027800022BECCEF13F0BD0E215C020E2258D8A061
:10279000CCEF13F0CEEF13F0D2EF13F0E00E606F3A
:1027A0001BEF14F022BEDEEF13F02D0E215C010EA4
:1027B0002258D8A0DEEF13F0E0EF13F0E4EF13F0AF
:1027C000C00E606F1BEF14F022AEF0EF13F0180E86
:1027D000215CFC0E2258D8B0F0EF13F0F2EF13F0AA
:1027E000F5EF13F0606B1BEF14F022AE01EF14F065
:1027F000440E215CFD0E2258D8B001EF14F003EF17
:1028000014F007EF14F0200E606F1BEF14F022AEEF
:1028100013EF14F0D40E215CFE0E2258D8B013EF43
:1028200014F015EF14F019EF14F0400E606F1BEF69
:1028300014F0800E606F15500D5C1D6E16500E5812
:102840001E6E1EBE2DEF14F0D10E1D5C070E1E581D
:10285000D8A02DEF14F02FEF14F032EF14F06369CD
:102860008DEF14F01EBE3EEF14F0DD0E1D5C050E64
:102870001E58D8A03EEF14F040EF14F044EF14F0CF
:10288000E00E636F8DEF14F01EBE50EF14F0F50EE6
:102890001D5C010E1E58D8A050EF14F052EF14F03A
:1028A00056EF14F0C00E636F8DEF14F01EAE62EFA2
:1028B00014F0300E1D5CF80E1E58D8B062EF14F004
:1028C00064EF14F067EF14F0636B8DEF14F01EAE3D
:1028D00073EF14F0240E1D5CFA0E1E58D8B073EF7F
:1028E00014F075EF14F079EF14F0200E636F8DEF94
:1028F00014F01EAE85EF14F00C0E1D5CFE0E1E587B
:10290000D8B085EF14F087EF14F08BEF14F0400E81
:10291000636F8DEF14F0800E636F17500F5C1F6EA6
:1029200018501058206E20BE9FEF14F0E90E1F5C67
:10293000030E2058D8A09FEF14F0A1EF14F0A4EFDD
:1029400014F06269FFEF14F020BEB0EF14F0BD0E7A
:102950001F5C020E2058D8A0B0EF14F0B2EF14F0B4
:10296000B6EF14F0E00E626FFFEF14F020BEC2EF7E
:1029700014F02D0E1F5C010E2058D8A0C2EF14F0E9
:10298000C4EF14F0C8EF14F0C00E626FFFEF14F044
:1029900020AED4EF14F0180E1F5CFC0E2058D8B0F7
:1029A000D4EF14F0D6EF14F0D9EF14F0626BFFEF10
:1029B00014F020AEE5EF14F0440E1F5CFD0E20581D
:1029C000D8B0E5EF14F0E7EF14F0EBEF14F0200EC1
:1029D000626FFFEF14F020AEF7EF14F0D40E1F5C1F
:1029E000FE0E2058D8B0F7EF14F0F9EF14F0FDEF19
:1029F00014F0400E626FFFEF14F0800E626F120051
:102A0000EBEC19F0D68EC890C080FAEC19F0000EED
:102A100056EC16F0C792BF82C794BF94CB90C38088
:102A2000CB96CB94C78004010981CB8829994BECC4
:102A300018F08F0E05019D6F050E9E6F7A0E9F6F29
:102A400003EC19F02AEC1AF0920E3F6E340E406E31
:102A5000000E416E78EC1AF02D50D8A432EF15F02C
:102A600034EF15F044EF15F02E50D8A43AEF15F0DE
:102A70003CEF15F044EF15F025C540F526C541F5AE
:102A8000DAEC17F0010E2D6E2E50D8B44AEF15F087
:102A90004CEF15F064EF15F02C50D8A452EF15F060
:102AA00054EF15F064EF15F02B50D8A45AEF15F041
:102AB0005CEF15F064EF15F025C540F526C541F52E
:102AC000BBEC16F0010E2B6E3250D8B46AEF15F045
:102AD0006CEF15F040EF16F02D50D8B472EF15F0F2
:102AE00074EF15F0C4EF15F025502610D8A47BEF35
:102AF00015F07DEF15F087EF15F0254A262A27C53A
:102B00001BF528C51CF52D6A326AC4EF15F02504A3
:102B10002610D8A48EEF15F090EF15F098EF15F071
:102B2000254A262A27C519F528C51AF583EF15F079
:102B3000020E25182610D8A4A0EF15F0A2EF15F06C
:102B4000AAEF15F0254A262A27C517F528C518F536
:102B500083EF15F0030E25182610D8A4B2EF15F058
:102B6000B4EF15F0C4EF15F0254A262A27C515F550
:102B700028C516F52D6A010E2E6E326A000E266EDD
:102B8000000E256EC4EF15F02B50D8B4CAEF15F027
:102B9000CCEF15F040EF16F025502610D8A4D3EF57
:102BA00015F0D5EF15F0DFEF15F0254A262A27C5D9
:102BB00013F528C514F52B6A326A40EF16F0250488
:102BC0002610D8A4E6EF15F0E8EF15F0F0EF15F0B9
:102BD000254A262A27C511F528C512F5DBEF15F081
:102BE000020E25182610D8A4F8EF15F0FAEF15F00C
:102BF00002EF16F0254A262A27C50FF528C510F53D
:102C0000DBEF15F0030E25182610D8A40AEF16F0F6
:102C10000CEF16F014EF16F0254A262A27C50DF5FD
:102C200028C50EF5DBEF15F0040E25182610D8A4E4
:102C30001CEF16F01EEF16F026EF16F0254A262A96
:102C400027C50BF528C50CF5DBEF15F0050E25188B
:102C50002610D8A42EEF16F030EF16F040EF16F045
:102C6000254A262A27C509F528C50AF52B6A010E2B
:102C70002C6E326A000E266E000E256E40EF16F0A6
:102C80002C50D8B446EF16F048EF16F02CEF15F0A4
:102C90001BEC13F02C6A600E0501966F050E976F02
:102CA00060EC17F02CEF15F081EF00F0416E0001A1
:102CB00084BF5DEF16F05FEF16F0BAEF16F04150EB
:102CC000050DF3502B0F3F6E3FC5F6F4260EF76E41
:102CD000000EF86E0800F5C484F04150050DF3C4F1
:102CE0003FF5010E3F263F502B0F406E40C5F6F4D6
:102CF000260EF76E000EF86E0800F5C485F0415000
:102D0000050DF3C43FF5020E3F263F502B0F406EDA
:102D100040C5F6F4260EF76E000EF86E0800F5506A
:102D2000FC0B866F4150050DF3C43FF5030E3F26A3
:102D30003F502B0F406E40C5F6F4260EF76E000E86
:102D4000F86E0800F5C489F04150050DF3C43FF555
:102D5000040E3F263F502B0F406E40C5F6F4260E62
:102D6000F76E000EF86E0800F5C48CF0C896848FDC
:102D7000BAEF16F0120040504110D8A4C2EF16F07E
:102D8000C4EF16F0C9EF16F01B0E5CEC1AF013EF4F
:102D900017F040044110D8A4D0EF16F0D2EF16F08F
:102DA000D7EF16F01A0E5CEC1AF013EF17F0020EC4
:102DB00040184110D8A4DFEF16F0E1EF16F0E6EF6F
:102DC00016F01E0E5CEC1AF013EF17F0030E40180D
:102DD0004110D8A4EEEF16F0F0EF16F0F5EF16F074
:102DE0001D0E5CEC1AF013EF17F0040E40184110A2
:102DF000D8A4FDEF16F0FFEF16F004EF17F01C0E4D
:102E00005CEC1AF013EF17F0050E40184110D8A42F
:102E10000CEF17F00EEF17F013EF17F0190E5CEC34
:102E20001AF013EF17F01200BE6ABF6AC06AC16AD7
:102E3000C26AC36A0401026B0A6B126B1A6B226BC3
:102E40002A6BC668C768DF0EC86EC9680F0ECA6EE7
:102E5000CB6800690869C70E106F1869070E206FEC
:102E60002869016B096B116B196B216B296B036965
:102E70000B6913691B69070E236F2B6904690C69C1
:102E800014691C690F0E246F2C690201896B886B11
:102E9000876B866B140E6B6F320E166F130E6A6F94
:102EA000310E146F0401056B066B076B0D6B0E6B17
:102EB0000F6B156B166B176B256B266B276B120050
:102EC00090EC1AF0A00EAEEC19F0000E05019A6F0E
:102ED000000E996F99519625D96E9A519721DA6E05
:102EE000DF50AEEC19F00501994B9A2B9ABF82EF97
:102EF00017F09A5109E1200E995DD8A082EF17F0E2
:102F000084EF17F06AEF17F08EEC1AF0170ED9EC79
:102F100019F00501986F98A990EF17F092EF17F04C
:102F20009CEF17F098B797EF17F099EF17F09CEF19
:102F300017F0E10E53EC1AF01200D68A000ED6BE3E
:102F4000010E0501946FD69E550E0401596FAA0E0D
:102F5000596F59915F6B5E6B080E5D6F550E596F1F
:102F6000AA0E596F5981050194B102D0D69E01D0A5
:102F7000D68E0301658FAF90D680320E3F6E350E30
:102F8000406E000E416E71EC1AF0B490D682340E91
:102F90003F6E350E406E000E416E6AEC1AF0B8902E
:102FA000D684360E3F6E350E406E000E416E63ECD9
:102FB0001AF0120040504110D8A4E1EF17F0E3EFEF
:102FC00017F0E8EF17F01B0E5CEC1AF014EF18F096
:102FD00040044110D8A4EFEF17F0F1EF17F0F6EF2F
:102FE00017F01A0E5CEC1AF014EF18F0020E4018ED
:102FF0004110D8A4FEEF17F000EF18F005EF18F01D
:103000001E0E5CEC1AF014EF18F0030E401841107D
:10301000D8A40DEF18F00FEF18F014EF18F01D0EF4
:103020005CEC1AF014EF18F012006A0EF66E340E13
:10303000F76E000EF86E01EE80F110EE14F009004C
:10304000F5C4EEF4E550E150FAE1FE0EF66E340EF2
:10305000F76E000EF86E01EE42F110EE0CF0090072
:10306000F5C4EEF4E550E150FAE101EE60F1200E16
:10307000EE6AE806FDE101EE01F1320EEE6AE806C5
:10308000FDE10401080E5D6F000E5E6F000E5F6FC4
:10309000000100EF15F094EC1AF0000E416E000EE6
:1030A000C4EC19F0050ED9EC19F00501976F9729BA
:1030B000976F000E416E010EC4EC19F0000ED9ECB2
:1030C00019F00501976F000E416E020EC4EC19F065
:1030D000030E416E030EC4EC19F0000E416E040E97
:1030E000C4EC19F0000E416E050EC4EC19F00E0E82
:1030F000416E060EC4EC19F092EC1AF012000301B6
:10310000F39FD96BDA6BDB6BDC6BDF6BE06BE56B32
:10311000E76B1D0EEC6FEE6BEF6BD86BF06BF16B2A
:10312000F26BF46B180EF56F100EF66FF76BF86B11
:103130001F0EFA6FF96B000E046E000E056E000E86
:10314000066E000E016E000E026E000E036E316AF6
:10315000AF949F84B090A090840EF36F120005018D
:103160009A6F05019A512009986F90EC1AF00501A9
:103170009851AEEC19F0000E05019C6F000E9B6F8C
:10318000CEEF18F09B519425D96E9C519521DA6EA3
:10319000DF50AEEC19F005019B4B9C2B96519B5DCB
:1031A00097519C59D8A0D7EF18F0D9EF18F0C2EF7B
:1031B00018F08EEC1AF01200FAC43DF5FBC43EF58F
:1031C0002A500301196F29C518F30501A151A21155
:1031D000A311D8B4EEEF18F0F0EF18F0FDEF18F0EF
:1031E00002D8FDEF18F00500FA6EA151FD6EA25154
:1031F000FE6EA351FF6EFA501200B19E3EC5FBF465
:103200003DC5FAF4110094EC1AF09FC541F5050E86
:10321000C4EC19F09DC594F59EC595F5000E050109
:10322000976F050E966F100EAFEC18F0000ED9ECEC
:1032300019F00501A06FA0510209A06FA0C541F5CA
:10324000000EC4EC19F0050ED9EC19F092EC1AF04E
:0232500012006A
:10325400FAC435F5FBC436F5AF94045005100610D6
:10326400D8B437EF19F039EF19F046EF19F002D856
:1032740046EF19F00500FA6E0450FD6E0550FE6E1F
:103284000650FF6EFA50120036C5FBF435C5FAF449
:1032940011000B0E0301196FDC0E186F790E1B6FF2
:1032A40019513F6E1851296E3FC52AF5160E0501B6
:1032B400A16F350EA26F000EA36FB19EA18E900E6A
:1032C40003011A6F12000501A451A511A611D8B467
:1032D4006EEF19F070EF19F07DEF19F002D87DEF61
:1032E40019F00500FA6EA451FD6EA551FE6EA651AB
:1032F400FF6EFA5012001200515052105310D8B4FD
:1033040086EF19F088EF19F095EF19F002D895EFD0
:1033140019F00500FA6E5150FD6E5250FE6E535076
:10332400FF6EFA50120012004E504F105010D8B4D5
:103334009EEF19F0A0EF19F0ADEF19F002D8ADEF40
:1033440019F00500FA6E4E50FD6E4F50FE6E50504F
:10335400FF6EFA50120012003F6E000187858651FD
:103364000309866F836B010E826F3FC581F0B1A0A4
:10337400BEEF19F0C0EF19F0B9EF19F080C040F5B5
:10338400405012000501946F050194512009956F76
:1033940041C596F590EC1AF005019551AEEC19F083
:1033A40005019651AEEC19F08EEC1AF012000501ED
:1033B400946F90EC1AF005019451AEEC19F0FF0EE5
:1033C400AEEC19F00501956F8EEC1AF005019551DC
:1033D40012003FEC1AF014EC17F07FEC18F04BECF1
:1033E40019F085EC1AF0FAEC19F09DEC17F01200C4
:1033F400A194A192A1900001846B040E856F866B49
:10340400896B8C6B87851200FAC437F5FBC438F5D9
:10341400AF907EEC19F038C5FBF437C5FAF411000F
:10342400FAC439F5FBC43AF5B49096EC19F03AC5F0
:10343400FBF439C5FAF41100FAC43BF5FBC43CF5BE
:10344400B89065EC19F03CC5FBF43BC5FAF41100E7
:103454000301F36BF86B3F0EFA6FF351F30B04099E
:10346400F36FF38F1200E7E7E7E7E7C2C2C2C2C215
:10347400E7E7E7E7E7E7E7E7E7E7600E0001AD6FB7
:10348400AF6BB36B080EB16FB06BAC6B1200030182
:10349400EB51336EEA51276E33C528F5010E326EB7
:1034A4001200416E90EC1AF04150AEEC19F08EEC23
:1034B4001AF012003F6E3FC5ECF30301F39DF38154
:1034C40012003FC5A4F540C5A5F541C5A6F51200F7
:1034D4003FC54EF540C54FF541C550F512003FC5F7
:1034E40051F540C552F541C553F512003FC504F5E9
:1034F40040C505F541C506F51200E803BC022C01E0
:10350400D007DC05F401010E00013A6F900E396F0B
:103514001200010E306E1200BF841200BF9412001C
:10352400BF821200BF921200B0901100110012006D
:04353400120012006F
:020000040030CA
:080000008FFFFFFF9FFFFFFFD0
:01000900FFF7
:00000001FF
