:0400000081EF00F09C
:100008003D0D3D0D3D0D3D0D40003D0D40003D0DAC
:10001800F10C3D0D860C3D0D3D0D3D0D3D0D3D0D8D
:100028003C0D4000400040003D0D3D0D3D0D3D0D97
:100038003D0D3D0D3D0D3D0D3D0D3D0D3D0D600C46
:100048003D0D3D0D3D0D3D0D400040003D0D3D0D6C
:100058003D0D3D0D3D0D40003D0D3D0D3D0D3D0D52
:10006800F70C3D0D3D0D3D0D3D0D3D0D3D0D3D0D7F
:100078003D0D3D0D3D0D3D0D40003D0D3D0D3D0D32
:100088003D0D3D0D3D0D3D0D3D0D3D0D3D0D3D0D18
:100098003D0D3D0D3D0D3D0D40003D0D4000400026
:1000A800FD0C3D0D3D0D3D0D3D0D3D0D3D0D3D0D39
:1000B8003D0D3D0D3D0D3D0D3D0D3D0D3D0D3D0DE8
:1000C8003D0D3D0D3D0D3D0D3D0D3D0D3D0D3D0DD8
:1000D8003D0D3D0D3D0D3D0D3D0D3D0D3D0D3D0DC8
:1000E80040003D0D3D0D3D0D4000400040004000EA
:0E00F8003D0D3D0D3D0D3D0DFF00F8EF17F0E5
:1026000000AA3300000000762C000000000000004B
:102610000000000000002233000000000000000065
:10262000000000000000000000000002C000FF00E9
:1026300002C000FF000009500A10D8B422EF13F0C6
:1026400024EF13F028EF13F0050165692AEF13F06A
:102650000501656B0B500C10D8B431EF13F033EF5C
:1026600013F036EF13F0646937EF13F0646B195011
:10267000115C236E1A501258246E24BE49EF13F0D9
:10268000D10E235C070E2458D8A049EF13F04BEF6E
:1026900013F04EEF13F06169A9EF13F024BE5AEF67
:1026A00013F0DD0E235C050E2458D8A05AEF13F06A
:1026B0005CEF13F060EF13F0E00E616FA9EF13F021
:1026C00024BE6CEF13F0F50E235C010E2458D8A045
:1026D0006CEF13F06EEF13F072EF13F0C00E616F3A
:1026E000A9EF13F024AE7EEF13F0300E235CF80E4A
:1026F0002458D8B07EEF13F080EF13F083EF13F07F
:10270000616BA9EF13F024AE8FEF13F0240E235C5E
:10271000FA0E2458D8B08FEF13F091EF13F095EF25
:1027200013F0200E616FA9EF13F024AEA1EF13F0A8
:102730000C0E235CFE0E2458D8B0A1EF13F0A3EFCB
:1027400013F0A7EF13F0400E616FA9EF13F0800EA6
:10275000616F1B50135C216E1C501458226E22BEF8
:10276000BBEF13F0E90E215C030E2258D8A0BBEF9B
:1027700013F0BDEF13F0C0EF13F060691BEF14F01E
:1027800022BECCEF13F0BD0E215C020E2258D8A061
:10279000CCEF13F0CEEF13F0D2EF13F0E00E606F3A
:1027A0001BEF14F022BEDEEF13F02D0E215C010EA4
:1027B0002258D8A0DEEF13F0E0EF13F0E4EF13F0AF
:1027C000C00E606F1BEF14F022AEF0EF13F0180E86
:1027D000215CFC0E2258D8B0F0EF13F0F2EF13F0AA
:1027E000F5EF13F0606B1BEF14F022AE01EF14F065
:1027F000440E215CFD0E2258D8B001EF14F003EF17
:1028000014F007EF14F0200E606F1BEF14F022AEEF
:1028100013EF14F0D40E215CFE0E2258D8B013EF43
:1028200014F015EF14F019EF14F0400E606F1BEF69
:1028300014F0800E606F15500D5C1D6E16500E5812
:102840001E6E1EBE2DEF14F0D10E1D5C070E1E581D
:10285000D8A02DEF14F02FEF14F032EF14F06369CD
:102860008DEF14F01EBE3EEF14F0DD0E1D5C050E64
:102870001E58D8A03EEF14F040EF14F044EF14F0CF
:10288000E00E636F8DEF14F01EBE50EF14F0F50EE6
:102890001D5C010E1E58D8A050EF14F052EF14F03A
:1028A00056EF14F0C00E636F8DEF14F01EAE62EFA2
:1028B00014F0300E1D5CF80E1E58D8B062EF14F004
:1028C00064EF14F067EF14F0636B8DEF14F01EAE3D
:1028D00073EF14F0240E1D5CFA0E1E58D8B073EF7F
:1028E00014F075EF14F079EF14F0200E636F8DEF94
:1028F00014F01EAE85EF14F00C0E1D5CFE0E1E587B
:10290000D8B085EF14F087EF14F08BEF14F0400E81
:10291000636F8DEF14F0800E636F17500F5C1F6EA6
:1029200018501058206E20BE9FEF14F0E90E1F5C67
:10293000030E2058D8A09FEF14F0A1EF14F0A4EFDD
:1029400014F06269FFEF14F020BEB0EF14F0BD0E7A
:102950001F5C020E2058D8A0B0EF14F0B2EF14F0B4
:10296000B6EF14F0E00E626FFFEF14F020BEC2EF7E
:1029700014F02D0E1F5C010E2058D8A0C2EF14F0E9
:10298000C4EF14F0C8EF14F0C00E626FFFEF14F044
:1029900020AED4EF14F0180E1F5CFC0E2058D8B0F7
:1029A000D4EF14F0D6EF14F0D9EF14F0626BFFEF10
:1029B00014F020AEE5EF14F0440E1F5CFD0E20581D
:1029C000D8B0E5EF14F0E7EF14F0EBEF14F0200EC1
:1029D000626FFFEF14F020AEF7EF14F0D40E1F5C1F
:1029E000FE0E2058D8B0F7EF14F0F9EF14F0FDEF19
:1029F00014F0400E626FFFEF14F0800E626F120051
:102A0000B8EC19F0D68EC890C08067EC1AF06DEC67
:102A10001AF0D5EC19F0000E3BEC16F0C792BF820D
:102A2000C794BF94CB90C380CB96CB94C78004014E
:102A30000981CB8829992EEC18F08F0E0501996F2A
:102A4000050E9A6F7A0E9B6FE7EC18F006EC1AF001
:102A50004A0E3F6E340E406E000E416E54EC1AF07A
:102A60003050D8B436EF15F038EF15F073EF15F09D
:102A7000306A2D50D8A43FEF15F041EF15F053EF19
:102A800015F02E50D8A447EF15F049EF15F053EF8D
:102A900015F025C540F526C541F582EC17F0010E6D
:102AA0002D6E73EF15F02E50D8B459EF15F05BEF83
:102AB00015F073EF15F02B50D8A461EF15F063EF0C
:102AC00015F073EF15F02C50D8A469EF15F06BEFEB
:102AD00015F073EF15F025C540F526C541F5A0ECBE
:102AE00016F0010E2B6E3250D8B479EF15F07BEF53
:102AF00015F026EF16F0326A2D50D8B482EF15F09B
:102B000084EF15F0C8EF15F0A6EF15F027C51BF5FB
:102B100028C51CF5254A262AC5EF15F027C519F545
:102B200028C51AF58AEF15F027C517F528C518F539
:102B30008AEF15F027C515F528C516F5010E2E6E7E
:102B4000000E266E000E256EC5EF15F025C59DF50D
:102B500026C59EF505019E51000AD8B4B2EF15F0C6
:102B6000C5EF15F09D51000AD8B486EF15F0010AA3
:102B7000D8B48EEF15F0030AD8B494EF15F0010A1B
:102B8000D8B49AEF15F0C5EF15F02D6A26EF16F0C0
:102B90002B50D8B4CEEF15F0D0EF15F026EF16F08D
:102BA000FEEF15F027C513F528C514F5254A262A8A
:102BB00025EF16F027C511F528C512F5D6EF15F04B
:102BC00027C50FF528C510F5D6EF15F027C50DF56B
:102BD00028C50EF5D6EF15F027C50BF528C50CF561
:102BE000D6EF15F027C509F528C50AF5010E2C6E9C
:102BF000000E266E000E256E25EF16F025C59DF5FC
:102C000026C59EF505019E51000AD8B40AEF16F0BC
:102C100025EF16F09D51000AD8B4D2EF15F0010A45
:102C2000D8B4DAEF15F0030AD8B4E0EF15F0010AD2
:102C3000D8B4E6EF15F0070AD8B4ECEF15F0010AA6
:102C4000D8B4F2EF15F025EF16F02B6A2C50D8B45B
:102C50002CEF16F02EEF16F030EF15F02C6A1BEC6F
:102C600013F0600E436E050E446E45EC17F030EF26
:102C700015F081EF00F0416E000184BF42EF16F0C5
:102C800044EF16F09FEF16F04150050DF3502B0F57
:102C90003F6E3FC5F6F4260EF76E000EF86E080084
:102CA000F5C484F04150050DF3C43FF5010E3F26F5
:102CB0003F502B0F406E40C5F6F4260EF76E000E07
:102CC000F86E0800F5C485F04150050DF3C43FF5DA
:102CD000020E3F263F502B0F406E40C5F6F4260EE5
:102CE000F76E000EF86E0800F550FC0B866F415031
:102CF000050DF3C43FF5030E3F263F502B0F406EEA
:102D000040C5F6F4260EF76E000EF86E0800F5C406
:102D100089F04150050DF3C43FF5040E3F263F50A6
:102D20002B0F406E40C5F6F4260EF76E000EF86EBF
:102D30000800F5C48CF0C896848F9FEF16F012003F
:102D400040504110D8A4A7EF16F0A9EF16F0AEEF4F
:102D500016F01B0E38EC1AF0F8EF16F04004411094
:102D6000D8A4B5EF16F0B7EF16F0BCEF16F01A0EB8
:102D700038EC1AF0F8EF16F0020E40184110D8A403
:102D8000C4EF16F0C6EF16F0CBEF16F01E0E38ECBF
:102D90001AF0F8EF16F0030E40184110D8A4D3EF44
:102DA00016F0D5EF16F0DAEF16F01D0E38EC1AF02B
:102DB000F8EF16F0040E40184110D8A4E2EF16F018
:102DC000E4EF16F0E9EF16F01C0E38EC1AF0F8EF0D
:102DD00016F0050E40184110D8A4F1EF16F0F3EFED
:102DE00016F0F8EF16F0190E38EC1AF0F8EF16F0AE
:102DF0001200BE6ABF6AC06AC16AC26AC36A0401BD
:102E0000026B0A6B126B1A6B226B2A6BC668C7685F
:102E1000DF0EC86EC9680F0ECA6ECB6800690869FC
:102E2000C70E106F1869070E206F2869016B096BB8
:102E3000116B196B216B296B03690B6913691B6992
:102E4000070E236F2B6904690C6914691C690F0E46
:102E5000246F2C690201896B886B876B866B140E5B
:102E60006B6F320E166F130E6A6F310E146F040102
:102E7000056B066B076B0D6B0E6B0F6B156B166B93
:102E8000176B256B266B276B120071EC1AF0A00EE6
:102E900091EC19F0000E0501966F000E956F95519B
:102EA0004324D96E96514420DA6EDF5091EC19F02C
:102EB0000501954B962B96BF67EF17F0965109E1E8
:102EC000200E955DD8A067EF17F069EF17F04FEF70
:102ED00017F06FEC1AF0170EC7EC19F00501946F9C
:102EE00094A975EF17F077EF17F081EF17F094B70B
:102EF0007CEF17F07EEF17F081EF17F0E10E2FEC6B
:102F00001AF0120040504110D8A489EF17F08BEF4F
:102F100017F090EF17F01B0E38EC1AF0BCEF17F01B
:102F200040044110D8A497EF17F099EF17F09EEFE7
:102F300017F01A0E38EC1AF0BCEF17F0020E40181A
:102F40004110D8A4A6EF17F0A8EF17F0ADEF17F0D7
:102F50001E0E38EC1AF0BCEF17F0030E40184110AB
:102F6000D8A4B5EF17F0B7EF17F0BCEF17F01D0EB0
:102F700038EC1AF0BCEF17F01200D68A000ED6BE5D
:102F8000010E426ED69E550E0401596FAA0E596F5E
:102F900059915F6B5E6B080E5D6F550E596FAA0EEF
:102FA000596F598142B002D0D69E01D0D68E03010E
:102FB000658FAF90D680F60E3F6E340E406E000ED9
:102FC000416E4DEC1AF0B490D682F80E3F6E340E7E
:102FD000406E000E416E46EC1AF0B890D684FA0EA0
:102FE0003F6E340E406E000E416E3FEC1AF0120040
:102FF000220EF66E340EF76E000EF86E01EE80F1C2
:1030000010EE14F00900F5C4EEF4E550E150FAE1D9
:10301000B60EF66E340EF76E000EF86E01EE45F148
:1030200010EE0CF00900F5C4EEF4E550E150FAE1C1
:1030300001EE60F1200EEE6AE806FDE101EE01F11D
:10304000320EEE6AE806FDE10401080E5D6F000E27
:103050005E6F000E5F6F000100EF15F075EC1AF067
:10306000000E416E000EA7EC19F0050EC7EC19F02A
:103070000501946F9429946F000E416E010EA7EC28
:1030800019F0000EC7EC19F00501946F000E416EA7
:10309000020EA7EC19F0030E416E030EA7EC19F017
:1030A000000E416E040EA7EC19F0000E416E050EE5
:1030B000A7EC19F00E0E416E060EA7EC19F073EC9A
:1030C0001AF012000301F39FD96BDA6BDB6BDC6B38
:1030D000DF6BE06BE56BE76B1D0EEC6FEE6BEF6B80
:1030E000D86BF06BF16BF26BF46B180EF56F100E82
:1030F000F66FF76BF86B1F0EFA6FF96B000E046E2C
:10310000000E056E000E066E000E016E000E026EC1
:10311000000E036E316AAF949F84B090A090840E2D
:10312000F36F12000501966F050196512009946F07
:1031300071EC1AF00501945191EC19F0000E0501A3
:10314000986F000E976FB1EF18F097514124D96E28
:1031500098514220DA6EDF5091EC19F00501974B3F
:10316000982B4350975D44509859D8A0BAEF18F067
:0E317000BCEF18F0A5EF18F06FEC1AF012008B
:10318000FAC43DF5FBC43EF52A500301196F29C569
:1031900018F305019F51A011A111D8B4D2EF18F076
:1031A000D4EF18F0E1EF18F002D8E1EF18F00500C5
:1031B000FA6E9F51FD6EA051FE6EA151FF6EFA5046
:1031C0001200B19E3EC5FBF43DC5FAF4110075EC4A
:1031D0001AF09BC541F5050EA7EC19F099C541F50C
:1031E0009AC542F5000E446E050E436E100E92EC29
:1031F00018F0000EC7EC19F005019C6F9C510209F4
:103200009C6F9CC541F5000EA7EC19F0050EC7ECAC
:1032100019F073EC1AF01200FAC435F5FBC436F558
:10322000AF94045005100610D8B419EF19F01BEF35
:1032300019F028EF19F002D828EF19F00500FA6EFE
:103240000450FD6E0550FE6E0650FF6EFA501200DF
:1032500036C5FBF435C5FAF411000B0E0301196FE6
:10326000DC0E186F790E1B6F19513F6E1851296EC5
:103270003FC52AF5D40E05019F6F340EA06F000ED6
:10328000A16FB19EA18E900E03011A6F120005016D
:10329000A551A611A711D8B450EF19F052EF19F0AB
:1032A0005FEF19F002D85FEF19F00500FA6EA55133
:1032B000FD6EA651FE6EA751FF6EFA50120012006D
:1032C0000501A251A311A411D8B469EF19F06BEF55
:1032D00019F078EF19F002D878EF19F00500FA6EBE
:1032E000A251FD6EA351FE6EA451FF6EFA50120062
:1032F0001200515052105310D8B481EF19F083EFDF
:1033000019F090EF19F002D890EF19F00500FA6E5D
:103310005150FD6E5250FE6E5350FF6EFA50120027
:1033200012003F6E0001878586510309866F836B0B
:10333000010E826F3FC581F0B1A0A1EF19F0A3EF9C
:1033400019F09CEF19F080C040F540501200426E19
:1033500042502009436E41C544F571EC1AF04350C8
:1033600091EC19F0445091EC19F06FEC1AF0120046
:103370001BEC1AF0F9EC16F062EC18F02DEC19F0D9
:1033800061EC1AF0D5EC19F0BDEC17F01200416EAB
:1033900071EC1AF0415091EC19F0FF0E91EC19F01C
:1033A000426E6FEC1AF042501200A194A192A190CB
:1033B0000001846B040E856F866B896B8C6B87852F
:0233C0001200F9
:1033C400FAC437F5FBC438F5AF9079EC19F038C579
:1033D400FBF437C5FAF41100FAC439F5FBC43AF525
:1033E400B49047EC19F03AC5FBF439C5FAF411006E
:1033F400FAC43BF5FBC43CF5B89060EC19F03CC54D
:10340400FBF43BC5FAF411000301F36BF86B3F0EB8
:10341400FA6FF351F30B0409F36FF38F1200E7E72C
:10342400E7E7E7C2C2C2C2C2E7E7E7E7E7E7E7E7E1
:10343400E7E7600E0001AD6FAF6BB36B080EB16FC1
:10344400B06BAC6B12000301EB51336EEA51276E83
:1034540033C528F5010E326E1200416E71EC1AF07C
:10346400415091EC19F06FEC1AF012003F6E3FC519
:10347400ECF30301F39DF38112003FC5A2F540C5AF
:10348400A3F541C5A4F512003FC5A5F540C5A6F5B1
:1034940041C5A7F512003FC551F540C552F541C5D8
:1034A40053F512003FC504F540C505F541C506F5C1
:1034B4001200E803BC022C01D007DC05F401010E64
:1034C40000013A6F900E396F120003011A8F120037
:1034D400010E306E1200A18E1200BF841200BF9440
:0A34E4001200BF821200BF92120016
:0C34F000B0901100110012001200120038
:020000040030CA
:080000008FFFFFFF9FFFFFFFD0
:01000900FFF7
:00000001FF
