:0400000081EF00F09C
:10000800090B090B090B090B4000090B4000090BF0
:10001800D90A090B090B090B090B090B090B090B69
:10002800090B400040004000090B090B090B090BA4
:100038002C0AC2090B0B090B090B090B090B460A01
:10004800090B090B090B090B40004000090B090BB0
:10005800090B090B090B4000090B090B090B090BCC
:10006800DF0A090B090B090B090B090B090B090B13
:10007800090B090B090B090B4000090B090B090BAC
:10008800090B090B090B090B090B090B090B090BC8
:10009800090B090B090B090B4000090B4000400034
:1000A800E50A090B090B090B090B090B090B090BCD
:1000B800090B090B090B090B090B090B090B090B98
:1000C800090B090B090B090B090B090B090B090B88
:1000D800090B090B090B090B090B090B090B090B78
:1000E8004000090B090B090B40004000400040008C
:0E00F800090B090B090B090BFF0085EF15F032
:1026000000642900000000362600000000000000E1
:10261000000000000000000000BA2A00E22A008C3E
:102620002A00000000E42B00D62B00020000FF006F
:10263000024000000000216E000184BF22EF13F071
:1026400024EF13F082EF13F0810E2B6E2150050D55
:10265000F3502B0F1F6E1FC5F6F4260EF76E000EFB
:10266000F86E0800F5C484F02150050DF3C41FF581
:10267000010E1F261F502B0F206E20C5F6F4260ECC
:10268000F76E000EF86E0800F5C485F02150050DB8
:10269000F3C41FF5020E1F261F502B0F206E20C5FE
:1026A000F6F4260EF76E000EF86E0800F550FC0BDF
:1026B000866F2150050DF3C41FF5030E1F261F5012
:1026C0002B0F206E20C5F6F4260EF76E000EF86E66
:1026D0000800F5C489F02150050DF3C41FF5040E60
:1026E0001F261F502B0F206E20C5F6F4260EF76E06
:1026F000000EF86E0800F5C48CF0C896A184848F93
:0627000082EF13F012004D
:10270800FAC41AF5FBC41BF527502810D8B48FEF6C
:1027180013F091EF13F0A0EF13F023C5D9F424C5FB
:10272800DAF4DF500001816F234A242AFF0E2724A0
:10273800276EFF0E2820286E27502810D8A4A7EF50
:1027480013F0A9EF13F0CCEF13F0A19229502A103F
:10275800D8A4B1EF13F0B3EF13F0B5EF13F0810E77
:102768002B6E045005100610D8B4BDEF13F0BFEF60
:1027780013F0CCEF13F002D8CCEF13F00500FA6E8B
:102788000450FD6E0550FE6E0650FF6EFA501200A2
:102798001BC5FBF41AC5FAF41100BE6ABF6AC06A09
:1027A800C16AC26AC36A0401026B0A6B126B1A6BB4
:1027B800226B2A6BC668C768C868C9680F0ECA6EDC
:1027C800CB6800690869E70E106F1869070E206F5B
:1027D8002869016B096B116B196B216B296B0369F4
:1027E8000B6913691B69070E236F2B6904690C6950
:1027F80014691C690F0E246F2C690201896B886BA0
:10280800876B866B140E6B6F130E6A6F310E146F25
:102818000401056B066B076B0D6B0E6B0F6B156B6D
:10282800166B176B256B266B276B1200D68A000E6A
:10283800D6BE010E226ED69E550E0401596FAA0E01
:10284800596F59915F6B5E6B080E5D6F550E596F2E
:10285800AA0E596F598122B002D0D69E01D0D68EC9
:102868000301658165836585658FAF90D680260EE7
:102878001F6E2C0E206E000E216E07EC16F0B49021
:10288800D682280E1F6E2C0E206E000E216E00ECD4
:1028980016F0B890D6842A0E1F6E2C0E206E000EED
:1028A800216EF9EC15F0120029502A10D8B45FEF08
:1028B80014F061EF14F071EF14F025C5D9F426C5B2
:1028C800DAF480C0DFF4254A262AFF0E2924296E6F
:1028D800FF0E2A202A6E73EF14F000018051295050
:1028E8002A10D8A47AEF14F07CEF14F08AEF14F0D1
:1028F800A19027502810D8A484EF14F086EF14F084
:0E2908008AEF14F0810E2B6E8AEF14F011008E
:10291800FAC41DF5FBC41EF52D500301196F2CC513
:1029280018F3015002100310D8B49DEF14F09FEF74
:1029380014F0ACEF14F002D8ACEF14F00500FA6E06
:102948000150FD6E0250FE6E0350FF6EFA501200E9
:10295800B19E1EC5FBF41DC5FAF41100A194A19205
:10296800A1900001846B040E856F866B896B8C6B5C
:102978008785000E1F6E000E206E000E216EF2EC91
:1029880015F0000E1F6E000E206E000E216EEBEC8F
:1029980015F02B6A12000B0E0301196FDC0E186F6D
:1029A8007A0E1B6F19511F6E18512C6E1FC52DF50D
:1029B8002A0E016E2B0E026E000E036EB19EA18EC2
:1029C800900E1A6F1200105011101210D8B4EFEFB9
:1029D80014F0F1EF14F0FEEF14F002D8FEEF14F04B
:1029E8000500FA6E1050FD6E1150FE6E1250FF6E0B
:1029F800FA50120012000D500E100F10D8B407EF45
:102A080015F009EF15F016EF15F002D816EF15F0CE
:102A18000500FA6E0D50FD6E0E50FE6E0F50FF6EE3
:102A2800FA50120012000A500B100C10D8B41FEF05
:102A380015F021EF15F02EEF15F002D82EEF15F056
:102A48000500FA6E0A50FD6E0B50FE6E0C50FF6EBC
:102A5800FA5012001200D6EC15F0D68EB2EC14F033
:102A6800000E1BEC13F0480E1F6E2B0E206E000E8E
:102A7800216EEBEC15F00EEC16F0CF6842EF15F076
:102A880081EF00F0810E2B18D8A44DEF15F04FEF11
:102A980015F05AEF15F0B1A054EF15F056EF15F0F8
:102AA8005AEF15F0010E196E5BEF15F0196A1950FF
:102AB8001200810E2B18D8A464EF15F066EF15F0FC
:102AC8006EEF15F0000186510309866F80C019F575
:102AD8006FEF15F0196A195012001C6E810E2B1831
:102AE800D8A479EF15F07BEF15F084EF15F000010D
:102AF80086510309866F836B010E826F1CC581F0B6
:102B0800120001EE23F10E0EEE6AE806FDE1040163
:102B1800080E5D6F000E5E6F000E5F6F00012FEFF5
:102B280015F0200E3018D8A49CEF15F09EEF15F084
:102B38009FEF15F0306A302A305071EC15F0120012
:102B480046EC15F00009D8B4ACEF15F0AEEF15F06F
:102B5800B1EF15F05DEC15F02E6E1200FAC413F506
:102B6800FBC414F5AF90E7EC14F014C5FBF413C5DF
:102B7800FAF41100FAC415F5FBC416F5B490FFEC8D
:102B880014F016C5FBF415C5FAF41100FAC417F5CC
:102B9800FBC418F5B89017EC15F018C5FBF417C569
:102BA800FAF41100E1EC15F0D1EC13F0CFEC14F0CD
:102BB800B2EC14F01AEC14F01200600E0001AD6FC4
:102BC800AF6BB36B080EB16FB06BAC6B12001FC567
:102BD80004F520C505F521C506F512001FC507F542
:102BE80020C508F521C509F512001FC50AF520C53D
:102BF8000BF521C50CF512001FC50DF520C50EF506
:102C080021C50FF512001FC510F520C511F521C506
:0A2C180012F5120003011A8F1200DA
:0A2C2400110012001200120011004E
:020000040030CA
:080000008FFFFFFF9FFFFFFFD0
:01000900FFF7
:00000001FF
