:0400000081EF00F09C
:10000800650D650D650D650D4000650D4000650DBC
:10001800260D650D650D650D650D650D650D650D87
:10002800650D400040004000650D650D650D650DCE
:10003800C00C830B640D650DB10B650D650DD90BF7
:10004800650D650D650D650D40004000650D650D7C
:10005800650D650D650D4000650D650D650D650D3A
:100068002C0D650D650D650D650D650D650D650D31
:10007800650D650D650D650D4000650D650D650D1A
:10008800650D650D650D650D650D650D650D650DD8
:10009800650D650D650D650D4000650D400040005E
:1000A800320D650D650D650D650D650D650D650DEB
:1000B800650D650D650D650D650D650D650D650DA8
:1000C800650D650D650D650D650D650D650D650D98
:1000D800650D650D650D650D650D650D650D650D88
:1000E8004000650D650D650D400040004000400072
:0E00F800650D650D650D650DFF00A7EF16F097
:1026000000C430000000006A2A0000000000000042
:102610000000000000000000003E3100AA31000070
:102620000000D23200363500283500020000FF00DD
:102630000240000000000501B66FA0C5B7F5B70E57
:102640000501956F050E966F000E986F010E976F3E
:10265000010EBFEC19F0A1C5B7F5B70E0501956FD6
:10266000050E966F000E986F010E976F020EBFEC6D
:1026700019F0A2C5B7F5B70E0501956F050E966F57
:10268000000E986F010E976F030EBFEC19F0A3C5F3
:10269000B7F5B70E0501956F050E966F000E986F92
:1026A000010E976F040EBFEC19F0A4C5B7F5B70E75
:1026B0000501956F050E966F000E986F010E976FCE
:1026C000050EBFEC19F0A5C5B7F5B70E0501956F5E
:1026D000050E966F000E986F010E976F060EBFECF9
:1026E00019F00501A651A711D8B479EF13F07BEFCB
:1026F00013F089EF13F0A6C59AF5A7C59BF5000E58
:102700009D6F050E9C6F000E9E6F09EC19F09FEFF8
:1027100013F0E70EB76FE70EB86FE70EB96FE70E6D
:10272000BA6FE70EBB6FB70E9A6F050E9B6F000E68
:102730009D6F050E9C6F000E9E6F09EC19F0050150
:10274000A851A911D8B4A7EF13F0A9EF13F0B7EF70
:1027500013F0A8C59AF5A9C59BF5000E9D6F050E4F
:102760009C6F010E9E6F09EC19F0CDEF13F0C20EB5
:10277000B76FC20EB86FC20EB96FC20EBA6FC20E7B
:10278000BB6FB70E9A6F050E9B6F000E9D6F050E07
:102790009C6F010E9E6F09EC19F0AAC5B7F5B70E34
:1027A00005019A6F050E9B6F000E9D6F010E9C6FC9
:1027B000020E9E6F09EC19F0ABC5B7F5B70E050117
:1027C0009A6F050E9B6F000E9D6F010E9C6F030E9E
:1027D0009E6F09EC19F0ACC5B7F5B70E05019A6FFD
:1027E000050E9B6F000E9D6F010E9C6F040E9E6F79
:1027F00009EC19F0ADC5B7F5B70E05019A6F050ED6
:102800009B6F000E9D6F010E9C6F050E9E6F09EC75
:1028100019F00501AE51AF11D8B411EF14F013EF58
:1028200014F01FEF14F0AEC59AF5AFC59BF5000E7E
:102830009D6F050E9C6F40EC1AF033EF14F0E70E1D
:10284000B76FE70EB86FE70EB96FE70EBA6FE70E16
:10285000BB6FB70E9A6F050E9B6F000E9D6F050E36
:102860009C6F40EC1AF0B0C5B7F5B70E0501956F37
:10287000050E966F000E986F010E976F110EBFEC4C
:1028800019F0B1C5B7F5B70E0501956F050E966F36
:10289000000E986F010E976F120EBFEC19F0B2C5C3
:1028A000B7F5B70E0501956F050E966F000E986F80
:1028B000010E976F130EBFEC19F0B3C5B7F5B70E45
:1028C0000501956F050E966F000E986F010E976FBC
:1028D000140EBFEC19F0B4C5B7F5B70E0501956F2E
:1028E000050E966F000E986F010E976F150EBFECD8
:1028F00019F0B5C5B7F5B70E0501956F050E966FC2
:10290000000E986F010E976F160EBFEC19F00501BF
:10291000B6A38DEF14F08FEF14F09FEF14F0B6C54F
:102920009AF59F51D8A497EF14F09AEF14F0010E86
:102930009BEF14F0000ED7EC16F0A2EF14F0B65196
:10294000D2EC19F0120033EC1AF0CB96C386C89C77
:10295000C88AC8980001848F820E846F400E856FEC
:10296000866B1F0E896FC690C692BE80BE9221EE06
:10297000C8F111EE60F2040EDBC4E3F4E806FCE2F9
:1029800021EEC3F111EE65F2040EDBC4E3F4E806B8
:10299000FCE221EEBEF111EE6AF2040EDBC4E3F4B8
:1029A000E806FCE2010E05019F6F3F0EA06F3F0E8F
:1029B000A16F030EA26F1A0EA36F7A0EA46F070EFB
:1029C000A56F600EA66F060EA76F650EA86F060EA8
:1029D000A96FC30EAA6FC40EAB6FC50EAC6FC60E47
:1029E000AD6F6A0EAE6F060EAF6F200EB06F200E89
:1029F000B16F000EB26F000EB36F000EB46F000E19
:102A0000B56F0A0E1BEC13F015EC1AF024EC1AF05B
:102A1000D68E62EC18F0000E35EC15F0C96AD16A5A
:102A200021EE00F211EE40F21F0EDBC4E3F4E806E3
:102A3000FCE2400E0501956F060E966F000E986F32
:102A4000200E976FE4EC19F0090E0501BD6F1E0E04
:102A5000BC6FE40EE82EFED7BC2FFCD7BD2FFAD7F3
:102A6000000010EF15F081EF00F00501856F000107
:102A700084BF3DEF15F03FEF15F0A1EF15F0810E8B
:102A80002A6E05018551050DF3502B0F836F83C509
:102A9000F6F4260EF76E000EF86E0800F5C484F00A
:102AA0008551050DF3C483F5010E832783512B0F48
:102AB000846F84C5F6F4260EF76E000EF86E0800DB
:102AC000F5C485F08551050DF3C483F5020E832707
:102AD00083512B0F846F84C5F6F4260EF76E000E1B
:102AE000F86E0800F550FC0B0001866F050185515A
:102AF000050DF3C483F5030E832783512B0F846FD9
:102B000084C5F6F4260EF76E000EF86E0800F5C4C4
:102B100089F08551050DF3C483F5040E8327835195
:102B20002B0F846F84C5F6F4260EF76E000EF86E38
:102B30000800F5C48CF0C89CA1840001848FA1EF2B
:102B400015F01200BE6ABF6AC06AC16AC26AC36A6F
:102B50000401026B0A6B126B1A6B226B2A6BC6683C
:102B6000C768EF0EC86EC96A0F0ECA6ECB68FC0E3E
:102B7000006F08698F0E106F186B070E206F2869A1
:102B8000016B096B116B196B216B296B03690B6965
:102B900013691B69070E236F2B6904690C6914699B
:102BA0001C690F0E246F2C690201896B886B876B7F
:102BB000866B150E6B6F320E156F160E6A6F310E27
:102BC000176F0401056B066B076B0D6B0E6B0F6BBC
:102BD000156B166B176B256B266B276B1200D68A4D
:102BE000000ED6BE010E0501866FD69E550E04015D
:102BF000596FAA0E596F59915F6B5E6B080E5D6F2E
:102C0000550E596FAA0E596F5981050186B102D030
:102C1000D69E01D0D68E0301658165836585658961
:102C2000658FAF90D680960E0501836F350E846F49
:102C3000000E856FB0EC1AF0B490D682980E0501A4
:102C4000836F350E846F000E856FA9EC1AF0B89073
:102C5000D6849A0E0501836F350E846F000E856F42
:102C6000A2EC1AF01200000E05018D6F000E8C6FA1
:102C700062EF16F08A51D8B440EF16F042EF16F02A
:102C800054EF16F08C518625D96E8D518721DA6E5E
:102C90008C518625E16E8D518721E26EE75081ECE3
:102CA00018F0DF6E5FEF16F08C518625D96E8D51CE
:102CB0008721DA6EDF508B6F8B5181EC18F00501A4
:102CC0008C4B8D2B88518C5D89518D59D8A06BEF21
:102CD00016F06DEF16F03AEF16F01200000E116EBE
:102CE000000E106E9BEF16F00E50D8B47AEF16F06F
:102CF0007CEF16F08EEF16F010500A24D96E1150AA
:102D00000B20DA6E10500A24E16E11500B20E26E97
:102D1000E750BAEC18F0DF6E99EF16F010500A2465
:102D2000D96E11500B20DA6EDF500F6E0F50BAECD7
:102D300018F0104A112A0C50105C0D501158D8A0F0
:102D4000A4EF16F0A6EF16F074EF16F01200840E42
:102D5000F66E300EF76E000EF86E01EE00F210EE19
:102D600040F00900F5C4EEF4E550E150FAE1180E28
:102D7000F66E350EF76E000EF86E01EEBEF110EE37
:102D80000FF00900F5C4EEF4E550E150FAE101EE70
:102D900022F1120EEE6AE806FDE10401080E5D6FF5
:102DA000000E5E6F000E5F6F0001A3EF14F00501CF
:102DB0009C6F05019A839A0E956F050E966F000E13
:102DC000986F010E976F000EBFEC19F0200E0501F1
:102DD0009B6F290EE82EFED79B2FFCD700D0050154
:102DE0009AB1F5EF16F0F7EF16F0FBEF16F0B9EC2D
:102DF0001AF005EF17F09C51D8B401EF17F003EF6C
:102E000017F0F7EF16F0B7EC1AF012002650271063
:102E1000D8B40DEF17F00FEF17F01EEF17F022C523
:102E2000D9F423C5DAF4DF500001816F224A232A46
:102E3000FF0E2624266EFF0E2720276E2650271011
:102E4000D8A425EF17F027EF17F034EF17F028502C
:102E50002910D8A42EEF17F030EF17F034EF17F049
:102E6000810E2A6E34EF17F0110021EE20F211EEE0
:102E700060F11F0EDBC4E3F4E806FCE2600E196E9D
:102E8000050E1A6E000E1C6E200E1B6EF5EC19F06E
:102E9000C5EC1AF0AA0EBAEC18F00501806FC3EC6D
:102EA0001AF0AA0E05018019D8A459EF17F05BEFAC
:102EB00017F05FEF17F0010ED16E61EF17F0020E01
:102EC000D16E1200FAC420F5FBC421F52BC581F5A3
:102ED0002CC582F58AEC17F00501D051D111D21121
:102EE000D8B475EF17F077EF17F084EF17F002D82A
:102EF00084EF17F00500FA6ED051FD6ED151FE6ED1
:102F0000D251FF6EFA501200B19821C5FBF420C5D2
:102F1000FAF4110003011EA590EF17F092EF17F0DD
:102F2000AAEF17F01EB197EF17F09AEF17F0010E06
:102F30009BEF17F0000E1F6E0501825103011D6FFC
:102F400081C51CF31FB002D01E9102D003011E8167
:102F5000B0EF17F00501825103011D6F81C51CF30D
:022F600012005D
:102F6400FAC41DF5FBC41EF52E500301196F2DC5BF
:102F740018F3345035103610D8B4C3EF17F0C5EF3A
:102F840017F0D2EF17F002D8D2EF17F00500FA6E5F
:102F94003450FD6E3550FE6E3650FF6EFA501200FE
:102FA400B19E1EC5FBF41DC5FAF4110003011E9168
:102FB4001F6B206B030E216FF30E1D6F7F0E1C6FB2
:102FC4001D510501836F03011C512B6E83C52CF524
:102FD4009C0E0501D06F350ED16F000ED26F000E1E
:102FE400CD6F000ECE6F000ECF6FB198A188050E85
:102FF40003011E6F12000501936FBDEC1AF093C517
:1030040094F5940E0501866F050E876F000E896F87
:10301400010E886F010E8A6F33EC16F08EC586F5AB
:103024008FC587F590C588F591C589F592C58AF550
:1030340033EC16F0BBEC1AF0050194511200176E34
:10304400C5EC1AF017C518F5180E0A6E050E0B6EAE
:10305400000E0D6E010E0C6E010E0E6E6EEC16F06F
:1030640012C50AF513C50BF514C50CF515C50DF5F8
:1030740016C50EF56EEC16F0C3EC1AF018501200DB
:1030840048656C6C6F2C204E524632344C303121E2
:10309400000000000000000000000000000000002C
:1030A40048656C6C6F2C204E524632344C303121C2
:1030B400000000000000000000000000000000000C
:1030C400A184A192A1800001846B040E856F866B9C
:1030D400896B8C6B8785000E0501836F000E846FEE
:1030E400000E856F9BEC1AF0000E0501836F000E35
:1030F400846F000E856F94EC1AF02A6A12000501A1
:10310400846F69EC19F00009D8B48BEF18F08DEFD7
:1031140018F091EF18F005018451D5EC18F0000176
:1031240086BF97EF18F099EF18F091EF18F09FEC25
:1031340018F00501856F85511200D7AEA4EF18F081
:10314400ABEF19F0810E2A18D8A4ABEF18F0ADEF4D
:1031540018F0B5EF18F0000186510309866F80C09E
:1031640083F5B7EF18F00501836B05018351120055
:10317400086E05EC1AF00009D8B4C3EF18F0C5EFD7
:1031840018F0C8EF18F0085097EC19F0000186BF4A
:10319400CEEF18F0D0EF18F0C8EF18F0ABEC19F040
:1031A400096E09501200D7AEDAEF18F097EF19F054
:1031B4000501836F810E2A18D8A4E3EF18F0E5EF18
:1031C40018F0EEEF18F0000186510309866F836B47
:1031D400010E826F83C581F012000B0E0301196F7B
:1031E400DC0E186F790E1B6F19510501836F0301F3
:1031F40018512D6E83C52EF56A0E346E2E0E356E63
:10320400000E366EB19EA18E900E1A6F1200050E3E
:1032140005019E6510EF19F012EF19F014EF19F083
:1032240020EF19F09AC595F59BC596F59CC597F5C1
:103234009DC598F59E510A0FBFEC19F012003D5040
:103244003E103F10D8B429EF19F02BEF19F038EFE6
:1032540019F002D838EF19F00500FA6E3D50FD6EF2
:103264003E50FE6E3F50FF6EFA50120012003A506C
:103274003B103C10D8B441EF19F043EF19F050EF74
:1032840019F002D850EF19F00500FA6E3A50FD6EAD
:103294003B50FE6E3C50FF6EFA5012001200375045
:1032A40038103910D8B459EF19F05BEF19F068EF02
:1032B40019F002D868EF19F00500FA6E3750FD6E68
:1032C4003850FE6E3950FF6EFA5012001200D7AE1D
:1032D4006EEF19F005EF1AF0810E2A18D8A475EFD5
:1032E40019F077EF19F07CEF19F0010E0501836FE7
:1032F4007EEF19F00501836B8351120028502910C9
:10330400D8A487EF19F089EF19F096EF19F0265039
:103314002710D8A490EF19F092EF19F096EF19F056
:10332400810E2A6E96EF19F01100076E810E2A188D
:10333400D8A49FEF19F0A1EF19F0AAEF19F000013A
:1033440086510309866F836B010E826F07C581F076
:103354001200810E2A18D8A4B2EF19F0B4EF19F0B4
:10336400BCEF19F0000186510309866F80C007F590
:10337400BDEF19F0076A075012000501996F95C552
:103384008EF596C58FF597C590F598C591F5000E05
:103394000501926F99511F0B2009FDEC17F01200E3
:1033A40005019A6F05019A939A0E956F050E966F13
:1033B400000E986F010E976F000EBFEC19F0B9EC78
:1033C4001AF0120095C58EF596C58FF597C590F540
:1033D40098C591F5000E0501926FA00EFDEC17F053
:1033E4007AEC1AF0120019C512F51AC513F51BC5AB
:1033F40014F51CC515F5000E166EA00E21EC18F080
:1034040083EC1AF01200810E2A18D8A40CEF1AF0DB
:103414000EEF1AF012EF1AF0010E076E13EF1AF006
:10342400076A07501200700E05019A6F9A0E956F85
:10343400050E966F000E986F010E976F070EBFEC86
:1034440019F01200000E05018E6F000E8F6F000E32
:10345400916F000E906F010E926FE10EFDEC17F06C
:10346400120070EC1AF0A2EC15F0EFEC18F0D8ECA6
:1034740017F062EC18F0EFEC15F012009AC595F510
:103484009BC596F59CC597F59DC598F5100EBFECA8
:1034940019F01200FAC401F5FBC402F5AF9021EC57
:1034A40019F002C5FBF401C5FAF41100FAC403F5DE
:1034B400FBC404F5B49039EC19F004C5FBF403C55E
:1034C400FAF41100FAC405F5FBC406F5B89051EC02
:1034D40019F006C5FBF405C5FAF41100600E0001ED
:1034E400AD6FAF6BB36B080EB16FB06BAC6B12000A
:1034F400B7EC1AF03A0EE82EFED700D0B9EC1AF069
:103504001200BFEC1AF03A0EE82EFED700D0C1EC40
:103514001AF01200E7E7E7E7E7C2C2C2C2C2E7E770
:03352400E7E7E7EF
:1035280083C5D3F584C5D4F585C5D5F5120083C503
:10353800D6F584C5D7F585C5D8F5120083C537F506
:1035480084C538F585C539F5120083C53AF584C5B3
:103558003BF585C53CF5120083C53DF584C53EF5B0
:1035680085C53FF51200BE821200BE921200BE80D1
:103578001200BE901200BE821200BE921200BE80DF
:063588001200BE901200CB
:02359000110028
:0A35940011001200120012001200D4
:020000040030CA
:080000008FFFFFFF9FFFFFFFD0
:01000900FFF7
:00000001FF
