:0400000081EF00F09C
:100008002E0D2E0D2E0D2E0D40002E0D40002E0D06
:10001800EA0C2E0D2E0D2E0D2E0D2E0D2E0D2E0D45
:100028002E0D4000400040002E0D2E0D2E0D2E0DE1
:100038002E0D2E0D2E0D2E0D2E0D2E0D2E0D6B0CA4
:100048002E0D2E0D2E0D2E0D400040002E0D2E0DC6
:100058002E0D2E0D2E0D40002E0D2E0D2E0D2E0DBB
:10006800F00C2E0D2E0D2E0D2E0D2E0D2E0D2E0DEF
:100078002E0D2E0D2E0D2E0D40002E0D2E0D2E0D9B
:100088002E0D2E0D2E0D2E0D2E0D2E0D2E0D2E0D90
:100098002E0D2E0D2E0D2E0D40002E0D4000400071
:1000A800F60C2E0D2E0D2E0D2E0D2E0D2E0D2E0DA9
:1000B8002E0D2E0D2E0D2E0D2E0D2E0D2E0D2E0D60
:1000C8002E0D2E0D2E0D2E0D2E0D2E0D2E0D2E0D50
:1000D8002E0D2E0D2E0D2E0D2E0D2E0D2E0D2E0D40
:1000E80040002E0D2E0D2E0D400040004000400017
:0E00F8002E0D2E0D2E0D2E0DFF0011EF18F007
:10260000008E3300000000A02C000000000000003D
:102610000000000000000633000000000000000081
:10262000000000000000000000000002C000FF00E9
:1026300002C000FF00000501656B0B500C10D8B400
:1026400024EF13F026EF13F029EF13F064692AEF5B
:1026500013F0646B1950115C236E1A501258246EDB
:1026600024BE3CEF13F0D10E235C070E2458D8A0F3
:102670003CEF13F03EEF13F041EF13F061699CEF74
:1026800013F024BE4DEF13F0DD0E235C050E24582D
:10269000D8A04DEF13F04FEF13F053EF13F0E00E0F
:1026A000616F9CEF13F024BE5FEF13F0F50E235C17
:1026B000010E2458D8A05FEF13F061EF13F065EF1F
:1026C00013F0C00E616F9CEF13F024AE71EF13F0A6
:1026D000300E235CF80E2458D8B071EF13F073EF6E
:1026E00013F076EF13F0616B9CEF13F024AE82EFE2
:1026F00013F0240E235CFA0E2458D8B082EF13F0A6
:1027000084EF13F088EF13F0200E616F9CEF13F04D
:1027100024AE94EF13F00C0E235CFE0E2458D8B0B8
:1027200094EF13F096EF13F09AEF13F0400E616FF1
:102730009CEF13F0800E616F1B50135C216E1C50D8
:102740001458226E22BEAEEF13F0E90E215C030E88
:102750002258D8A0AEEF13F0B0EF13F0B3EF13F0A0
:1027600060690EEF14F022BEBFEF13F0BD0E215CC6
:10277000020E2258D8A0BFEF13F0C1EF13F0C5EF3F
:1027800013F0E00E606F0EEF14F022BED1EF13F0E5
:102790002D0E215C010E2258D8A0D1EF13F0D3EFFB
:1027A00013F0D7EF13F0C00E606F0EEF14F022AEEF
:1027B000E3EF13F0180E215CFC0E2258D8B0E3EFC3
:1027C00013F0E5EF13F0E8EF13F0606B0EEF14F089
:1027D00022AEF4EF13F0440E215CFD0E2258D8B067
:1027E000F4EF13F0F6EF13F0FAEF13F0200E606F32
:1027F0000EEF14F022AE06EF14F0D40E215CFE0EA4
:102800002258D8B006EF14F008EF14F00CEF14F0D3
:10281000400E606F0EEF14F0800E606F15500D5C6F
:102820001D6E16500E581E6E1EBE20EF14F0D10EF7
:102830001D5C070E1E58D8A020EF14F022EF14F0F4
:1028400025EF14F0636980EF14F01EBE31EF14F031
:10285000DD0E1D5C050E1E58D8A031EF14F033EFCD
:1028600014F037EF14F0E00E636F80EF14F01EBE2B
:1028700043EF14F0F50E1D5C010E1E58D8A043EF77
:1028800014F045EF14F049EF14F0C00E636F80EFC1
:1028900014F01EAE55EF14F0300E1D5CF80E1E58ED
:1028A000D8B055EF14F057EF14F05AEF14F0636BF3
:1028B00080EF14F01EAE66EF14F0240E1D5CFA0ECD
:1028C0001E58D8B066EF14F068EF14F06CEF14F0F7
:1028D000200E636F80EF14F01EAE78EF14F00C0E34
:1028E0001D5CFE0E1E58D8B078EF14F07AEF14F08D
:1028F0007EEF14F0400E636F80EF14F0800E636F74
:1029000017500F5C1F6E18501058206E20BE92EFAB
:1029100014F0E90E1F5C030E2058D8A092EF14F0BB
:1029200094EF14F097EF14F06269F2EF14F020BE08
:10293000A3EF14F0BD0E1F5C020E2058D8A0A3EF29
:1029400014F0A5EF14F0A9EF14F0E00E626FF2EFAF
:1029500014F020BEB5EF14F02D0E1F5C010E2058B0
:10296000D8A0B5EF14F0B7EF14F0BBEF14F0C00E21
:10297000626FF2EF14F020AEC7EF14F0180E1F5C78
:10298000FC0E2058D8B0C7EF14F0C9EF14F0CCEF0C
:1029900014F0626BF2EF14F020AED8EF14F0440E96
:1029A0001F5CFD0E2058D8B0D8EF14F0DAEF14F009
:1029B000DEEF14F0200E626FF2EF14F020AEEAEFBB
:1029C00014F0D40E1F5CFE0E2058D8B0EAEF14F0BD
:1029D000ECEF14F0F0EF14F0400E626FF2EF14F031
:1029E000800E626F1200AAEC19F0D68EC890C080DB
:1029F000C7EC19F0000E50EC16F0C792BF82C794D6
:102A0000BF94CB90C380CB96CB94C780040109813F
:102A1000CB88299947EC18F08F0E0501996F050EA8
:102A20009A6F7A0E9B6FFDEC18F0F8EC19F0000E1F
:102A30003B6E000E3C6E000E3D6E3DEC1AF02D50CC
:102A4000D8A425EF15F027EF15F037EF15F02E502D
:102A5000D8A42DEF15F02FEF15F037EF15F025C5A1
:102A60003CF526C53DF59BEC17F0010E2D6E2E5062
:102A7000D8B43DEF15F03FEF15F057EF15F02C509F
:102A8000D8A445EF15F047EF15F057EF15F02B5090
:102A9000D8A44DEF15F04FEF15F057EF15F025C501
:102AA0003CF526C53DF5B5EC16F0010E2B6E325007
:102AB000D8B45DEF15F05FEF15F033EF16F02D5041
:102AC000D8B465EF15F067EF15F0B7EF15F02550A6
:102AD0002610D8A46EEF15F070EF15F07AEF15F010
:102AE000254A262A27C51BF528C51CF52D6A326AFA
:102AF000B7EF15F025042610D8A481EF15F083EF69
:102B000015F08BEF15F0254A262A27C519F528C59B
:102B10001AF576EF15F0020E25182610D8A493EFBB
:102B200015F095EF15F09DEF15F0254A262A27C5DB
:102B300017F528C518F576EF15F0030E25182610A1
:102B4000D8A4A5EF15F0A7EF15F0B7EF15F0254ABB
:102B5000262A27C515F528C516F52D6A010E2E6EF5
:102B6000326A000E266E000E256EB7EF15F02B5060
:102B7000D8B4BDEF15F0BFEF15F033EF16F02550C8
:102B80002610D8A4C6EF15F0C8EF15F0D2EF15F057
:102B9000254A262A27C513F528C514F52B6A326A5B
:102BA00033EF16F025042610D8A4D9EF15F0DBEF8B
:102BB00015F0E3EF15F0254A262A27C511F528C59B
:102BC00012F5CEEF15F0020E25182610D8A4EBEF63
:102BD00015F0EDEF15F0F5EF15F0254A262A27C57B
:102BE0000FF528C510F5CEEF15F0030E25182610A9
:102BF000D8A4FDEF15F0FFEF15F007EF16F0254A0A
:102C0000262A27C50DF528C50EF5CEEF15F0040EC2
:102C100025182610D8A40FEF16F011EF16F019EFB3
:102C200016F0254A262A27C50BF528C50CF5CEEF48
:102C300015F0050E25182610D8A421EF16F023EF65
:102C400016F033EF16F0254A262A27C50BF528C5BE
:102C50000CF52B6A010E2C6E326A000E266E000EE9
:102C6000256E33EF16F02C50D8B439EF16F03BEF49
:102C700016F01FEF15F01BEC13F0600E3F6E050E03
:102C8000406E5AEC17F0E806D8A449EF16F04BEF67
:102C900016F01FEF15F02C6A1FEF15F081EF00F012
:102CA0003D6E000184BF57EF16F059EF16F0B4EFF8
:102CB00016F03D50050DF3502B0F3B6E3BC5F6F45F
:102CC000260EF76E000EF86E0800F5C484F03D5035
:102CD000050DF3C43BF5010E3B263B502B0F3C6E1C
:102CE0003CC5F6F4260EF76E000EF86E0800F5C42B
:102CF00085F03D50050DF3C43BF5020E3B263B50DD
:102D00002B0F3C6E3CC5F6F4260EF76E000EF86EE7
:102D10000800F550FC0B866F3D50050DF3C43BF5E4
:102D2000030E3B263B502B0F3C6E3CC5F6F4260EA3
:102D3000F76E000EF86E0800F5C489F03D50050DE1
:102D4000F3C43BF5040E3B263B502B0F3C6E3CC5B9
:102D5000F6F4260EF76E000EF86E0800F5C48CF03F
:102D6000C896848FB4EF16F012003C503D10D8A4E2
:102D7000BCEF16F0BEEF16F0C3EF16F01F0E20ECFE
:102D80001AF00DEF17F03C043D10D8A4CAEF16F06E
:102D9000CCEF16F0D1EF16F01A0E20EC1AF00DEF72
:102DA00017F0020E3C183D10D8A4D9EF16F0DBEF57
:102DB00016F0E0EF16F01E0E20EC1AF00DEF17F0F3
:102DC000030E3C183D10D8A4E8EF16F0EAEF16F019
:102DD000EFEF16F01D0E20EC1AF00DEF17F0040EB9
:102DE0003C183D10D8A4F7EF16F0F9EF16F0FEEFFF
:102DF00016F01C0E20EC1AF00DEF17F0050E3C1823
:102E00003D10D8A406EF17F008EF17F00DEF17F0FC
:102E1000190E20EC1AF00DEF17F01200BE6ABF6A0F
:102E2000C06AC16AC26AC36A0401026B0A6B126B90
:102E30001A6B226B2A6BC668C768DF0EC86EC9683A
:102E40000F0ECA6ECB6800690869C70E106F18694B
:102E5000070E206F2869016B096B116B196B216BD1
:102E6000296B03690B6913691B69070E236F2B69B3
:102E700004690C6914691C690F0E246F2C69020126
:102E8000896B886B876B866B140E6B6F320E166FB7
:102E9000130E6A6F310E146F0401056B066B076B1E
:102EA0000D6B0E6B0F6B156B166B176B256B266B13
:102EB000276B120055EC1AF0A00E83EC19F0000EEF
:102EC0000501966F000E956F95513F24D96E96516E
:102ED0004020DA6EDF5083EC19F00501954B962BFC
:102EE00096BF7CEF17F0965109E1200E955DD8A0B2
:102EF0007CEF17F07EEF17F064EF17F053EC1AF049
:102F0000170EB9EC19F00501946F94A98AEF17F028
:102F10008CEF17F099EF17F094B791EF17F093EF4C
:102F200017F099EF17F0E10E17EC1AF0010E9AEF77
:102F300017F0000E12003C503D10D8A4A2EF17F07D
:102F4000A4EF17F0A9EF17F01F0E20EC1AF0D5EF41
:102F500017F03C043D10D8A4B0EF17F0B2EF17F013
:102F6000B7EF17F01A0E20EC1AF0D5EF17F0020E9B
:102F70003C183D10D8A4BFEF17F0C1EF17F0C6EF13
:102F800017F01E0E20EC1AF0D5EF17F0030E3C18C8
:102F90003D10D8A4CEEF17F0D0EF17F0D5EF17F013
:102FA0001D0E20EC1AF0D5EF17F01200D68A000E95
:102FB000D6BE010E3E6ED69E550E0401596FAA0E66
:102FC000596F59915F6B5E6B080E5D6F550E596FAF
:102FD000AA0E596F59813EB002D0D69E01D0D68E2E
:102FE0000301658FAF90D680BA0E3B6E340E3C6EF7
:102FF000000E3D6E36EC1AF0B490D682BC0E3B6EDD
:10300000340E3C6E000E3D6E2FEC1AF0B890D68454
:10301000BE0E3B6E340E3C6E000E3D6E28EC1AF078
:103020001200060EF66E340EF76E000EF86E01EE0C
:1030300080F110EE14F00900F5C4EEF4E550E15013
:10304000FAE1880EF66E340EF76E000EF86E01EEA1
:1030500042F110EE0CF00900F5C4EEF4E550E15039
:10306000FAE101EE60F1200EEE6AE806FDE101EE04
:1030700001F1320EEE6AE806FDE10401080E5D6F13
:10308000000E5E6F000E5F6F0001F3EF14F059EC5D
:103090001AF0000E3D6E000E99EC19F0050EB9EC19
:1030A00019F0416E4128416E000E3D6E010E99EC03
:1030B00019F0000EB9EC19F0416E000E3D6E020ED3
:1030C00099EC19F0030E3D6E030E99EC19F0000E09
:1030D0003D6E040E99EC19F0000E3D6E050E99EC54
:1030E00019F00E0E3D6E060E99EC19F057EC1AF021
:1030F00012000301F39FD96BDA6BDB6BDC6BDF6BC8
:10310000E06BE56BE76B1D0EEC6FEE6BEF6BD86B56
:10311000F06BF16BF26BF46B180EF56F100EF66F2F
:10312000F76BF86B1F0EFA6FF96B000E046E000E52
:10313000056E000E066E000E016E000E026E000E91
:10314000036E316AAF949F94B090A090840EF36F99
:1031500012000501966F050196512009946F55ECF8
:103160001AF00501945183EC19F0000E0501986FD7
:10317000000E976FC8EF18F097513D24D96E985103
:103180003E20DA6EDF5083EC19F00501974B982B47
:103190003F50975D40509859D8A0D1EF18F0D3EF29
:1031A00018F0BCEF18F053EC1AF01200FAC439F51D
:1031B000FBC43AF52A500301196F29C518F305011C
:1031C0009C519D119E11D8B4E8EF18F0EAEF18F069
:1031D000F7EF18F002D8F7EF18F00500FA6E9C51DF
:1031E000FD6E9D51FE6E9E51FF6EFA501200B19E13
:1031F0003AC5FBF439C5FAF4110059EC1AF09BC535
:103200003DF5050E99EC19F099C53DF59AC53EF5C9
:10321000000E406E050E3F6E100EA9EC18F0000E69
:10322000B9EC19F0416E41500209416E41C53DF5BE
:10323000000E99EC19F0050EB9EC19F057EC1AF0E4
:1032400012000B0E0301196FDC0E186F790E1B6F45
:1032500019513B6E1851296E3BC52AF5A00E050188
:103260009C6F340E9D6F000E9E6FB19EA18E900ECE
:1032700003011A6F1200545055105610D8B443EF82
:1032800019F045EF19F052EF19F002D852EF19F08A
:103290000500FA6E5450FD6E5550FE6E5650FF6E8E
:1032A000FA5012001200515052105310D8B45BEF74
:1032B00019F05DEF19F06AEF19F002D86AEF19F012
:1032C0000500FA6E5150FD6E5250FE6E5350FF6E67
:1032D000FA50120012004E504F105010D8B473EF35
:1032E00019F075EF19F082EF19F002D882EF19F09A
:1032F0000500FA6E4E50FD6E4F50FE6E5050FF6E40
:10330000FA50120012003B6E0001878586510309B6
:10331000866F836B010E826F3BC581F0B1A093EF86
:1033200019F095EF19F08EEF19F080C03CF53C5084
:1033300012003E6E3E5020093F6E3DC540F555ECF3
:103340001AF03F5083EC19F0405083EC19F053EC25
:103350001AF012000DEC1AF00EEC17F079EC18F0E0
:1033600021EC19F04AEC1AF0C7EC19F0D6EC17F082
:1033700012003D6E55EC1AF03D5083EC19F0FF0E33
:1033800083EC19F03E6E53EC1AF03E501200A194FB
:10339000A192A1900001846B040E856F866B896BEE
:0633A0008C6B8785120012
:1033A800FAC433F5FBC434F5AF903BEC19F034C5DF
:1033B800FBF433C5FAF41100FAC435F5FBC436F54D
:1033C800B49053EC19F036C5FBF435C5FAF4110086
:1033D800FAC437F5FBC438F5B8906BEC19F038C56A
:1033E800FBF437C5FAF411000301F36BF86B3F0ED9
:1033F800FA6FF351F30B0409F36FF38F1200E7E749
:10340800E7E7E7C2C2C2C2C2E7E7E7E7E7E7E7E7FD
:10341800E7E7600E0001AD6FAF6BB36B080EB16FDD
:10342800B06BAC6B12003D6E55EC1AF03D5083EC5E
:1034380019F053EC1AF012003B6E3BC5ECF3AF9455
:103448000301F39DF38112003BC54EF53CC54FF5D2
:103458003DC550F512003BC551F53CC552F53DC57B
:1034680053F512003BC554F53CC555F53DC556F519
:1034780012003BC504F53CC505F53DC506F512002F
:10348800E803BC022C01D007DC05F401010E0001A1
:103498003A6F900E396F1200010E306E1200BF8421
:0E34A8001200BF941200BF821200BF921200E9
:0834B8001100120012001200C5
:020000040030CA
:080000008FFFFFFF9FFFFFFFD0
:01000900FFF7
:00000001FF
