:0400000081EF00F09C
:10000800DC0CDC0CDC0CDC0C4000DC0C4000DC0CF8
:100018009B0CDC0CDC0CDC0CDC0CDC0CDC0CDC0CD9
:10002800DC0C400040004000DC0CDC0CDC0CDC0C80
:10003800790BDC0BDB0CDC0CDC0CDC0CDC0C0B0CAF
:10004800DC0CDC0CDC0CDC0C40004000DC0CDC0CB8
:10005800DC0CDC0CDC0C4000DC0CDC0CDC0CDC0C00
:10006800A10CDC0CDC0CDC0CDC0CDC0CDC0CDC0C83
:10007800DC0CDC0CDC0CDC0C4000DC0CDC0CDC0CE0
:10008800DC0CDC0CDC0CDC0CDC0CDC0CDC0CDC0C28
:10009800DC0CDC0CDC0CDC0C4000DC0C4000400010
:1000A800A70CDC0CDC0CDC0CDC0CDC0CDC0CDC0C3D
:1000B800DC0CDC0CDC0CDC0CDC0CDC0CDC0CDC0CF8
:1000C800DC0CDC0CDC0CDC0CDC0CDC0CDC0CDC0CE8
:1000D800DC0CDC0CDC0CDC0CDC0CDC0CDC0CDC0CD8
:1000E8004000DC0CDC0CDC0C400040004000400010
:0E00F800DC0CDC0CDC0CDC0CFF00BBEF16F0AB
:1026000000C43000000000722A000000000000003A
:10261000000000000000AE2E0000000000000000DE
:102620000000000000FC3200EE320002C000FF009B
:1026300002C000FF00001F0EE1EC18F03BC51CF5C6
:102640003CC51DF51A0EE1EC18F03BC51AF53CC56A
:102650001BF51E0EE1EC18F03BC518F53CC519F54D
:102660001D0EE1EC18F03BC516F53CC517F51C0E28
:10267000E1EC18F03BC514F53CC515F5190EE1EC7D
:1026800018F03BC512F53CC513F512501310D8B421
:102690004CEF13F04EEF13F052EF13F005016569A4
:1026A00054EF13F00501656B14501510D8B45BEFAF
:1026B00013F05DEF13F060EF13F0646961EF13F056
:1026C000646B22501A5C2C6E23501B582D6E2DBE4D
:1026D00073EF13F0D10E2C5C070E2D58D8A073EFBA
:1026E00013F075EF13F078EF13F06169D3EF13F087
:1026F0002DBE84EF13F0DD0E2C5C050E2D58D8A0F6
:1027000084EF13F086EF13F08AEF13F0E00E616FA1
:10271000D3EF13F02DBE96EF13F0F50E2C5C010EE7
:102720002D58D8A096EF13F098EF13F09CEF13F00C
:10273000C00E616FD3EF13F02DAEA8EF13F0300E83
:102740002C5CF80E2D58D8B0A8EF13F0AAEF13F0B8
:10275000ADEF13F0616BD3EF13F02DAEB9EF13F0C3
:10276000240E2C5CFA0E2D58D8B0B9EF13F0BBEF45
:1027700013F0BFEF13F0200E616FD3EF13F02DAE07
:10278000CBEF13F00C0E2C5CFE0E2D58D8B0CBEF17
:1027900013F0CDEF13F0D1EF13F0400E616FD3EFD4
:1027A00013F0800E616F24501C5C2A6E25501D585A
:1027B0002B6E2BBEE5EF13F0E90E2A5C030E2B58AF
:1027C000D8A0E5EF13F0E7EF13F0EAEF13F060693C
:1027D00045EF14F02BBEF6EF13F0BD0E2A5C020E8F
:1027E0002B58D8A0F6EF13F0F8EF13F0FCEF13F02E
:1027F000E00E606F45EF14F02BBE08EF14F02D0EC5
:102800002A5C010E2B58D8A008EF14F00AEF14F040
:102810000EEF14F0C00E606F45EF14F02BAE1AEF00
:1028200014F0180E2A5CFC0E2B58D8B01AEF14F0D6
:102830001CEF14F01FEF14F0606B45EF14F02BAE9B
:102840002BEF14F0440E2A5CFD0E2B58D8B02BEF62
:1028500014F02DEF14F031EF14F0200E606F45EFFF
:1028600014F02BAE3DEF14F0D40E2A5CFE0E2B5864
:10287000D8B03DEF14F03FEF14F043EF14F0400EEA
:10288000606F45EF14F0800E606F1E50165C266E70
:102890001F501758276E27BE57EF14F0D10E265C35
:1028A000070E2758D8A057EF14F059EF14F05CEF3B
:1028B00014F06369B7EF14F027BE68EF14F0DD0E73
:1028C000265C050E2758D8A068EF14F06AEF14F0C4
:1028D0006EEF14F0E00E636FB7EF14F027BE7AEFDF
:1028E00014F0F50E265C010E2758D8A07AEF14F0EC
:1028F0007CEF14F080EF14F0C00E636FB7EF14F0AC
:1029000027AE8CEF14F0300E265CF80E2758D8B0A6
:102910008CEF14F08EEF14F091EF14F0636BB7EFBF
:1029200014F027AE9DEF14F0240E265CFA0E275803
:10293000D8B09DEF14F09FEF14F0A3EF14F0200E29
:10294000636FB7EF14F027AEAFEF14F00C0E265CF8
:10295000FE0E2758D8B0AFEF14F0B1EF14F0B5EF7A
:1029600014F0400E636FB7EF14F0800E636F2050C9
:10297000185C286E21501958296E29BEC9EF14F031
:10298000E90E285C030E2958D8A0C9EF14F0CBEF4C
:1029900014F0CEEF14F0626929EF15F029BEDAEFDA
:1029A00014F0BD0E285C020E2958D8A0DAEF14F0FE
:1029B000DCEF14F0E0EF14F0E00E626F29EF15F099
:1029C00029BEECEF14F02D0E285C010E2958D8A07A
:1029D000ECEF14F0EEEF14F0F2EF14F0C00E626FB3
:1029E00029EF15F029AEFEEF14F0180E285CFC0E4E
:1029F0002958D8B0FEEF14F000EF15F003EF15F0F2
:102A0000626B29EF15F029AE0FEF15F0440E285C2C
:102A1000FD0E2958D8B00FEF15F011EF15F015EF96
:102A200015F0200E626F29EF15F029AE21EF15F099
:102A3000D40E285CFE0E2958D8B021EF15F023EFF4
:102A400015F027EF15F0400E626F29EF15F0800E9C
:102A5000626F600E3E6E050E3F6E3FEC16F0E806AC
:102A6000D8A435EF15F037EF15F038EF15F0C38621
:102A700012003D6E000184BF40EF15F042EF15F0EB
:102A8000A0EF15F0810E096E3D50050DF3502B0F90
:102A90003B6E3BC5F6F4260EF76E000EF86E08008E
:102AA000F5C484F03D50050DF3C43BF5010E3B2603
:102AB0003B502B0F3C6E3CC5F6F4260EF76E000E15
:102AC000F86E0800F5C485F03D50050DF3C43BF5E4
:102AD000020E3B263B502B0F3C6E3CC5F6F4260EF7
:102AE000F76E000EF86E0800F550FC0B866F3D5037
:102AF000050DF3C43BF5030E3B263B502B0F3C6EFC
:102B00003CC5F6F4260EF76E000EF86E0800F5C40C
:102B100089F03D50050DF3C43BF5040E3B263B50B8
:102B20002B0F3C6E3CC5F6F4260EF76E000EF86EC9
:102B30000800F5C48CF0C896A184848FA0EF15F02E
:102B4000120018EC19F0D68EC890C08062EC18F014
:102B5000000E39EC15F0C792BF82C794BF94CB909A
:102B6000C380CB96CB94C78004010981CB88299977
:102B700025EC17F08F0E406E050E416E7A0E426EF8
:102B80003DEC18F0F5EC18F01F0EE1EC18F03BC529
:102B900024F53CC525F51A0EE1EC18F03BC522F5ED
:102BA0003CC523F51E0EE1EC18F03BC520F53CC5F5
:102BB00021F51D0EE1EC18F03BC51EF53CC51FF5D7
:102BC000A6EC19F0ACEC19F03150D8B4EAEF15F0DE
:102BD000ECEF15F0E4EF15F01BEC13F0316AE4EFC5
:102BE00015F081EF00F0BE6ABF6AC06AC16AC26AAE
:102BF000C36A0401026B0A6B126B1A6B226B2A6B9D
:102C0000C668C768DF0EC86EC9680F0ECA6ECB688B
:102C100000690869C70E106F1869070E206F2869D0
:102C2000016B096B116B196B216B296B03690B69C4
:102C300013691B69070E236F2B6904690C691469FA
:102C40001C690F0E246F2C690201896B886B876BDE
:102C5000866B140E6B6F320E166F130E6A6F310E89
:102C6000146F0401056B066B076B0D6B0E6B0F6B1E
:102C7000156B166B176B256B266B276B1200B0EC70
:102C800019F0A00E57EC17F0000E426E000E416EC8
:102C900041503E24D96E42503F20DA6EDF5057EC4F
:102CA00017F0414A422A42BE5FEF16F0425009E156
:102CB000200E415CD8A05FEF16F061EF16F048EFF0
:102CC00016F0AEEC19F0170E27EC19F0406E40A884
:102CD0006CEF16F06EEF16F07BEF16F040B673EF68
:102CE00016F075EF16F07BEF16F0E10E6EEC19F0B2
:102CF000010E7CEF16F0000E1200D68A000ED6BE32
:102D0000010E3E6ED69E550E0401596FAA0E596FE4
:102D100059915F6B5E6B080E5D6F550E596FAA0E71
:102D2000596F59813EB002D0D69E01D0D68E030194
:102D3000658165836585658FAF90D680720E3B6E29
:102D4000330E3C6E000E3D6E93EC19F0B490D682BB
:102D5000740E3B6E330E3C6E000E3D6E8CEC19F023
:102D6000B890D684760E3B6E330E3C6E000E3D6EF0
:102D700085EC19F01200B40EF66E320EF76E000EEE
:102D8000F86E01EE80F110EE14F00900F5C4EEF4D7
:102D9000E550E150FAE1340EF66E330EF76E000E98
:102DA000F86E01EE43F110EE0CF00900F5C4EEF4FC
:102DB000E550E150FAE101EE60F1200EEE6AE8061E
:102DC000FDE101EE01F1320EEE6AE806FDE10401DB
:102DD000080E5D6F000E5E6F000E5F6F0001A1EFC9
:022DE00015F0EC
:102DE40007500810D8B4F9EF16F0FBEF16F00BEF0C
:102DF40017F003C5D9F404C5DAF480C0DFF4034A3C
:102E0400042AFF0E0724076EFF0E0820086E0DEF3C
:102E140017F00001805107500810D8A414EF17F0E0
:102E240016EF17F024EF17F0A19005500610D8A460
:102E34001EEF17F020EF17F024EF17F0810E096E44
:102E440024EF17F01100B4EC19F0000E3C6E000EE4
:102E540007EC19F0050E27EC19F0406E4028406E7F
:102E6400000E3C6E010E07EC19F0000E27EC19F071
:102E7400406E000E3C6E020E07EC19F0030E3C6E21
:102E8400030E07EC19F0000E3C6E040E07EC19F06B
:102E9400000E3C6E050E07EC19F00E0E3C6E060E8D
:102EA40007EC19F0B2EC19F012003B6E810E091810
:102EB400D8A45FEF17F061EF17F058EF17F0000197
:102EC400878586510309866F3B0E016E050E026EDF
:102ED4003B0E036E050E046E000E066E010E056EAB
:102EE400000E086E010E076E420E096E836B010E12
:102EF400826FA180A182420E0918D8B484EF17F022
:102F040086EF17F07DEF17F03B5012000301F39F9B
:102F1400D96BDA6BDB6BDC6BDF6BE06BE56BE76B60
:102F24001D0EEC6FEE6BEF6BD86BF06BF16BF26B0D
:102F3400F46B180EF56F100EF66FF76BF86B1F0E2F
:102F4400FA6FF96B000E0D6E000E0E6E000E0F6E12
:102F5400000E0A6E000E0B6E000E0C6E326AAF94F9
:102F64009F94B090A090840EF36F12000550061049
:102F7400D8B4BFEF17F0C1EF17F0D0EF17F001C5C9
:102F8400D9F402C5DAF4DF500001816F014A022A44
:102F9400FF0E0524056EFF0E0620066E0550061072
:102FA400D8A4D7EF17F0D9EF17F0E7EF17F0A192F5
:102FB40007500810D8A4E1EF17F0E3EF17F0E7EF9C
:102FC40017F0810E096EE7EF17F0110005019F6FEE
:102FD40005019F5120099D6FB0EC19F005019D5129
:102FE40057EC17F0000E0501A16F000EA06F07EF5C
:102FF40018F0A0513C24D96EA1513D20DA6EDF5067
:1030040057EC17F00501A04BA12B3E50A05D3F509B
:10301400A159D8A010EF18F012EF18F0FBEF17F039
:06302400AEEC19F01200F1
:10302C00FAC439F5FBC43AF52F500301196F2EC5BC
:10303C0018F30501945195119611D8B428EF18F096
:10304C002AEF18F037EF18F002D837EF18F0050018
:10305C00FA6E9451FD6E9551FE6E9651FF6EFA50BC
:10306C001200B19E3AC5FBF439C5FAF41100B4EC68
:10307C0019F042C53CF5050E07EC19F040C53CF5BE
:10308C0041C53DF5000E3F6E050E3E6E100EE8EC90
:10309C0017F0000E27EC19F00501A26FA2510209DE
:1030AC00A26FA2C53CF5000E07EC19F0050E27EC3B
:1030BC0019F0B2EC19F01200A194A192A1900001A8
:1030CC00846B040E856F866B896B8C6B8785000E09
:1030DC003B6E000E3C6E000E3D6E7EEC19F0000E49
:1030EC003B6E000E3C6E000E3D6E77EC19F0096ADB
:1030FC0012000B0E0301196FDC0E186F790E1B6F8B
:10310C0019513B6E18512E6E3BC52FF5520E050111
:10311C00946F330E956F000E966FB19EA18E900E2C
:10312C0003011A6F1200555056105710D8B4A1EF66
:10313C0018F0A3EF18F0B0EF18F002D8B0EF18F0B9
:10314C000500FA6E5550FD6E5650FE6E5750FF6ED0
:10315C00FA5012001200525053105410D8B4B9EF58
:10316C0018F0BBEF18F0C8EF18F002D8C8EF18F041
:10317C000500FA6E5250FD6E5350FE6E5450FF6EA9
:10318C00FA50120012004F5050105110D8B4D1EF19
:10319C0018F0D3EF18F0E0EF18F002D8E0EF18F0C9
:1031AC000500FA6E4F50FD6E5050FE6E5150FF6E82
:1031BC00FA50120012003F6E3FC5ECF30301F39D71
:1031CC00F381F3B1ECEF18F0EEEF18F0E7EF18F035
:1031DC00EB513D6EEA513B6E3DC53CF512000301CF
:1031EC00F36BF86B3F0EFA6FF351F30B0409F36FAB
:1031FC00F38F1E0EE1EC18F03BC510F53CC511F534
:10320C0012003D6E3D5020093E6E3CC53FF5B0ECC2
:10321C0019F03E5057EC17F03F5057EC17F0AEEC4E
:10322C0019F0120064EC19F0F3EC15F088EC17F0BF
:10323C007FEC18F0A0EC19F062EC18F07DEC16F0B5
:10324C0012003C6EB0EC19F03C5057EC17F0FF0E2E
:0E325C0057EC17F03D6EAEEC19F03D5012002D
:10326C00FAC433F5FBC434F5AF9099EC18F034C5BF
:10327C00FBF433C5FAF41100FAC435F5FBC436F58A
:10328C00B490B1EC18F036C5FBF435C5FAF4110066
:10329C00FAC437F5FBC438F5B890C9EC18F038C54A
:1032AC00FBF437C5FAF41100E7E7E7E7E7C2C2C25F
:1032BC00C2C2E7E7E7E7E7E7E7E7E7E7600E000109
:1032CC00AD6FAF6BB36B080EB16FB06BAC6B120024
:1032DC003C6EB0EC19F03C5057EC17F0AEEC19F01A
:1032EC0012003BC597F53CC598F53DC599F5120004
:1032FC003BC59AF53CC59BF53DC59CF512003BC5FD
:10330C004FF53CC550F53DC551F512003BC552F586
:10331C003CC553F53DC554F512003BC555F53CC5B0
:10332C0056F53DC557F51200E803BC022C01D00739
:10333C00DC05F401010E00013A6F900E396F12009A
:10334C0003011A8F1200010E316E1200A18E1200B1
:10335C00BF841200BF941200BF821200BF921200F1
:02336C0011004E
:0833700011001200120012000E
:020000040030CA
:080000008FFFFFFF9FFFFFFFD0
:01000900FFF7
:00000001FF
